{"contracts/Domains.sol":{"Domains":{"abi":[{"inputs":[{"internalType":"string","name":"_tld","type":"string"}],"stateMutability":"payable","type":"constructor"},{"anonymous":false,"inputs":[{"indexed":true,"internalType":"address","name":"owner","type":"address"},{"indexed":true,"internalType":"address","name":"approved","type":"address"},{"indexed":true,"internalType":"uint256","name":"tokenId","type":"uint256"}],"name":"Approval","type":"event"},{"anonymous":false,"inputs":[{"indexed":true,"internalType":"address","name":"owner","type":"address"},{"indexed":true,"internalType":"address","name":"operator","type":"address"},{"indexed":false,"internalType":"bool","name":"approved","type":"bool"}],"name":"ApprovalForAll","type":"event"},{"anonymous":false,"inputs":[{"indexed":true,"internalType":"address","name":"from","type":"address"},{"indexed":true,"internalType":"address","name":"to","type":"address"},{"indexed":true,"internalType":"uint256","name":"tokenId","type":"uint256"}],"name":"Transfer","type":"event"},{"inputs":[{"internalType":"address","name":"to","type":"address"},{"internalType":"uint256","name":"tokenId","type":"uint256"}],"name":"approve","outputs":[],"stateMutability":"nonpayable","type":"function"},{"inputs":[{"internalType":"address","name":"owner","type":"address"}],"name":"balanceOf","outputs":[{"internalType":"uint256","name":"","type":"uint256"}],"stateMutability":"view","type":"function"},{"inputs":[{"internalType":"string","name":"","type":"string"}],"name":"domains","outputs":[{"internalType":"address","name":"","type":"address"}],"stateMutability":"view","type":"function"},{"inputs":[{"internalType":"string","name":"name","type":"string"}],"name":"getAddress","outputs":[{"internalType":"address","name":"","type":"address"}],"stateMutability":"view","type":"function"},{"inputs":[{"internalType":"uint256","name":"tokenId","type":"uint256"}],"name":"getApproved","outputs":[{"internalType":"address","name":"","type":"address"}],"stateMutability":"view","type":"function"},{"inputs":[{"internalType":"string","name":"name","type":"string"}],"name":"getRecord","outputs":[{"internalType":"string","name":"","type":"string"}],"stateMutability":"view","type":"function"},{"inputs":[{"internalType":"address","name":"owner","type":"address"},{"internalType":"address","name":"operator","type":"address"}],"name":"isApprovedForAll","outputs":[{"internalType":"bool","name":"","type":"bool"}],"stateMutability":"view","type":"function"},{"inputs":[],"name":"isOwner","outputs":[{"internalType":"bool","name":"","type":"bool"}],"stateMutability":"view","type":"function"},{"inputs":[],"name":"name","outputs":[{"internalType":"string","name":"","type":"string"}],"stateMutability":"view","type":"function"},{"inputs":[],"name":"owner","outputs":[{"internalType":"address payable","name":"","type":"address"}],"stateMutability":"view","type":"function"},{"inputs":[{"internalType":"uint256","name":"tokenId","type":"uint256"}],"name":"ownerOf","outputs":[{"internalType":"address","name":"","type":"address"}],"stateMutability":"view","type":"function"},{"inputs":[{"internalType":"string","name":"name","type":"string"}],"name":"price","outputs":[{"internalType":"uint256","name":"","type":"uint256"}],"stateMutability":"pure","type":"function"},{"inputs":[{"internalType":"string","name":"","type":"string"}],"name":"records","outputs":[{"internalType":"string","name":"","type":"string"}],"stateMutability":"view","type":"function"},{"inputs":[{"internalType":"string","name":"name","type":"string"}],"name":"register","outputs":[],"stateMutability":"payable","type":"function"},{"inputs":[{"internalType":"address","name":"from","type":"address"},{"internalType":"address","name":"to","type":"address"},{"internalType":"uint256","name":"tokenId","type":"uint256"}],"name":"safeTransferFrom","outputs":[],"stateMutability":"nonpayable","type":"function"},{"inputs":[{"internalType":"address","name":"from","type":"address"},{"internalType":"address","name":"to","type":"address"},{"internalType":"uint256","name":"tokenId","type":"uint256"},{"internalType":"bytes","name":"data","type":"bytes"}],"name":"safeTransferFrom","outputs":[],"stateMutability":"nonpayable","type":"function"},{"inputs":[{"internalType":"address","name":"operator","type":"address"},{"internalType":"bool","name":"approved","type":"bool"}],"name":"setApprovalForAll","outputs":[],"stateMutability":"nonpayable","type":"function"},{"inputs":[{"internalType":"string","name":"name","type":"string"},{"internalType":"string","name":"record","type":"string"}],"name":"setRecord","outputs":[],"stateMutability":"nonpayable","type":"function"},{"inputs":[{"internalType":"bytes4","name":"interfaceId","type":"bytes4"}],"name":"supportsInterface","outputs":[{"internalType":"bool","name":"","type":"bool"}],"stateMutability":"view","type":"function"},{"inputs":[],"name":"symbol","outputs":[{"internalType":"string","name":"","type":"string"}],"stateMutability":"view","type":"function"},{"inputs":[],"name":"tld","outputs":[{"internalType":"string","name":"","type":"string"}],"stateMutability":"view","type":"function"},{"inputs":[{"internalType":"uint256","name":"tokenId","type":"uint256"}],"name":"tokenURI","outputs":[{"internalType":"string","name":"","type":"string"}],"stateMutability":"view","type":"function"},{"inputs":[{"internalType":"address","name":"from","type":"address"},{"internalType":"address","name":"to","type":"address"},{"internalType":"uint256","name":"tokenId","type":"uint256"}],"name":"transferFrom","outputs":[],"stateMutability":"nonpayable","type":"function"},{"inputs":[],"name":"withdraw","outputs":[],"stateMutability":"nonpayable","type":"function"}],"evm":{"bytecode":{"linkReferences":{},"object":"6080604052604051806108a0016040528061086b8152602001620048e261086b91396009908051906020019062000038929190620002c8565b506040518060400160405280600d81526020017f3c2f746578743e3c2f7376673e00000000000000000000000000000000000000815250600a908051906020019062000086929190620002c8565b506040516200514d3803806200514d8339818101604052810190620000ac919062000515565b6040518060400160405280601381526020017f44636861696e204e616d652053657276696365000000000000000000000000008152506040518060400160405280600381526020017f444e530000000000000000000000000000000000000000000000000000000000815250816000908051906020019062000130929190620002c8565b50806001908051906020019062000149929190620002c8565b50505033600d60006101000a81548173ffffffffffffffffffffffffffffffffffffffff021916908373ffffffffffffffffffffffffffffffffffffffff1602179055508060089080519060200190620001a5929190620002c8565b50620001f26040518060400160405280601881526020017f2573206e616d652073657276696365206465706c6f796564000000000000000081525082620001f960201b620016601760201c565b5062000663565b6200029b828260405160240162000212929190620005c3565b6040516020818303038152906040527f4b5c4277000000000000000000000000000000000000000000000000000000007bffffffffffffffffffffffffffffffffffffffffffffffffffffffff19166020820180517bffffffffffffffffffffffffffffffffffffffffffffffffffffffff83818316178352505050506200029f60201b60201c565b5050565b60008151905060006a636f6e736f6c652e6c6f679050602083016000808483855afa5050505050565b828054620002d6906200062d565b90600052602060002090601f016020900481019282620002fa576000855562000346565b82601f106200031557805160ff191683800117855562000346565b8280016001018555821562000346579182015b828111156200034557825182559160200191906001019062000328565b5b50905062000355919062000359565b5090565b5b80821115620003745760008160009055506001016200035a565b5090565b6000604051905090565b600080fd5b600080fd5b600080fd5b600080fd5b6000601f19601f8301169050919050565b7f4e487b7100000000000000000000000000000000000000000000000000000000600052604160045260246000fd5b620003e18262000396565b810181811067ffffffffffffffff82111715620004035762000402620003a7565b5b80604052505050565b60006200041862000378565b9050620004268282620003d6565b919050565b600067ffffffffffffffff821115620004495762000448620003a7565b5b620004548262000396565b9050602081019050919050565b60005b838110156200048157808201518184015260208101905062000464565b8381111562000491576000848401525b50505050565b6000620004ae620004a8846200042b565b6200040c565b905082815260208101848484011115620004cd57620004cc62000391565b5b620004da84828562000461565b509392505050565b600082601f830112620004fa57620004f96200038c565b5b81516200050c84826020860162000497565b91505092915050565b6000602082840312156200052e576200052d62000382565b5b600082015167ffffffffffffffff8111156200054f576200054e62000387565b5b6200055d84828501620004e2565b91505092915050565b600081519050919050565b600082825260208201905092915050565b60006200058f8262000566565b6200059b818562000571565b9350620005ad81856020860162000461565b620005b88162000396565b840191505092915050565b60006040820190508181036000830152620005df818562000582565b90508181036020830152620005f5818462000582565b90509392505050565b7f4e487b7100000000000000000000000000000000000000000000000000000000600052602260045260246000fd5b600060028204905060018216806200064657607f821691505b602082108114156200065d576200065c620005fe565b5b50919050565b61426f80620006736000396000f3fe60806040526004361061014b5760003560e01c806370a08231116100b6578063bf40fac11161006f578063bf40fac1146104b6578063c1880a98146104f3578063c87b56dd1461051c578063e985e9c514610559578063f2c298be14610596578063fe2c6198146105b25761014b565b806370a08231146103a65780638da5cb5b146103e35780638f32d59b1461040e57806395d89b4114610439578063a22cb46514610464578063b88d4fde1461048d5761014b565b8063264492351161010857806326449235146102845780632d551432146102c15780633ccfd60b146102ec57806342842e0e14610303578063541e771d1461032c5780636352211e146103695761014b565b806301ffc9a71461015057806306fdde031461018d578063081812fc146101b8578063095ea7b3146101f557806311dd88451461021e57806323b872dd1461025b575b600080fd5b34801561015c57600080fd5b5061017760048036038101906101729190612a35565b6105ef565b6040516101849190612a7d565b60405180910390f35b34801561019957600080fd5b506101a26106d1565b6040516101af9190612b31565b60405180910390f35b3480156101c457600080fd5b506101df60048036038101906101da9190612b89565b610763565b6040516101ec9190612bf7565b60405180910390f35b34801561020157600080fd5b5061021c60048036038101906102179190612c3e565b6107a9565b005b34801561022a57600080fd5b5061024560048036038101906102409190612ce3565b6108c1565b6040516102529190612b31565b60405180910390f35b34801561026757600080fd5b50610282600480360381019061027d9190612d30565b610974565b005b34801561029057600080fd5b506102ab60048036038101906102a69190612eb3565b6109d4565b6040516102b89190612bf7565b60405180910390f35b3480156102cd57600080fd5b506102d6610a1d565b6040516102e39190612b31565b60405180910390f35b3480156102f857600080fd5b50610301610aab565b005b34801561030f57600080fd5b5061032a60048036038101906103259190612d30565b610b71565b005b34801561033857600080fd5b50610353600480360381019061034e9190612eb3565b610b91565b6040516103609190612b31565b60405180910390f35b34801561037557600080fd5b50610390600480360381019061038b9190612b89565b610c47565b60405161039d9190612bf7565b60405180910390f35b3480156103b257600080fd5b506103cd60048036038101906103c89190612efc565b610cf9565b6040516103da9190612f38565b60405180910390f35b3480156103ef57600080fd5b506103f8610db1565b6040516104059190612f74565b60405180910390f35b34801561041a57600080fd5b50610423610dd7565b6040516104309190612a7d565b60405180910390f35b34801561044557600080fd5b5061044e610e2f565b60405161045b9190612b31565b60405180910390f35b34801561047057600080fd5b5061048b60048036038101906104869190612fbb565b610ec1565b005b34801561049957600080fd5b506104b460048036038101906104af919061309c565b610ed7565b005b3480156104c257600080fd5b506104dd60048036038101906104d89190612ce3565b610f39565b6040516104ea9190612bf7565b60405180910390f35b3480156104ff57600080fd5b5061051a6004803603810190610515919061311f565b610f84565b005b34801561052857600080fd5b50610543600480360381019061053e9190612b89565b611032565b6040516105509190612b31565b60405180910390f35b34801561056557600080fd5b50610580600480360381019061057b91906131a0565b611145565b60405161058d9190612a7d565b60405180910390f35b6105b060048036038101906105ab9190612ce3565b6111d9565b005b3480156105be57600080fd5b506105d960048036038101906105d49190612ce3565b6115ba565b6040516105e69190612f38565b60405180910390f35b60007f80ac58cd000000000000000000000000000000000000000000000000000000007bffffffffffffffffffffffffffffffffffffffffffffffffffffffff1916827bffffffffffffffffffffffffffffffffffffffffffffffffffffffff191614806106ba57507f5b5e139f000000000000000000000000000000000000000000000000000000007bffffffffffffffffffffffffffffffffffffffffffffffffffffffff1916827bffffffffffffffffffffffffffffffffffffffffffffffffffffffff1916145b806106ca57506106c9826116fc565b5b9050919050565b6060600080546106e09061320f565b80601f016020809104026020016040519081016040528092919081815260200182805461070c9061320f565b80156107595780601f1061072e57610100808354040283529160200191610759565b820191906000526020600020905b81548152906001019060200180831161073c57829003601f168201915b5050505050905090565b600061076e82611766565b6004600083815260200190815260200160002060009054906101000a900473ffffffffffffffffffffffffffffffffffffffff169050919050565b60006107b482610c47565b90508073ffffffffffffffffffffffffffffffffffffffff168373ffffffffffffffffffffffffffffffffffffffff161415610825576040517f08c379a000000000000000000000000000000000000000000000000000000000815260040161081c906132b3565b60405180910390fd5b8073ffffffffffffffffffffffffffffffffffffffff166108446117b1565b73ffffffffffffffffffffffffffffffffffffffff16148061087357506108728161086d6117b1565b611145565b5b6108b2576040517f08c379a00000000000000000000000000000000000000000000000000000000081526004016108a990613345565b60405180910390fd5b6108bc83836117b9565b505050565b6060600c83836040516108d5929190613395565b908152602001604051809103902080546108ee9061320f565b80601f016020809104026020016040519081016040528092919081815260200182805461091a9061320f565b80156109675780601f1061093c57610100808354040283529160200191610967565b820191906000526020600020905b81548152906001019060200180831161094a57829003601f168201915b5050505050905092915050565b61098561097f6117b1565b82611872565b6109c4576040517f08c379a00000000000000000000000000000000000000000000000000000000081526004016109bb90613420565b60405180910390fd5b6109cf838383611907565b505050565b600b818051602081018201805184825260208301602085012081835280955050505050506000915054906101000a900473ffffffffffffffffffffffffffffffffffffffff1681565b60088054610a2a9061320f565b80601f0160208091040260200160405190810160405280929190818152602001828054610a569061320f565b8015610aa35780601f10610a7857610100808354040283529160200191610aa3565b820191906000526020600020905b815481529060010190602001808311610a8657829003601f168201915b505050505081565b610ab3610dd7565b610abc57600080fd5b600047905060003373ffffffffffffffffffffffffffffffffffffffff1682604051610ae790613471565b60006040518083038185875af1925050503d8060008114610b24576040519150601f19603f3d011682016040523d82523d6000602084013e610b29565b606091505b5050905080610b6d576040517f08c379a0000000000000000000000000000000000000000000000000000000008152600401610b64906134d2565b60405180910390fd5b5050565b610b8c83838360405180602001604052806000815250610ed7565b505050565b600c818051602081018201805184825260208301602085012081835280955050505050506000915090508054610bc69061320f565b80601f0160208091040260200160405190810160405280929190818152602001828054610bf29061320f565b8015610c3f5780601f10610c1457610100808354040283529160200191610c3f565b820191906000526020600020905b815481529060010190602001808311610c2257829003601f168201915b505050505081565b6000806002600084815260200190815260200160002060009054906101000a900473ffffffffffffffffffffffffffffffffffffffff169050600073ffffffffffffffffffffffffffffffffffffffff168173ffffffffffffffffffffffffffffffffffffffff161415610cf0576040517f08c379a0000000000000000000000000000000000000000000000000000000008152600401610ce79061353e565b60405180910390fd5b80915050919050565b60008073ffffffffffffffffffffffffffffffffffffffff168273ffffffffffffffffffffffffffffffffffffffff161415610d6a576040517f08c379a0000000000000000000000000000000000000000000000000000000008152600401610d61906135d0565b60405180910390fd5b600360008373ffffffffffffffffffffffffffffffffffffffff1673ffffffffffffffffffffffffffffffffffffffff168152602001908152602001600020549050919050565b600d60009054906101000a900473ffffffffffffffffffffffffffffffffffffffff1681565b6000600d60009054906101000a900473ffffffffffffffffffffffffffffffffffffffff1673ffffffffffffffffffffffffffffffffffffffff163373ffffffffffffffffffffffffffffffffffffffff1614905090565b606060018054610e3e9061320f565b80601f0160208091040260200160405190810160405280929190818152602001828054610e6a9061320f565b8015610eb75780601f10610e8c57610100808354040283529160200191610eb7565b820191906000526020600020905b815481529060010190602001808311610e9a57829003601f168201915b5050505050905090565b610ed3610ecc6117b1565b8383611b6e565b5050565b610ee8610ee26117b1565b83611872565b610f27576040517f08c379a0000000000000000000000000000000000000000000000000000000008152600401610f1e90613420565b60405180910390fd5b610f3384848484611cdb565b50505050565b6000600b8383604051610f4d929190613395565b908152602001604051809103902060009054906101000a900473ffffffffffffffffffffffffffffffffffffffff16905092915050565b3373ffffffffffffffffffffffffffffffffffffffff16600b8585604051610fad929190613395565b908152602001604051809103902060009054906101000a900473ffffffffffffffffffffffffffffffffffffffff1673ffffffffffffffffffffffffffffffffffffffff1614610ffc57600080fd5b8181600c8686604051611010929190613395565b9081526020016040518091039020919061102b9291906128a0565b5050505050565b606061103d82611766565b600060066000848152602001908152602001600020805461105d9061320f565b80601f01602080910402602001604051908101604052809291908181526020018280546110899061320f565b80156110d65780601f106110ab576101008083540402835291602001916110d6565b820191906000526020600020905b8154815290600101906020018083116110b957829003601f168201915b5050505050905060006110e7611d37565b90506000815114156110fd578192505050611140565b60008251111561113257808260405160200161111a929190613621565b60405160208183030381529060405292505050611140565b61113b84611d4e565b925050505b919050565b6000600560008473ffffffffffffffffffffffffffffffffffffffff1673ffffffffffffffffffffffffffffffffffffffff16815260200190815260200160002060008373ffffffffffffffffffffffffffffffffffffffff1673ffffffffffffffffffffffffffffffffffffffff16815260200190815260200160002060009054906101000a900460ff16905092915050565b600073ffffffffffffffffffffffffffffffffffffffff16600b8383604051611203929190613395565b908152602001604051809103902060009054906101000a900473ffffffffffffffffffffffffffffffffffffffff1673ffffffffffffffffffffffffffffffffffffffff161461125257600080fd5b600061125e83836115ba565b9050803410156112a3576040517f08c379a000000000000000000000000000000000000000000000000000000000815260040161129a90613691565b60405180910390fd5b6000838360086040516020016112bb93929190613791565b60405160208183030381529060405290506000600982600a6040516020016112e5939291906137c2565b604051602081830303815290604052905060006113026007611db6565b9050600061135387878080601f016020809104026020016040519081016040528093929190818152602001838380828437600081840152601f19601f82011690508083019250505050505050611dc4565b9050600061136082611f79565b90506114546040518060600160405280603181526020016141906031913989898080601f016020809104026020016040519081016040528093929190818152602001838380828437600081840152601f19601f82011690508083019250505050505050600880546113d09061320f565b80601f01602080910402602001604051908101604052809291908181526020018280546113fc9061320f565b80156114495780601f1061141e57610100808354040283529160200191611449565b820191906000526020600020905b81548152906001019060200180831161142c57829003601f168201915b5050505050866120da565b600061148a866114638761217c565b846040516020016114769392919061396f565b60405160208183030381529060405261217c565b905060008160405160200161149f9190613a18565b60405160208183030381529060405290506114d1604051806060016040528060398152602001614157603991396122e0565b6115106040518060400160405280600e81526020017f46696e616c20746f6b656e55524900000000000000000000000000000000000081525082611660565b6115316040518060600160405280603981526020016141c1603991396122e0565b61153b3386612379565b6115458582612397565b33600b8b8b604051611558929190613395565b908152602001604051809103902060006101000a81548173ffffffffffffffffffffffffffffffffffffffff021916908373ffffffffffffffffffffffffffffffffffffffff1602179055506115ae600761240b565b50505050505050505050565b60008061160a84848080601f016020809104026020016040519081016040528093929190818152602001838380828437600081840152601f19601f82011690508083019250505050505050611dc4565b90506000811161161957600080fd5b6003811415611633576706f05b59d3b2000091505061165a565b600481141561164d57670429d069189e000091505061165a565b67016345785d8a00009150505b92915050565b6116f88282604051602401611676929190613a3a565b6040516020818303038152906040527f4b5c4277000000000000000000000000000000000000000000000000000000007bffffffffffffffffffffffffffffffffffffffffffffffffffffffff19166020820180517bffffffffffffffffffffffffffffffffffffffffffffffffffffffff8381831617835250505050612421565b5050565b60007f01ffc9a7000000000000000000000000000000000000000000000000000000007bffffffffffffffffffffffffffffffffffffffffffffffffffffffff1916827bffffffffffffffffffffffffffffffffffffffffffffffffffffffff1916149050919050565b61176f8161244a565b6117ae576040517f08c379a00000000000000000000000000000000000000000000000000000000081526004016117a59061353e565b60405180910390fd5b50565b600033905090565b816004600083815260200190815260200160002060006101000a81548173ffffffffffffffffffffffffffffffffffffffff021916908373ffffffffffffffffffffffffffffffffffffffff160217905550808273ffffffffffffffffffffffffffffffffffffffff1661182c83610c47565b73ffffffffffffffffffffffffffffffffffffffff167f8c5be1e5ebec7d5bd14f71427d1e84f3dd0314c0f7b2291e5b200ac8c7c3b92560405160405180910390a45050565b60008061187e83610c47565b90508073ffffffffffffffffffffffffffffffffffffffff168473ffffffffffffffffffffffffffffffffffffffff1614806118c057506118bf8185611145565b5b806118fe57508373ffffffffffffffffffffffffffffffffffffffff166118e684610763565b73ffffffffffffffffffffffffffffffffffffffff16145b91505092915050565b8273ffffffffffffffffffffffffffffffffffffffff1661192782610c47565b73ffffffffffffffffffffffffffffffffffffffff161461197d576040517f08c379a000000000000000000000000000000000000000000000000000000000815260040161197490613ae3565b60405180910390fd5b600073ffffffffffffffffffffffffffffffffffffffff168273ffffffffffffffffffffffffffffffffffffffff1614156119ed576040517f08c379a00000000000000000000000000000000000000000000000000000000081526004016119e490613b75565b60405180910390fd5b6119f88383836124b6565b611a036000826117b9565b6001600360008573ffffffffffffffffffffffffffffffffffffffff1673ffffffffffffffffffffffffffffffffffffffff1681526020019081526020016000206000828254611a539190613bc4565b925050819055506001600360008473ffffffffffffffffffffffffffffffffffffffff1673ffffffffffffffffffffffffffffffffffffffff1681526020019081526020016000206000828254611aaa9190613bf8565b92505081905550816002600083815260200190815260200160002060006101000a81548173ffffffffffffffffffffffffffffffffffffffff021916908373ffffffffffffffffffffffffffffffffffffffff160217905550808273ffffffffffffffffffffffffffffffffffffffff168473ffffffffffffffffffffffffffffffffffffffff167fddf252ad1be2c89b69c2b068fc378daa952ba7f163c4a11628f55a4df523b3ef60405160405180910390a4611b698383836124bb565b505050565b8173ffffffffffffffffffffffffffffffffffffffff168373ffffffffffffffffffffffffffffffffffffffff161415611bdd576040517f08c379a0000000000000000000000000000000000000000000000000000000008152600401611bd490613c9a565b60405180910390fd5b80600560008573ffffffffffffffffffffffffffffffffffffffff1673ffffffffffffffffffffffffffffffffffffffff16815260200190815260200160002060008473ffffffffffffffffffffffffffffffffffffffff1673ffffffffffffffffffffffffffffffffffffffff16815260200190815260200160002060006101000a81548160ff0219169083151502179055508173ffffffffffffffffffffffffffffffffffffffff168373ffffffffffffffffffffffffffffffffffffffff167f17307eab39ab6107e8899845ad3d59bd9653f200f220920489ca2b5937696c3183604051611cce9190612a7d565b60405180910390a3505050565b611ce6848484611907565b611cf2848484846124c0565b611d31576040517f08c379a0000000000000000000000000000000000000000000000000000000008152600401611d2890613d2c565b60405180910390fd5b50505050565b606060405180602001604052806000815250905090565b6060611d5982611766565b6000611d63611d37565b90506000815111611d835760405180602001604052806000815250611dae565b80611d8d84611f79565b604051602001611d9e929190613621565b6040516020818303038152906040525b915050919050565b600081600001549050919050565b60008060008084519050600092505b80821015611f6e576000858381518110611df057611def613d4c565b5b602001015160f81c60f81b9050608060f81b817effffffffffffffffffffffffffffffffffffffffffffffffffffffffffffff19161015611e3f57600183611e389190613bf8565b9250611f5a565b60e060f81b817effffffffffffffffffffffffffffffffffffffffffffffffffffffffffffff19161015611e8157600283611e7a9190613bf8565b9250611f59565b60f060f81b817effffffffffffffffffffffffffffffffffffffffffffffffffffffffffffff19161015611ec357600383611ebc9190613bf8565b9250611f58565b60f8801b817effffffffffffffffffffffffffffffffffffffffffffffffffffffffffffff19161015611f0457600483611efd9190613bf8565b9250611f57565b60fc60f81b817effffffffffffffffffffffffffffffffffffffffffffffffffffffffffffff19161015611f4657600583611f3f9190613bf8565b9250611f56565b600683611f539190613bf8565b92505b5b5b5b5b508280611f6690613d7b565b935050611dd3565b829350505050919050565b60606000821415611fc1576040518060400160405280600181526020017f300000000000000000000000000000000000000000000000000000000000000081525090506120d5565b600082905060005b60008214611ff3578080611fdc90613d7b565b915050600a82611fec9190613df3565b9150611fc9565b60008167ffffffffffffffff81111561200f5761200e612d88565b5b6040519080825280601f01601f1916602001820160405280156120415781602001600182028036833780820191505090505b5090505b600085146120ce5760018261205a9190613bc4565b9150600a856120699190613e24565b60306120759190613bf8565b60f81b81838151811061208b5761208a613d4c565b5b60200101907effffffffffffffffffffffffffffffffffffffffffffffffffffffffffffff1916908160001a905350600a856120c79190613df3565b9450612045565b8093505050505b919050565b612176848484846040516024016120f49493929190613e55565b6040516020818303038152906040527f8eafb02b000000000000000000000000000000000000000000000000000000007bffffffffffffffffffffffffffffffffffffffffffffffffffffffff19166020820180517bffffffffffffffffffffffffffffffffffffffffffffffffffffffff8381831617835250505050612421565b50505050565b606060008251141561219f576040518060200160405280600081525090506122db565b60006040518060600160405280604081526020016141fa60409139905060006003600285516121ce9190613bf8565b6121d89190613df3565b60046121e49190613eaf565b67ffffffffffffffff8111156121fd576121fc612d88565b5b6040519080825280601f01601f19166020018201604052801561222f5781602001600182028036833780820191505090505b509050600182016020820185865187015b8082101561229b576003820191508151603f8160121c168501518453600184019350603f81600c1c168501518453600184019350603f8160061c168501518453600184019350603f8116850151845360018401935050612240565b50506003865106600181146122b757600281146122ca576122d2565b603d6001830353603d60028303536122d2565b603d60018303535b50505080925050505b919050565b612376816040516024016122f49190612b31565b6040516020818303038152906040527f41304fac000000000000000000000000000000000000000000000000000000007bffffffffffffffffffffffffffffffffffffffffffffffffffffffff19166020820180517bffffffffffffffffffffffffffffffffffffffffffffffffffffffff8381831617835250505050612421565b50565b612393828260405180602001604052806000815250612648565b5050565b6123a08261244a565b6123df576040517f08c379a00000000000000000000000000000000000000000000000000000000081526004016123d690613f7b565b60405180910390fd5b80600660008481526020019081526020016000209080519060200190612406929190612926565b505050565b6001816000016000828254019250508190555050565b60008151905060006a636f6e736f6c652e6c6f679050602083016000808483855afa5050505050565b60008073ffffffffffffffffffffffffffffffffffffffff166002600084815260200190815260200160002060009054906101000a900473ffffffffffffffffffffffffffffffffffffffff1673ffffffffffffffffffffffffffffffffffffffff1614159050919050565b505050565b505050565b60006124e18473ffffffffffffffffffffffffffffffffffffffff166126a3565b1561263b578373ffffffffffffffffffffffffffffffffffffffff1663150b7a0261250a6117b1565b8786866040518563ffffffff1660e01b815260040161252c9493929190613ff0565b6020604051808303816000875af192505050801561256857506040513d601f19601f820116820180604052508101906125659190614051565b60015b6125eb573d8060008114612598576040519150601f19603f3d011682016040523d82523d6000602084013e61259d565b606091505b506000815114156125e3576040517f08c379a00000000000000000000000000000000000000000000000000000000081526004016125da90613d2c565b60405180910390fd5b805181602001fd5b63150b7a0260e01b7bffffffffffffffffffffffffffffffffffffffffffffffffffffffff1916817bffffffffffffffffffffffffffffffffffffffffffffffffffffffff191614915050612640565b600190505b949350505050565b61265283836126c6565b61265f60008484846124c0565b61269e576040517f08c379a000000000000000000000000000000000000000000000000000000000815260040161269590613d2c565b60405180910390fd5b505050565b6000808273ffffffffffffffffffffffffffffffffffffffff163b119050919050565b600073ffffffffffffffffffffffffffffffffffffffff168273ffffffffffffffffffffffffffffffffffffffff161415612736576040517f08c379a000000000000000000000000000000000000000000000000000000000815260040161272d906140ca565b60405180910390fd5b61273f8161244a565b1561277f576040517f08c379a000000000000000000000000000000000000000000000000000000000815260040161277690614136565b60405180910390fd5b61278b600083836124b6565b6001600360008473ffffffffffffffffffffffffffffffffffffffff1673ffffffffffffffffffffffffffffffffffffffff16815260200190815260200160002060008282546127db9190613bf8565b92505081905550816002600083815260200190815260200160002060006101000a81548173ffffffffffffffffffffffffffffffffffffffff021916908373ffffffffffffffffffffffffffffffffffffffff160217905550808273ffffffffffffffffffffffffffffffffffffffff16600073ffffffffffffffffffffffffffffffffffffffff167fddf252ad1be2c89b69c2b068fc378daa952ba7f163c4a11628f55a4df523b3ef60405160405180910390a461289c600083836124bb565b5050565b8280546128ac9061320f565b90600052602060002090601f0160209004810192826128ce5760008555612915565b82601f106128e757803560ff1916838001178555612915565b82800160010185558215612915579182015b828111156129145782358255916020019190600101906128f9565b5b50905061292291906129ac565b5090565b8280546129329061320f565b90600052602060002090601f016020900481019282612954576000855561299b565b82601f1061296d57805160ff191683800117855561299b565b8280016001018555821561299b579182015b8281111561299a57825182559160200191906001019061297f565b5b5090506129a891906129ac565b5090565b5b808211156129c55760008160009055506001016129ad565b5090565b6000604051905090565b600080fd5b600080fd5b60007fffffffff0000000000000000000000000000000000000000000000000000000082169050919050565b612a12816129dd565b8114612a1d57600080fd5b50565b600081359050612a2f81612a09565b92915050565b600060208284031215612a4b57612a4a6129d3565b5b6000612a5984828501612a20565b91505092915050565b60008115159050919050565b612a7781612a62565b82525050565b6000602082019050612a926000830184612a6e565b92915050565b600081519050919050565b600082825260208201905092915050565b60005b83811015612ad2578082015181840152602081019050612ab7565b83811115612ae1576000848401525b50505050565b6000601f19601f8301169050919050565b6000612b0382612a98565b612b0d8185612aa3565b9350612b1d818560208601612ab4565b612b2681612ae7565b840191505092915050565b60006020820190508181036000830152612b4b8184612af8565b905092915050565b6000819050919050565b612b6681612b53565b8114612b7157600080fd5b50565b600081359050612b8381612b5d565b92915050565b600060208284031215612b9f57612b9e6129d3565b5b6000612bad84828501612b74565b91505092915050565b600073ffffffffffffffffffffffffffffffffffffffff82169050919050565b6000612be182612bb6565b9050919050565b612bf181612bd6565b82525050565b6000602082019050612c0c6000830184612be8565b92915050565b612c1b81612bd6565b8114612c2657600080fd5b50565b600081359050612c3881612c12565b92915050565b60008060408385031215612c5557612c546129d3565b5b6000612c6385828601612c29565b9250506020612c7485828601612b74565b9150509250929050565b600080fd5b600080fd5b600080fd5b60008083601f840112612ca357612ca2612c7e565b5b8235905067ffffffffffffffff811115612cc057612cbf612c83565b5b602083019150836001820283011115612cdc57612cdb612c88565b5b9250929050565b60008060208385031215612cfa57612cf96129d3565b5b600083013567ffffffffffffffff811115612d1857612d176129d8565b5b612d2485828601612c8d565b92509250509250929050565b600080600060608486031215612d4957612d486129d3565b5b6000612d5786828701612c29565b9350506020612d6886828701612c29565b9250506040612d7986828701612b74565b9150509250925092565b600080fd5b7f4e487b7100000000000000000000000000000000000000000000000000000000600052604160045260246000fd5b612dc082612ae7565b810181811067ffffffffffffffff82111715612ddf57612dde612d88565b5b80604052505050565b6000612df26129c9565b9050612dfe8282612db7565b919050565b600067ffffffffffffffff821115612e1e57612e1d612d88565b5b612e2782612ae7565b9050602081019050919050565b82818337600083830152505050565b6000612e56612e5184612e03565b612de8565b905082815260208101848484011115612e7257612e71612d83565b5b612e7d848285612e34565b509392505050565b600082601f830112612e9a57612e99612c7e565b5b8135612eaa848260208601612e43565b91505092915050565b600060208284031215612ec957612ec86129d3565b5b600082013567ffffffffffffffff811115612ee757612ee66129d8565b5b612ef384828501612e85565b91505092915050565b600060208284031215612f1257612f116129d3565b5b6000612f2084828501612c29565b91505092915050565b612f3281612b53565b82525050565b6000602082019050612f4d6000830184612f29565b92915050565b6000612f5e82612bb6565b9050919050565b612f6e81612f53565b82525050565b6000602082019050612f896000830184612f65565b92915050565b612f9881612a62565b8114612fa357600080fd5b50565b600081359050612fb581612f8f565b92915050565b60008060408385031215612fd257612fd16129d3565b5b6000612fe085828601612c29565b9250506020612ff185828601612fa6565b9150509250929050565b600067ffffffffffffffff82111561301657613015612d88565b5b61301f82612ae7565b9050602081019050919050565b600061303f61303a84612ffb565b612de8565b90508281526020810184848401111561305b5761305a612d83565b5b613066848285612e34565b509392505050565b600082601f83011261308357613082612c7e565b5b813561309384826020860161302c565b91505092915050565b600080600080608085870312156130b6576130b56129d3565b5b60006130c487828801612c29565b94505060206130d587828801612c29565b93505060406130e687828801612b74565b925050606085013567ffffffffffffffff811115613107576131066129d8565b5b6131138782880161306e565b91505092959194509250565b60008060008060408587031215613139576131386129d3565b5b600085013567ffffffffffffffff811115613157576131566129d8565b5b61316387828801612c8d565b9450945050602085013567ffffffffffffffff811115613186576131856129d8565b5b61319287828801612c8d565b925092505092959194509250565b600080604083850312156131b7576131b66129d3565b5b60006131c585828601612c29565b92505060206131d685828601612c29565b9150509250929050565b7f4e487b7100000000000000000000000000000000000000000000000000000000600052602260045260246000fd5b6000600282049050600182168061322757607f821691505b6020821081141561323b5761323a6131e0565b5b50919050565b7f4552433732313a20617070726f76616c20746f2063757272656e74206f776e6560008201527f7200000000000000000000000000000000000000000000000000000000000000602082015250565b600061329d602183612aa3565b91506132a882613241565b604082019050919050565b600060208201905081810360008301526132cc81613290565b9050919050565b7f4552433732313a20617070726f76652063616c6c6572206973206e6f7420746f60008201527f6b656e206f776e6572206e6f7220617070726f76656420666f7220616c6c0000602082015250565b600061332f603e83612aa3565b915061333a826132d3565b604082019050919050565b6000602082019050818103600083015261335e81613322565b9050919050565b600081905092915050565b600061337c8385613365565b9350613389838584612e34565b82840190509392505050565b60006133a2828486613370565b91508190509392505050565b7f4552433732313a2063616c6c6572206973206e6f7420746f6b656e206f776e6560008201527f72206e6f7220617070726f766564000000000000000000000000000000000000602082015250565b600061340a602e83612aa3565b9150613415826133ae565b604082019050919050565b60006020820190508181036000830152613439816133fd565b9050919050565b600081905092915050565b50565b600061345b600083613440565b91506134668261344b565b600082019050919050565b600061347c8261344e565b9150819050919050565b7f4661696c656420746f207769746864726177204d617469630000000000000000600082015250565b60006134bc601883612aa3565b91506134c782613486565b602082019050919050565b600060208201905081810360008301526134eb816134af565b9050919050565b7f4552433732313a20696e76616c696420746f6b656e2049440000000000000000600082015250565b6000613528601883612aa3565b9150613533826134f2565b602082019050919050565b600060208201905081810360008301526135578161351b565b9050919050565b7f4552433732313a2061646472657373207a65726f206973206e6f74206120766160008201527f6c6964206f776e65720000000000000000000000000000000000000000000000602082015250565b60006135ba602983612aa3565b91506135c58261355e565b604082019050919050565b600060208201905081810360008301526135e9816135ad565b9050919050565b60006135fb82612a98565b6136058185613365565b9350613615818560208601612ab4565b80840191505092915050565b600061362d82856135f0565b915061363982846135f0565b91508190509392505050565b7f4e6f7420656e6f756768204d6174696320706169640000000000000000000000600082015250565b600061367b601583612aa3565b915061368682613645565b602082019050919050565b600060208201905081810360008301526136aa8161366e565b9050919050565b7f2e00000000000000000000000000000000000000000000000000000000000000600082015250565b60006136e7600183613365565b91506136f2826136b1565b600182019050919050565b60008190508160005260206000209050919050565b6000815461371f8161320f565b6137298186613365565b94506001821660008114613744576001811461375557613788565b60ff19831686528186019350613788565b61375e856136fd565b60005b8381101561378057815481890152600182019150602081019050613761565b838801955050505b50505092915050565b600061379e828587613370565b91506137a9826136da565b91506137b58284613712565b9150819050949350505050565b60006137ce8286613712565b91506137da82856135f0565b91506137e68284613712565b9150819050949350505050565b7f7b226e616d65223a202200000000000000000000000000000000000000000000600082015250565b6000613829600a83613365565b9150613834826137f3565b600a82019050919050565b7f222c20226465736372697074696f6e223a20224120646f6d61696e206f6e207460008201527f68652044636861696e206e616d652073657276696365222c2022696d6167652260208201527f3a2022646174613a696d6167652f7376672b786d6c3b6261736536342c000000604082015250565b60006138c1605d83613365565b91506138cc8261383f565b605d82019050919050565b7f222c226c656e677468223a220000000000000000000000000000000000000000600082015250565b600061390d600c83613365565b9150613918826138d7565b600c82019050919050565b7f227d000000000000000000000000000000000000000000000000000000000000600082015250565b6000613959600283613365565b915061396482613923565b600282019050919050565b600061397a8261381c565b915061398682866135f0565b9150613991826138b4565b915061399d82856135f0565b91506139a882613900565b91506139b482846135f0565b91506139bf8261394c565b9150819050949350505050565b7f646174613a6170706c69636174696f6e2f6a736f6e3b6261736536342c000000600082015250565b6000613a02601d83613365565b9150613a0d826139cc565b601d82019050919050565b6000613a23826139f5565b9150613a2f82846135f0565b915081905092915050565b60006040820190508181036000830152613a548185612af8565b90508181036020830152613a688184612af8565b90509392505050565b7f4552433732313a207472616e736665722066726f6d20696e636f72726563742060008201527f6f776e6572000000000000000000000000000000000000000000000000000000602082015250565b6000613acd602583612aa3565b9150613ad882613a71565b604082019050919050565b60006020820190508181036000830152613afc81613ac0565b9050919050565b7f4552433732313a207472616e7366657220746f20746865207a65726f2061646460008201527f7265737300000000000000000000000000000000000000000000000000000000602082015250565b6000613b5f602483612aa3565b9150613b6a82613b03565b604082019050919050565b60006020820190508181036000830152613b8e81613b52565b9050919050565b7f4e487b7100000000000000000000000000000000000000000000000000000000600052601160045260246000fd5b6000613bcf82612b53565b9150613bda83612b53565b925082821015613bed57613bec613b95565b5b828203905092915050565b6000613c0382612b53565b9150613c0e83612b53565b9250827fffffffffffffffffffffffffffffffffffffffffffffffffffffffffffffffff03821115613c4357613c42613b95565b5b828201905092915050565b7f4552433732313a20617070726f766520746f2063616c6c657200000000000000600082015250565b6000613c84601983612aa3565b9150613c8f82613c4e565b602082019050919050565b60006020820190508181036000830152613cb381613c77565b9050919050565b7f4552433732313a207472616e7366657220746f206e6f6e20455243373231526560008201527f63656976657220696d706c656d656e7465720000000000000000000000000000602082015250565b6000613d16603283612aa3565b9150613d2182613cba565b604082019050919050565b60006020820190508181036000830152613d4581613d09565b9050919050565b7f4e487b7100000000000000000000000000000000000000000000000000000000600052603260045260246000fd5b6000613d8682612b53565b91507fffffffffffffffffffffffffffffffffffffffffffffffffffffffffffffffff821415613db957613db8613b95565b5b600182019050919050565b7f4e487b7100000000000000000000000000000000000000000000000000000000600052601260045260246000fd5b6000613dfe82612b53565b9150613e0983612b53565b925082613e1957613e18613dc4565b5b828204905092915050565b6000613e2f82612b53565b9150613e3a83612b53565b925082613e4a57613e49613dc4565b5b828206905092915050565b60006080820190508181036000830152613e6f8187612af8565b90508181036020830152613e838186612af8565b90508181036040830152613e978185612af8565b9050613ea66060830184612f29565b95945050505050565b6000613eba82612b53565b9150613ec583612b53565b9250817fffffffffffffffffffffffffffffffffffffffffffffffffffffffffffffffff0483118215151615613efe57613efd613b95565b5b828202905092915050565b7f45524337323155524953746f726167653a2055524920736574206f66206e6f6e60008201527f6578697374656e7420746f6b656e000000000000000000000000000000000000602082015250565b6000613f65602e83612aa3565b9150613f7082613f09565b604082019050919050565b60006020820190508181036000830152613f9481613f58565b9050919050565b600081519050919050565b600082825260208201905092915050565b6000613fc282613f9b565b613fcc8185613fa6565b9350613fdc818560208601612ab4565b613fe581612ae7565b840191505092915050565b60006080820190506140056000830187612be8565b6140126020830186612be8565b61401f6040830185612f29565b81810360608301526140318184613fb7565b905095945050505050565b60008151905061404b81612a09565b92915050565b600060208284031215614067576140666129d3565b5b60006140758482850161403c565b91505092915050565b7f4552433732313a206d696e7420746f20746865207a65726f2061646472657373600082015250565b60006140b4602083612aa3565b91506140bf8261407e565b602082019050919050565b600060208201905081810360008301526140e3816140a7565b9050919050565b7f4552433732313a20746f6b656e20616c7265616479206d696e74656400000000600082015250565b6000614120601c83612aa3565b915061412b826140ea565b602082019050919050565b6000602082019050818103600083015261414f81614113565b905091905056fe0a2d2d2d2d2d2d2d2d2d2d2d2d2d2d2d2d2d2d2d2d2d2d2d2d2d2d2d2d2d2d2d2d2d2d2d2d2d2d2d2d2d2d2d2d2d2d2d2d2d2d2d2d2d2d2d2d5265676973746572696e672025732e2573206f6e2074686520636f6e7472616374207769746820746f6b656e49442025642d2d2d2d2d2d2d2d2d2d2d2d2d2d2d2d2d2d2d2d2d2d2d2d2d2d2d2d2d2d2d2d2d2d2d2d2d2d2d2d2d2d2d2d2d2d2d2d2d2d2d2d2d2d2d2d0a4142434445464748494a4b4c4d4e4f505152535455565758595a6162636465666768696a6b6c6d6e6f707172737475767778797a303132333435363738392b2fa2646970667358221220a7db083551519be6bb17d4d34ed1fadd9bd859c048c9df3a88ee9c31fb433a0464736f6c634300080a00333c73766720786d6c6e733d22687474703a2f2f7777772e77332e6f72672f323030302f737667222077696474683d2232373022206865696768743d22323730222066696c6c3d226e6f6e65223e3c706174682066696c6c3d2275726c282342292220643d224d302030683237307632373048307a222f3e3c646566733e3c66696c7465722069643d22412220636f6c6f722d696e746572706f6c6174696f6e2d66696c746572733d2273524742222066696c746572556e6974733d227573657253706163654f6e55736522206865696768743d22323730222077696474683d22323730223e3c666544726f70536861646f772064783d2230222064793d22312220737464446576696174696f6e3d22322220666c6f6f642d6f7061636974793d222e323235222077696474683d223230302522206865696768743d2232303025222f3e3c2f66696c7465723e3c2f646566733e3c7061746820643d224d37322e3836332034322e393439632d2e3636382d2e3338372d312e3432362d2e35392d322e3139372d2e3539732d312e3532392e3230342d322e3139372e35396c2d31302e30383120362e3033322d362e383520332e3933342d31302e30383120362e303332632d2e3636382e3338372d312e3432362e35392d322e3139372e3539732d312e3532392d2e3230342d322e3139372d2e35396c2d382e3031332d342e37323161342e353220342e35322030203020312d312e3538392d312e363136632d2e3338342d2e3636352d2e3539342d312e3431382d2e3630382d322e313837762d392e3331632d2e3031332d2e3737352e3138352d312e3533382e3537322d322e32303861342e323520342e323520302030203120312e3632352d312e3539356c372e3838342d342e3539632e3636382d2e33383720312e3432362d2e353920322e3139372d2e353973312e3532392e32303420322e3139372e35396c372e38383420342e353961342e353220342e353220302030203120312e35383920312e363136632e3338342e3636352e35393420312e3431382e36303820322e31383776362e3033326c362e38352d342e303635762d362e303332632e3031332d2e3737352d2e3138352d312e3533382d2e3537322d322e32303861342e323520342e32352030203020302d312e3632352d312e3539354c34312e3435362032342e3539632d2e3636382d2e3338372d312e3432362d2e35392d322e3139372d2e3539732d312e3532392e3230342d322e3139372e35396c2d31342e38363420382e36353561342e323520342e32352030203020302d312e36323520312e353935632d2e3338372e36372d2e35383520312e3433342d2e35373220322e3230387631372e343431632d2e3031332e3737352e31383520312e3533382e35373220322e32303861342e323520342e323520302030203020312e36323520312e3539356c31342e38363420382e363535632e3636382e33383720312e3432362e353920322e3139372e353973312e3532392d2e32303420322e3139372d2e35396c31302e3038312d352e39303120362e38352d342e3036352031302e3038312d352e393031632e3636382d2e33383720312e3432362d2e353920322e3139372d2e353973312e3532392e32303420322e3139372e35396c372e38383420342e353961342e353220342e353220302030203120312e35383920312e363136632e3338342e3636352e35393420312e3431382e36303820322e31383776392e333131632e3031332e3737352d2e31383520312e3533382d2e35373220322e32303861342e323520342e32352030203020312d312e36323520312e3539356c2d372e38383420342e373231632d2e3636382e3338372d312e3432362e35392d322e3139372e3539732d312e3532392d2e3230342d322e3139372d2e35396c2d372e3838342d342e353961342e353220342e35322030203020312d312e3538392d312e363136632d2e3338352d2e3636352d2e3539342d312e3431382d2e3630382d322e313837762d362e3033326c2d362e383520342e30363576362e303332632d2e3031332e3737352e31383520312e3533382e35373220322e32303861342e323520342e323520302030203020312e36323520312e3539356c31342e38363420382e363535632e3636382e33383720312e3432362e353920322e3139372e353973312e3532392d2e32303420322e3139372d2e35396c31342e3836342d382e363535632e3635372d2e33393420312e3230342d2e393520312e3538392d312e363136732e3539342d312e3431382e3630392d322e3138375635352e353338632e3031332d2e3737352d2e3138352d312e3533382d2e3537322d322e32303861342e323520342e32352030203020302d312e3632352d312e3539356c2d31342e3939332d382e3738367a222066696c6c3d2223666666222f3e3c646566733e3c6c696e6561724772616469656e742069643d2242222078313d2230222079313d2230222078323d22323730222079323d2232373022206772616469656e74556e6974733d227573657253706163654f6e557365223e3c73746f702073746f702d636f6c6f723d2223636235656565222f3e3c73746f70206f66667365743d2231222073746f702d636f6c6f723d2223306364376534222073746f702d6f7061636974793d222e3939222f3e3c2f6c696e6561724772616469656e743e3c2f646566733e3c7465787420783d2233322e352220793d223233312220666f6e742d73697a653d223237222066696c6c3d2223666666222066696c7465723d2275726c282341292220666f6e742d66616d696c793d22506c7573204a616b617274612053616e732c44656a6156752053616e732c4e6f746f20436f6c6f7220456d6f6a692c4170706c6520436f6c6f7220456d6f6a692c73616e732d73657269662220666f6e742d7765696768743d22626f6c64223e","opcodes":"PUSH1 0x80 PUSH1 0x40 MSTORE PUSH1 0x40 MLOAD DUP1 PUSH2 0x8A0 ADD PUSH1 0x40 MSTORE DUP1 PUSH2 0x86B DUP2 MSTORE PUSH1 0x20 ADD PUSH3 0x48E2 PUSH2 0x86B SWAP2 CODECOPY PUSH1 0x9 SWAP1 DUP1 MLOAD SWAP1 PUSH1 0x20 ADD SWAP1 PUSH3 0x38 SWAP3 SWAP2 SWAP1 PUSH3 0x2C8 JUMP JUMPDEST POP PUSH1 0x40 MLOAD DUP1 PUSH1 0x40 ADD PUSH1 0x40 MSTORE DUP1 PUSH1 0xD DUP2 MSTORE PUSH1 0x20 ADD PUSH32 0x3C2F746578743E3C2F7376673E00000000000000000000000000000000000000 DUP2 MSTORE POP PUSH1 0xA SWAP1 DUP1 MLOAD SWAP1 PUSH1 0x20 ADD SWAP1 PUSH3 0x86 SWAP3 SWAP2 SWAP1 PUSH3 0x2C8 JUMP JUMPDEST POP PUSH1 0x40 MLOAD PUSH3 0x514D CODESIZE SUB DUP1 PUSH3 0x514D DUP4 CODECOPY DUP2 DUP2 ADD PUSH1 0x40 MSTORE DUP2 ADD SWAP1 PUSH3 0xAC SWAP2 SWAP1 PUSH3 0x515 JUMP JUMPDEST PUSH1 0x40 MLOAD DUP1 PUSH1 0x40 ADD PUSH1 0x40 MSTORE DUP1 PUSH1 0x13 DUP2 MSTORE PUSH1 0x20 ADD PUSH32 0x44636861696E204E616D65205365727669636500000000000000000000000000 DUP2 MSTORE POP PUSH1 0x40 MLOAD DUP1 PUSH1 0x40 ADD PUSH1 0x40 MSTORE DUP1 PUSH1 0x3 DUP2 MSTORE PUSH1 0x20 ADD PUSH32 0x444E530000000000000000000000000000000000000000000000000000000000 DUP2 MSTORE POP DUP2 PUSH1 0x0 SWAP1 DUP1 MLOAD SWAP1 PUSH1 0x20 ADD SWAP1 PUSH3 0x130 SWAP3 SWAP2 SWAP1 PUSH3 0x2C8 JUMP JUMPDEST POP DUP1 PUSH1 0x1 SWAP1 DUP1 MLOAD SWAP1 PUSH1 0x20 ADD SWAP1 PUSH3 0x149 SWAP3 SWAP2 SWAP1 PUSH3 0x2C8 JUMP JUMPDEST POP POP POP CALLER PUSH1 0xD PUSH1 0x0 PUSH2 0x100 EXP DUP2 SLOAD DUP2 PUSH20 0xFFFFFFFFFFFFFFFFFFFFFFFFFFFFFFFFFFFFFFFF MUL NOT AND SWAP1 DUP4 PUSH20 0xFFFFFFFFFFFFFFFFFFFFFFFFFFFFFFFFFFFFFFFF AND MUL OR SWAP1 SSTORE POP DUP1 PUSH1 0x8 SWAP1 DUP1 MLOAD SWAP1 PUSH1 0x20 ADD SWAP1 PUSH3 0x1A5 SWAP3 SWAP2 SWAP1 PUSH3 0x2C8 JUMP JUMPDEST POP PUSH3 0x1F2 PUSH1 0x40 MLOAD DUP1 PUSH1 0x40 ADD PUSH1 0x40 MSTORE DUP1 PUSH1 0x18 DUP2 MSTORE PUSH1 0x20 ADD PUSH32 0x2573206E616D652073657276696365206465706C6F7965640000000000000000 DUP2 MSTORE POP DUP3 PUSH3 0x1F9 PUSH1 0x20 SHL PUSH3 0x1660 OR PUSH1 0x20 SHR JUMP JUMPDEST POP PUSH3 0x663 JUMP JUMPDEST PUSH3 0x29B DUP3 DUP3 PUSH1 0x40 MLOAD PUSH1 0x24 ADD PUSH3 0x212 SWAP3 SWAP2 SWAP1 PUSH3 0x5C3 JUMP JUMPDEST PUSH1 0x40 MLOAD PUSH1 0x20 DUP2 DUP4 SUB SUB DUP2 MSTORE SWAP1 PUSH1 0x40 MSTORE PUSH32 0x4B5C427700000000000000000000000000000000000000000000000000000000 PUSH28 0xFFFFFFFFFFFFFFFFFFFFFFFFFFFFFFFFFFFFFFFFFFFFFFFFFFFFFFFF NOT AND PUSH1 0x20 DUP3 ADD DUP1 MLOAD PUSH28 0xFFFFFFFFFFFFFFFFFFFFFFFFFFFFFFFFFFFFFFFFFFFFFFFFFFFFFFFF DUP4 DUP2 DUP4 AND OR DUP4 MSTORE POP POP POP POP PUSH3 0x29F PUSH1 0x20 SHL PUSH1 0x20 SHR JUMP JUMPDEST POP POP JUMP JUMPDEST PUSH1 0x0 DUP2 MLOAD SWAP1 POP PUSH1 0x0 PUSH11 0x636F6E736F6C652E6C6F67 SWAP1 POP PUSH1 0x20 DUP4 ADD PUSH1 0x0 DUP1 DUP5 DUP4 DUP6 GAS STATICCALL POP POP POP POP POP JUMP JUMPDEST DUP3 DUP1 SLOAD PUSH3 0x2D6 SWAP1 PUSH3 0x62D JUMP JUMPDEST SWAP1 PUSH1 0x0 MSTORE PUSH1 0x20 PUSH1 0x0 KECCAK256 SWAP1 PUSH1 0x1F ADD PUSH1 0x20 SWAP1 DIV DUP2 ADD SWAP3 DUP3 PUSH3 0x2FA JUMPI PUSH1 0x0 DUP6 SSTORE PUSH3 0x346 JUMP JUMPDEST DUP3 PUSH1 0x1F LT PUSH3 0x315 JUMPI DUP1 MLOAD PUSH1 0xFF NOT AND DUP4 DUP1 ADD OR DUP6 SSTORE PUSH3 0x346 JUMP JUMPDEST DUP3 DUP1 ADD PUSH1 0x1 ADD DUP6 SSTORE DUP3 ISZERO PUSH3 0x346 JUMPI SWAP2 DUP3 ADD JUMPDEST DUP3 DUP2 GT ISZERO PUSH3 0x345 JUMPI DUP3 MLOAD DUP3 SSTORE SWAP2 PUSH1 0x20 ADD SWAP2 SWAP1 PUSH1 0x1 ADD SWAP1 PUSH3 0x328 JUMP JUMPDEST JUMPDEST POP SWAP1 POP PUSH3 0x355 SWAP2 SWAP1 PUSH3 0x359 JUMP JUMPDEST POP SWAP1 JUMP JUMPDEST JUMPDEST DUP1 DUP3 GT ISZERO PUSH3 0x374 JUMPI PUSH1 0x0 DUP2 PUSH1 0x0 SWAP1 SSTORE POP PUSH1 0x1 ADD PUSH3 0x35A JUMP JUMPDEST POP SWAP1 JUMP JUMPDEST PUSH1 0x0 PUSH1 0x40 MLOAD SWAP1 POP SWAP1 JUMP JUMPDEST PUSH1 0x0 DUP1 REVERT JUMPDEST PUSH1 0x0 DUP1 REVERT JUMPDEST PUSH1 0x0 DUP1 REVERT JUMPDEST PUSH1 0x0 DUP1 REVERT JUMPDEST PUSH1 0x0 PUSH1 0x1F NOT PUSH1 0x1F DUP4 ADD AND SWAP1 POP SWAP2 SWAP1 POP JUMP JUMPDEST PUSH32 0x4E487B7100000000000000000000000000000000000000000000000000000000 PUSH1 0x0 MSTORE PUSH1 0x41 PUSH1 0x4 MSTORE PUSH1 0x24 PUSH1 0x0 REVERT JUMPDEST PUSH3 0x3E1 DUP3 PUSH3 0x396 JUMP JUMPDEST DUP2 ADD DUP2 DUP2 LT PUSH8 0xFFFFFFFFFFFFFFFF DUP3 GT OR ISZERO PUSH3 0x403 JUMPI PUSH3 0x402 PUSH3 0x3A7 JUMP JUMPDEST JUMPDEST DUP1 PUSH1 0x40 MSTORE POP POP POP JUMP JUMPDEST PUSH1 0x0 PUSH3 0x418 PUSH3 0x378 JUMP JUMPDEST SWAP1 POP PUSH3 0x426 DUP3 DUP3 PUSH3 0x3D6 JUMP JUMPDEST SWAP2 SWAP1 POP JUMP JUMPDEST PUSH1 0x0 PUSH8 0xFFFFFFFFFFFFFFFF DUP3 GT ISZERO PUSH3 0x449 JUMPI PUSH3 0x448 PUSH3 0x3A7 JUMP JUMPDEST JUMPDEST PUSH3 0x454 DUP3 PUSH3 0x396 JUMP JUMPDEST SWAP1 POP PUSH1 0x20 DUP2 ADD SWAP1 POP SWAP2 SWAP1 POP JUMP JUMPDEST PUSH1 0x0 JUMPDEST DUP4 DUP2 LT ISZERO PUSH3 0x481 JUMPI DUP1 DUP3 ADD MLOAD DUP2 DUP5 ADD MSTORE PUSH1 0x20 DUP2 ADD SWAP1 POP PUSH3 0x464 JUMP JUMPDEST DUP4 DUP2 GT ISZERO PUSH3 0x491 JUMPI PUSH1 0x0 DUP5 DUP5 ADD MSTORE JUMPDEST POP POP POP POP JUMP JUMPDEST PUSH1 0x0 PUSH3 0x4AE PUSH3 0x4A8 DUP5 PUSH3 0x42B JUMP JUMPDEST PUSH3 0x40C JUMP JUMPDEST SWAP1 POP DUP3 DUP2 MSTORE PUSH1 0x20 DUP2 ADD DUP5 DUP5 DUP5 ADD GT ISZERO PUSH3 0x4CD JUMPI PUSH3 0x4CC PUSH3 0x391 JUMP JUMPDEST JUMPDEST PUSH3 0x4DA DUP5 DUP3 DUP6 PUSH3 0x461 JUMP JUMPDEST POP SWAP4 SWAP3 POP POP POP JUMP JUMPDEST PUSH1 0x0 DUP3 PUSH1 0x1F DUP4 ADD SLT PUSH3 0x4FA JUMPI PUSH3 0x4F9 PUSH3 0x38C JUMP JUMPDEST JUMPDEST DUP2 MLOAD PUSH3 0x50C DUP5 DUP3 PUSH1 0x20 DUP7 ADD PUSH3 0x497 JUMP JUMPDEST SWAP2 POP POP SWAP3 SWAP2 POP POP JUMP JUMPDEST PUSH1 0x0 PUSH1 0x20 DUP3 DUP5 SUB SLT ISZERO PUSH3 0x52E JUMPI PUSH3 0x52D PUSH3 0x382 JUMP JUMPDEST JUMPDEST PUSH1 0x0 DUP3 ADD MLOAD PUSH8 0xFFFFFFFFFFFFFFFF DUP2 GT ISZERO PUSH3 0x54F JUMPI PUSH3 0x54E PUSH3 0x387 JUMP JUMPDEST JUMPDEST PUSH3 0x55D DUP5 DUP3 DUP6 ADD PUSH3 0x4E2 JUMP JUMPDEST SWAP2 POP POP SWAP3 SWAP2 POP POP JUMP JUMPDEST PUSH1 0x0 DUP2 MLOAD SWAP1 POP SWAP2 SWAP1 POP JUMP JUMPDEST PUSH1 0x0 DUP3 DUP3 MSTORE PUSH1 0x20 DUP3 ADD SWAP1 POP SWAP3 SWAP2 POP POP JUMP JUMPDEST PUSH1 0x0 PUSH3 0x58F DUP3 PUSH3 0x566 JUMP JUMPDEST PUSH3 0x59B DUP2 DUP6 PUSH3 0x571 JUMP JUMPDEST SWAP4 POP PUSH3 0x5AD DUP2 DUP6 PUSH1 0x20 DUP7 ADD PUSH3 0x461 JUMP JUMPDEST PUSH3 0x5B8 DUP2 PUSH3 0x396 JUMP JUMPDEST DUP5 ADD SWAP2 POP POP SWAP3 SWAP2 POP POP JUMP JUMPDEST PUSH1 0x0 PUSH1 0x40 DUP3 ADD SWAP1 POP DUP2 DUP2 SUB PUSH1 0x0 DUP4 ADD MSTORE PUSH3 0x5DF DUP2 DUP6 PUSH3 0x582 JUMP JUMPDEST SWAP1 POP DUP2 DUP2 SUB PUSH1 0x20 DUP4 ADD MSTORE PUSH3 0x5F5 DUP2 DUP5 PUSH3 0x582 JUMP JUMPDEST SWAP1 POP SWAP4 SWAP3 POP POP POP JUMP JUMPDEST PUSH32 0x4E487B7100000000000000000000000000000000000000000000000000000000 PUSH1 0x0 MSTORE PUSH1 0x22 PUSH1 0x4 MSTORE PUSH1 0x24 PUSH1 0x0 REVERT JUMPDEST PUSH1 0x0 PUSH1 0x2 DUP3 DIV SWAP1 POP PUSH1 0x1 DUP3 AND DUP1 PUSH3 0x646 JUMPI PUSH1 0x7F DUP3 AND SWAP2 POP JUMPDEST PUSH1 0x20 DUP3 LT DUP2 EQ ISZERO PUSH3 0x65D JUMPI PUSH3 0x65C PUSH3 0x5FE JUMP JUMPDEST JUMPDEST POP SWAP2 SWAP1 POP JUMP JUMPDEST PUSH2 0x426F DUP1 PUSH3 0x673 PUSH1 0x0 CODECOPY PUSH1 0x0 RETURN INVALID PUSH1 0x80 PUSH1 0x40 MSTORE PUSH1 0x4 CALLDATASIZE LT PUSH2 0x14B JUMPI PUSH1 0x0 CALLDATALOAD PUSH1 0xE0 SHR DUP1 PUSH4 0x70A08231 GT PUSH2 0xB6 JUMPI DUP1 PUSH4 0xBF40FAC1 GT PUSH2 0x6F JUMPI DUP1 PUSH4 0xBF40FAC1 EQ PUSH2 0x4B6 JUMPI DUP1 PUSH4 0xC1880A98 EQ PUSH2 0x4F3 JUMPI DUP1 PUSH4 0xC87B56DD EQ PUSH2 0x51C JUMPI DUP1 PUSH4 0xE985E9C5 EQ PUSH2 0x559 JUMPI DUP1 PUSH4 0xF2C298BE EQ PUSH2 0x596 JUMPI DUP1 PUSH4 0xFE2C6198 EQ PUSH2 0x5B2 JUMPI PUSH2 0x14B JUMP JUMPDEST DUP1 PUSH4 0x70A08231 EQ PUSH2 0x3A6 JUMPI DUP1 PUSH4 0x8DA5CB5B EQ PUSH2 0x3E3 JUMPI DUP1 PUSH4 0x8F32D59B EQ PUSH2 0x40E JUMPI DUP1 PUSH4 0x95D89B41 EQ PUSH2 0x439 JUMPI DUP1 PUSH4 0xA22CB465 EQ PUSH2 0x464 JUMPI DUP1 PUSH4 0xB88D4FDE EQ PUSH2 0x48D JUMPI PUSH2 0x14B JUMP JUMPDEST DUP1 PUSH4 0x26449235 GT PUSH2 0x108 JUMPI DUP1 PUSH4 0x26449235 EQ PUSH2 0x284 JUMPI DUP1 PUSH4 0x2D551432 EQ PUSH2 0x2C1 JUMPI DUP1 PUSH4 0x3CCFD60B EQ PUSH2 0x2EC JUMPI DUP1 PUSH4 0x42842E0E EQ PUSH2 0x303 JUMPI DUP1 PUSH4 0x541E771D EQ PUSH2 0x32C JUMPI DUP1 PUSH4 0x6352211E EQ PUSH2 0x369 JUMPI PUSH2 0x14B JUMP JUMPDEST DUP1 PUSH4 0x1FFC9A7 EQ PUSH2 0x150 JUMPI DUP1 PUSH4 0x6FDDE03 EQ PUSH2 0x18D JUMPI DUP1 PUSH4 0x81812FC EQ PUSH2 0x1B8 JUMPI DUP1 PUSH4 0x95EA7B3 EQ PUSH2 0x1F5 JUMPI DUP1 PUSH4 0x11DD8845 EQ PUSH2 0x21E JUMPI DUP1 PUSH4 0x23B872DD EQ PUSH2 0x25B JUMPI JUMPDEST PUSH1 0x0 DUP1 REVERT JUMPDEST CALLVALUE DUP1 ISZERO PUSH2 0x15C JUMPI PUSH1 0x0 DUP1 REVERT JUMPDEST POP PUSH2 0x177 PUSH1 0x4 DUP1 CALLDATASIZE SUB DUP2 ADD SWAP1 PUSH2 0x172 SWAP2 SWAP1 PUSH2 0x2A35 JUMP JUMPDEST PUSH2 0x5EF JUMP JUMPDEST PUSH1 0x40 MLOAD PUSH2 0x184 SWAP2 SWAP1 PUSH2 0x2A7D JUMP JUMPDEST PUSH1 0x40 MLOAD DUP1 SWAP2 SUB SWAP1 RETURN JUMPDEST CALLVALUE DUP1 ISZERO PUSH2 0x199 JUMPI PUSH1 0x0 DUP1 REVERT JUMPDEST POP PUSH2 0x1A2 PUSH2 0x6D1 JUMP JUMPDEST PUSH1 0x40 MLOAD PUSH2 0x1AF SWAP2 SWAP1 PUSH2 0x2B31 JUMP JUMPDEST PUSH1 0x40 MLOAD DUP1 SWAP2 SUB SWAP1 RETURN JUMPDEST CALLVALUE DUP1 ISZERO PUSH2 0x1C4 JUMPI PUSH1 0x0 DUP1 REVERT JUMPDEST POP PUSH2 0x1DF PUSH1 0x4 DUP1 CALLDATASIZE SUB DUP2 ADD SWAP1 PUSH2 0x1DA SWAP2 SWAP1 PUSH2 0x2B89 JUMP JUMPDEST PUSH2 0x763 JUMP JUMPDEST PUSH1 0x40 MLOAD PUSH2 0x1EC SWAP2 SWAP1 PUSH2 0x2BF7 JUMP JUMPDEST PUSH1 0x40 MLOAD DUP1 SWAP2 SUB SWAP1 RETURN JUMPDEST CALLVALUE DUP1 ISZERO PUSH2 0x201 JUMPI PUSH1 0x0 DUP1 REVERT JUMPDEST POP PUSH2 0x21C PUSH1 0x4 DUP1 CALLDATASIZE SUB DUP2 ADD SWAP1 PUSH2 0x217 SWAP2 SWAP1 PUSH2 0x2C3E JUMP JUMPDEST PUSH2 0x7A9 JUMP JUMPDEST STOP JUMPDEST CALLVALUE DUP1 ISZERO PUSH2 0x22A JUMPI PUSH1 0x0 DUP1 REVERT JUMPDEST POP PUSH2 0x245 PUSH1 0x4 DUP1 CALLDATASIZE SUB DUP2 ADD SWAP1 PUSH2 0x240 SWAP2 SWAP1 PUSH2 0x2CE3 JUMP JUMPDEST PUSH2 0x8C1 JUMP JUMPDEST PUSH1 0x40 MLOAD PUSH2 0x252 SWAP2 SWAP1 PUSH2 0x2B31 JUMP JUMPDEST PUSH1 0x40 MLOAD DUP1 SWAP2 SUB SWAP1 RETURN JUMPDEST CALLVALUE DUP1 ISZERO PUSH2 0x267 JUMPI PUSH1 0x0 DUP1 REVERT JUMPDEST POP PUSH2 0x282 PUSH1 0x4 DUP1 CALLDATASIZE SUB DUP2 ADD SWAP1 PUSH2 0x27D SWAP2 SWAP1 PUSH2 0x2D30 JUMP JUMPDEST PUSH2 0x974 JUMP JUMPDEST STOP JUMPDEST CALLVALUE DUP1 ISZERO PUSH2 0x290 JUMPI PUSH1 0x0 DUP1 REVERT JUMPDEST POP PUSH2 0x2AB PUSH1 0x4 DUP1 CALLDATASIZE SUB DUP2 ADD SWAP1 PUSH2 0x2A6 SWAP2 SWAP1 PUSH2 0x2EB3 JUMP JUMPDEST PUSH2 0x9D4 JUMP JUMPDEST PUSH1 0x40 MLOAD PUSH2 0x2B8 SWAP2 SWAP1 PUSH2 0x2BF7 JUMP JUMPDEST PUSH1 0x40 MLOAD DUP1 SWAP2 SUB SWAP1 RETURN JUMPDEST CALLVALUE DUP1 ISZERO PUSH2 0x2CD JUMPI PUSH1 0x0 DUP1 REVERT JUMPDEST POP PUSH2 0x2D6 PUSH2 0xA1D JUMP JUMPDEST PUSH1 0x40 MLOAD PUSH2 0x2E3 SWAP2 SWAP1 PUSH2 0x2B31 JUMP JUMPDEST PUSH1 0x40 MLOAD DUP1 SWAP2 SUB SWAP1 RETURN JUMPDEST CALLVALUE DUP1 ISZERO PUSH2 0x2F8 JUMPI PUSH1 0x0 DUP1 REVERT JUMPDEST POP PUSH2 0x301 PUSH2 0xAAB JUMP JUMPDEST STOP JUMPDEST CALLVALUE DUP1 ISZERO PUSH2 0x30F JUMPI PUSH1 0x0 DUP1 REVERT JUMPDEST POP PUSH2 0x32A PUSH1 0x4 DUP1 CALLDATASIZE SUB DUP2 ADD SWAP1 PUSH2 0x325 SWAP2 SWAP1 PUSH2 0x2D30 JUMP JUMPDEST PUSH2 0xB71 JUMP JUMPDEST STOP JUMPDEST CALLVALUE DUP1 ISZERO PUSH2 0x338 JUMPI PUSH1 0x0 DUP1 REVERT JUMPDEST POP PUSH2 0x353 PUSH1 0x4 DUP1 CALLDATASIZE SUB DUP2 ADD SWAP1 PUSH2 0x34E SWAP2 SWAP1 PUSH2 0x2EB3 JUMP JUMPDEST PUSH2 0xB91 JUMP JUMPDEST PUSH1 0x40 MLOAD PUSH2 0x360 SWAP2 SWAP1 PUSH2 0x2B31 JUMP JUMPDEST PUSH1 0x40 MLOAD DUP1 SWAP2 SUB SWAP1 RETURN JUMPDEST CALLVALUE DUP1 ISZERO PUSH2 0x375 JUMPI PUSH1 0x0 DUP1 REVERT JUMPDEST POP PUSH2 0x390 PUSH1 0x4 DUP1 CALLDATASIZE SUB DUP2 ADD SWAP1 PUSH2 0x38B SWAP2 SWAP1 PUSH2 0x2B89 JUMP JUMPDEST PUSH2 0xC47 JUMP JUMPDEST PUSH1 0x40 MLOAD PUSH2 0x39D SWAP2 SWAP1 PUSH2 0x2BF7 JUMP JUMPDEST PUSH1 0x40 MLOAD DUP1 SWAP2 SUB SWAP1 RETURN JUMPDEST CALLVALUE DUP1 ISZERO PUSH2 0x3B2 JUMPI PUSH1 0x0 DUP1 REVERT JUMPDEST POP PUSH2 0x3CD PUSH1 0x4 DUP1 CALLDATASIZE SUB DUP2 ADD SWAP1 PUSH2 0x3C8 SWAP2 SWAP1 PUSH2 0x2EFC JUMP JUMPDEST PUSH2 0xCF9 JUMP JUMPDEST PUSH1 0x40 MLOAD PUSH2 0x3DA SWAP2 SWAP1 PUSH2 0x2F38 JUMP JUMPDEST PUSH1 0x40 MLOAD DUP1 SWAP2 SUB SWAP1 RETURN JUMPDEST CALLVALUE DUP1 ISZERO PUSH2 0x3EF JUMPI PUSH1 0x0 DUP1 REVERT JUMPDEST POP PUSH2 0x3F8 PUSH2 0xDB1 JUMP JUMPDEST PUSH1 0x40 MLOAD PUSH2 0x405 SWAP2 SWAP1 PUSH2 0x2F74 JUMP JUMPDEST PUSH1 0x40 MLOAD DUP1 SWAP2 SUB SWAP1 RETURN JUMPDEST CALLVALUE DUP1 ISZERO PUSH2 0x41A JUMPI PUSH1 0x0 DUP1 REVERT JUMPDEST POP PUSH2 0x423 PUSH2 0xDD7 JUMP JUMPDEST PUSH1 0x40 MLOAD PUSH2 0x430 SWAP2 SWAP1 PUSH2 0x2A7D JUMP JUMPDEST PUSH1 0x40 MLOAD DUP1 SWAP2 SUB SWAP1 RETURN JUMPDEST CALLVALUE DUP1 ISZERO PUSH2 0x445 JUMPI PUSH1 0x0 DUP1 REVERT JUMPDEST POP PUSH2 0x44E PUSH2 0xE2F JUMP JUMPDEST PUSH1 0x40 MLOAD PUSH2 0x45B SWAP2 SWAP1 PUSH2 0x2B31 JUMP JUMPDEST PUSH1 0x40 MLOAD DUP1 SWAP2 SUB SWAP1 RETURN JUMPDEST CALLVALUE DUP1 ISZERO PUSH2 0x470 JUMPI PUSH1 0x0 DUP1 REVERT JUMPDEST POP PUSH2 0x48B PUSH1 0x4 DUP1 CALLDATASIZE SUB DUP2 ADD SWAP1 PUSH2 0x486 SWAP2 SWAP1 PUSH2 0x2FBB JUMP JUMPDEST PUSH2 0xEC1 JUMP JUMPDEST STOP JUMPDEST CALLVALUE DUP1 ISZERO PUSH2 0x499 JUMPI PUSH1 0x0 DUP1 REVERT JUMPDEST POP PUSH2 0x4B4 PUSH1 0x4 DUP1 CALLDATASIZE SUB DUP2 ADD SWAP1 PUSH2 0x4AF SWAP2 SWAP1 PUSH2 0x309C JUMP JUMPDEST PUSH2 0xED7 JUMP JUMPDEST STOP JUMPDEST CALLVALUE DUP1 ISZERO PUSH2 0x4C2 JUMPI PUSH1 0x0 DUP1 REVERT JUMPDEST POP PUSH2 0x4DD PUSH1 0x4 DUP1 CALLDATASIZE SUB DUP2 ADD SWAP1 PUSH2 0x4D8 SWAP2 SWAP1 PUSH2 0x2CE3 JUMP JUMPDEST PUSH2 0xF39 JUMP JUMPDEST PUSH1 0x40 MLOAD PUSH2 0x4EA SWAP2 SWAP1 PUSH2 0x2BF7 JUMP JUMPDEST PUSH1 0x40 MLOAD DUP1 SWAP2 SUB SWAP1 RETURN JUMPDEST CALLVALUE DUP1 ISZERO PUSH2 0x4FF JUMPI PUSH1 0x0 DUP1 REVERT JUMPDEST POP PUSH2 0x51A PUSH1 0x4 DUP1 CALLDATASIZE SUB DUP2 ADD SWAP1 PUSH2 0x515 SWAP2 SWAP1 PUSH2 0x311F JUMP JUMPDEST PUSH2 0xF84 JUMP JUMPDEST STOP JUMPDEST CALLVALUE DUP1 ISZERO PUSH2 0x528 JUMPI PUSH1 0x0 DUP1 REVERT JUMPDEST POP PUSH2 0x543 PUSH1 0x4 DUP1 CALLDATASIZE SUB DUP2 ADD SWAP1 PUSH2 0x53E SWAP2 SWAP1 PUSH2 0x2B89 JUMP JUMPDEST PUSH2 0x1032 JUMP JUMPDEST PUSH1 0x40 MLOAD PUSH2 0x550 SWAP2 SWAP1 PUSH2 0x2B31 JUMP JUMPDEST PUSH1 0x40 MLOAD DUP1 SWAP2 SUB SWAP1 RETURN JUMPDEST CALLVALUE DUP1 ISZERO PUSH2 0x565 JUMPI PUSH1 0x0 DUP1 REVERT JUMPDEST POP PUSH2 0x580 PUSH1 0x4 DUP1 CALLDATASIZE SUB DUP2 ADD SWAP1 PUSH2 0x57B SWAP2 SWAP1 PUSH2 0x31A0 JUMP JUMPDEST PUSH2 0x1145 JUMP JUMPDEST PUSH1 0x40 MLOAD PUSH2 0x58D SWAP2 SWAP1 PUSH2 0x2A7D JUMP JUMPDEST PUSH1 0x40 MLOAD DUP1 SWAP2 SUB SWAP1 RETURN JUMPDEST PUSH2 0x5B0 PUSH1 0x4 DUP1 CALLDATASIZE SUB DUP2 ADD SWAP1 PUSH2 0x5AB SWAP2 SWAP1 PUSH2 0x2CE3 JUMP JUMPDEST PUSH2 0x11D9 JUMP JUMPDEST STOP JUMPDEST CALLVALUE DUP1 ISZERO PUSH2 0x5BE JUMPI PUSH1 0x0 DUP1 REVERT JUMPDEST POP PUSH2 0x5D9 PUSH1 0x4 DUP1 CALLDATASIZE SUB DUP2 ADD SWAP1 PUSH2 0x5D4 SWAP2 SWAP1 PUSH2 0x2CE3 JUMP JUMPDEST PUSH2 0x15BA JUMP JUMPDEST PUSH1 0x40 MLOAD PUSH2 0x5E6 SWAP2 SWAP1 PUSH2 0x2F38 JUMP JUMPDEST PUSH1 0x40 MLOAD DUP1 SWAP2 SUB SWAP1 RETURN JUMPDEST PUSH1 0x0 PUSH32 0x80AC58CD00000000000000000000000000000000000000000000000000000000 PUSH28 0xFFFFFFFFFFFFFFFFFFFFFFFFFFFFFFFFFFFFFFFFFFFFFFFFFFFFFFFF NOT AND DUP3 PUSH28 0xFFFFFFFFFFFFFFFFFFFFFFFFFFFFFFFFFFFFFFFFFFFFFFFFFFFFFFFF NOT AND EQ DUP1 PUSH2 0x6BA JUMPI POP PUSH32 0x5B5E139F00000000000000000000000000000000000000000000000000000000 PUSH28 0xFFFFFFFFFFFFFFFFFFFFFFFFFFFFFFFFFFFFFFFFFFFFFFFFFFFFFFFF NOT AND DUP3 PUSH28 0xFFFFFFFFFFFFFFFFFFFFFFFFFFFFFFFFFFFFFFFFFFFFFFFFFFFFFFFF NOT AND EQ JUMPDEST DUP1 PUSH2 0x6CA JUMPI POP PUSH2 0x6C9 DUP3 PUSH2 0x16FC JUMP JUMPDEST JUMPDEST SWAP1 POP SWAP2 SWAP1 POP JUMP JUMPDEST PUSH1 0x60 PUSH1 0x0 DUP1 SLOAD PUSH2 0x6E0 SWAP1 PUSH2 0x320F JUMP JUMPDEST DUP1 PUSH1 0x1F ADD PUSH1 0x20 DUP1 SWAP2 DIV MUL PUSH1 0x20 ADD PUSH1 0x40 MLOAD SWAP1 DUP2 ADD PUSH1 0x40 MSTORE DUP1 SWAP3 SWAP2 SWAP1 DUP2 DUP2 MSTORE PUSH1 0x20 ADD DUP3 DUP1 SLOAD PUSH2 0x70C SWAP1 PUSH2 0x320F JUMP JUMPDEST DUP1 ISZERO PUSH2 0x759 JUMPI DUP1 PUSH1 0x1F LT PUSH2 0x72E JUMPI PUSH2 0x100 DUP1 DUP4 SLOAD DIV MUL DUP4 MSTORE SWAP2 PUSH1 0x20 ADD SWAP2 PUSH2 0x759 JUMP JUMPDEST DUP3 ADD SWAP2 SWAP1 PUSH1 0x0 MSTORE PUSH1 0x20 PUSH1 0x0 KECCAK256 SWAP1 JUMPDEST DUP2 SLOAD DUP2 MSTORE SWAP1 PUSH1 0x1 ADD SWAP1 PUSH1 0x20 ADD DUP1 DUP4 GT PUSH2 0x73C JUMPI DUP3 SWAP1 SUB PUSH1 0x1F AND DUP3 ADD SWAP2 JUMPDEST POP POP POP POP POP SWAP1 POP SWAP1 JUMP JUMPDEST PUSH1 0x0 PUSH2 0x76E DUP3 PUSH2 0x1766 JUMP JUMPDEST PUSH1 0x4 PUSH1 0x0 DUP4 DUP2 MSTORE PUSH1 0x20 ADD SWAP1 DUP2 MSTORE PUSH1 0x20 ADD PUSH1 0x0 KECCAK256 PUSH1 0x0 SWAP1 SLOAD SWAP1 PUSH2 0x100 EXP SWAP1 DIV PUSH20 0xFFFFFFFFFFFFFFFFFFFFFFFFFFFFFFFFFFFFFFFF AND SWAP1 POP SWAP2 SWAP1 POP JUMP JUMPDEST PUSH1 0x0 PUSH2 0x7B4 DUP3 PUSH2 0xC47 JUMP JUMPDEST SWAP1 POP DUP1 PUSH20 0xFFFFFFFFFFFFFFFFFFFFFFFFFFFFFFFFFFFFFFFF AND DUP4 PUSH20 0xFFFFFFFFFFFFFFFFFFFFFFFFFFFFFFFFFFFFFFFF AND EQ ISZERO PUSH2 0x825 JUMPI PUSH1 0x40 MLOAD PUSH32 0x8C379A000000000000000000000000000000000000000000000000000000000 DUP2 MSTORE PUSH1 0x4 ADD PUSH2 0x81C SWAP1 PUSH2 0x32B3 JUMP JUMPDEST PUSH1 0x40 MLOAD DUP1 SWAP2 SUB SWAP1 REVERT JUMPDEST DUP1 PUSH20 0xFFFFFFFFFFFFFFFFFFFFFFFFFFFFFFFFFFFFFFFF AND PUSH2 0x844 PUSH2 0x17B1 JUMP JUMPDEST PUSH20 0xFFFFFFFFFFFFFFFFFFFFFFFFFFFFFFFFFFFFFFFF AND EQ DUP1 PUSH2 0x873 JUMPI POP PUSH2 0x872 DUP2 PUSH2 0x86D PUSH2 0x17B1 JUMP JUMPDEST PUSH2 0x1145 JUMP JUMPDEST JUMPDEST PUSH2 0x8B2 JUMPI PUSH1 0x40 MLOAD PUSH32 0x8C379A000000000000000000000000000000000000000000000000000000000 DUP2 MSTORE PUSH1 0x4 ADD PUSH2 0x8A9 SWAP1 PUSH2 0x3345 JUMP JUMPDEST PUSH1 0x40 MLOAD DUP1 SWAP2 SUB SWAP1 REVERT JUMPDEST PUSH2 0x8BC DUP4 DUP4 PUSH2 0x17B9 JUMP JUMPDEST POP POP POP JUMP JUMPDEST PUSH1 0x60 PUSH1 0xC DUP4 DUP4 PUSH1 0x40 MLOAD PUSH2 0x8D5 SWAP3 SWAP2 SWAP1 PUSH2 0x3395 JUMP JUMPDEST SWAP1 DUP2 MSTORE PUSH1 0x20 ADD PUSH1 0x40 MLOAD DUP1 SWAP2 SUB SWAP1 KECCAK256 DUP1 SLOAD PUSH2 0x8EE SWAP1 PUSH2 0x320F JUMP JUMPDEST DUP1 PUSH1 0x1F ADD PUSH1 0x20 DUP1 SWAP2 DIV MUL PUSH1 0x20 ADD PUSH1 0x40 MLOAD SWAP1 DUP2 ADD PUSH1 0x40 MSTORE DUP1 SWAP3 SWAP2 SWAP1 DUP2 DUP2 MSTORE PUSH1 0x20 ADD DUP3 DUP1 SLOAD PUSH2 0x91A SWAP1 PUSH2 0x320F JUMP JUMPDEST DUP1 ISZERO PUSH2 0x967 JUMPI DUP1 PUSH1 0x1F LT PUSH2 0x93C JUMPI PUSH2 0x100 DUP1 DUP4 SLOAD DIV MUL DUP4 MSTORE SWAP2 PUSH1 0x20 ADD SWAP2 PUSH2 0x967 JUMP JUMPDEST DUP3 ADD SWAP2 SWAP1 PUSH1 0x0 MSTORE PUSH1 0x20 PUSH1 0x0 KECCAK256 SWAP1 JUMPDEST DUP2 SLOAD DUP2 MSTORE SWAP1 PUSH1 0x1 ADD SWAP1 PUSH1 0x20 ADD DUP1 DUP4 GT PUSH2 0x94A JUMPI DUP3 SWAP1 SUB PUSH1 0x1F AND DUP3 ADD SWAP2 JUMPDEST POP POP POP POP POP SWAP1 POP SWAP3 SWAP2 POP POP JUMP JUMPDEST PUSH2 0x985 PUSH2 0x97F PUSH2 0x17B1 JUMP JUMPDEST DUP3 PUSH2 0x1872 JUMP JUMPDEST PUSH2 0x9C4 JUMPI PUSH1 0x40 MLOAD PUSH32 0x8C379A000000000000000000000000000000000000000000000000000000000 DUP2 MSTORE PUSH1 0x4 ADD PUSH2 0x9BB SWAP1 PUSH2 0x3420 JUMP JUMPDEST PUSH1 0x40 MLOAD DUP1 SWAP2 SUB SWAP1 REVERT JUMPDEST PUSH2 0x9CF DUP4 DUP4 DUP4 PUSH2 0x1907 JUMP JUMPDEST POP POP POP JUMP JUMPDEST PUSH1 0xB DUP2 DUP1 MLOAD PUSH1 0x20 DUP2 ADD DUP3 ADD DUP1 MLOAD DUP5 DUP3 MSTORE PUSH1 0x20 DUP4 ADD PUSH1 0x20 DUP6 ADD KECCAK256 DUP2 DUP4 MSTORE DUP1 SWAP6 POP POP POP POP POP POP PUSH1 0x0 SWAP2 POP SLOAD SWAP1 PUSH2 0x100 EXP SWAP1 DIV PUSH20 0xFFFFFFFFFFFFFFFFFFFFFFFFFFFFFFFFFFFFFFFF AND DUP2 JUMP JUMPDEST PUSH1 0x8 DUP1 SLOAD PUSH2 0xA2A SWAP1 PUSH2 0x320F JUMP JUMPDEST DUP1 PUSH1 0x1F ADD PUSH1 0x20 DUP1 SWAP2 DIV MUL PUSH1 0x20 ADD PUSH1 0x40 MLOAD SWAP1 DUP2 ADD PUSH1 0x40 MSTORE DUP1 SWAP3 SWAP2 SWAP1 DUP2 DUP2 MSTORE PUSH1 0x20 ADD DUP3 DUP1 SLOAD PUSH2 0xA56 SWAP1 PUSH2 0x320F JUMP JUMPDEST DUP1 ISZERO PUSH2 0xAA3 JUMPI DUP1 PUSH1 0x1F LT PUSH2 0xA78 JUMPI PUSH2 0x100 DUP1 DUP4 SLOAD DIV MUL DUP4 MSTORE SWAP2 PUSH1 0x20 ADD SWAP2 PUSH2 0xAA3 JUMP JUMPDEST DUP3 ADD SWAP2 SWAP1 PUSH1 0x0 MSTORE PUSH1 0x20 PUSH1 0x0 KECCAK256 SWAP1 JUMPDEST DUP2 SLOAD DUP2 MSTORE SWAP1 PUSH1 0x1 ADD SWAP1 PUSH1 0x20 ADD DUP1 DUP4 GT PUSH2 0xA86 JUMPI DUP3 SWAP1 SUB PUSH1 0x1F AND DUP3 ADD SWAP2 JUMPDEST POP POP POP POP POP DUP2 JUMP JUMPDEST PUSH2 0xAB3 PUSH2 0xDD7 JUMP JUMPDEST PUSH2 0xABC JUMPI PUSH1 0x0 DUP1 REVERT JUMPDEST PUSH1 0x0 SELFBALANCE SWAP1 POP PUSH1 0x0 CALLER PUSH20 0xFFFFFFFFFFFFFFFFFFFFFFFFFFFFFFFFFFFFFFFF AND DUP3 PUSH1 0x40 MLOAD PUSH2 0xAE7 SWAP1 PUSH2 0x3471 JUMP JUMPDEST PUSH1 0x0 PUSH1 0x40 MLOAD DUP1 DUP4 SUB DUP2 DUP6 DUP8 GAS CALL SWAP3 POP POP POP RETURNDATASIZE DUP1 PUSH1 0x0 DUP2 EQ PUSH2 0xB24 JUMPI PUSH1 0x40 MLOAD SWAP2 POP PUSH1 0x1F NOT PUSH1 0x3F RETURNDATASIZE ADD AND DUP3 ADD PUSH1 0x40 MSTORE RETURNDATASIZE DUP3 MSTORE RETURNDATASIZE PUSH1 0x0 PUSH1 0x20 DUP5 ADD RETURNDATACOPY PUSH2 0xB29 JUMP JUMPDEST PUSH1 0x60 SWAP2 POP JUMPDEST POP POP SWAP1 POP DUP1 PUSH2 0xB6D JUMPI PUSH1 0x40 MLOAD PUSH32 0x8C379A000000000000000000000000000000000000000000000000000000000 DUP2 MSTORE PUSH1 0x4 ADD PUSH2 0xB64 SWAP1 PUSH2 0x34D2 JUMP JUMPDEST PUSH1 0x40 MLOAD DUP1 SWAP2 SUB SWAP1 REVERT JUMPDEST POP POP JUMP JUMPDEST PUSH2 0xB8C DUP4 DUP4 DUP4 PUSH1 0x40 MLOAD DUP1 PUSH1 0x20 ADD PUSH1 0x40 MSTORE DUP1 PUSH1 0x0 DUP2 MSTORE POP PUSH2 0xED7 JUMP JUMPDEST POP POP POP JUMP JUMPDEST PUSH1 0xC DUP2 DUP1 MLOAD PUSH1 0x20 DUP2 ADD DUP3 ADD DUP1 MLOAD DUP5 DUP3 MSTORE PUSH1 0x20 DUP4 ADD PUSH1 0x20 DUP6 ADD KECCAK256 DUP2 DUP4 MSTORE DUP1 SWAP6 POP POP POP POP POP POP PUSH1 0x0 SWAP2 POP SWAP1 POP DUP1 SLOAD PUSH2 0xBC6 SWAP1 PUSH2 0x320F JUMP JUMPDEST DUP1 PUSH1 0x1F ADD PUSH1 0x20 DUP1 SWAP2 DIV MUL PUSH1 0x20 ADD PUSH1 0x40 MLOAD SWAP1 DUP2 ADD PUSH1 0x40 MSTORE DUP1 SWAP3 SWAP2 SWAP1 DUP2 DUP2 MSTORE PUSH1 0x20 ADD DUP3 DUP1 SLOAD PUSH2 0xBF2 SWAP1 PUSH2 0x320F JUMP JUMPDEST DUP1 ISZERO PUSH2 0xC3F JUMPI DUP1 PUSH1 0x1F LT PUSH2 0xC14 JUMPI PUSH2 0x100 DUP1 DUP4 SLOAD DIV MUL DUP4 MSTORE SWAP2 PUSH1 0x20 ADD SWAP2 PUSH2 0xC3F JUMP JUMPDEST DUP3 ADD SWAP2 SWAP1 PUSH1 0x0 MSTORE PUSH1 0x20 PUSH1 0x0 KECCAK256 SWAP1 JUMPDEST DUP2 SLOAD DUP2 MSTORE SWAP1 PUSH1 0x1 ADD SWAP1 PUSH1 0x20 ADD DUP1 DUP4 GT PUSH2 0xC22 JUMPI DUP3 SWAP1 SUB PUSH1 0x1F AND DUP3 ADD SWAP2 JUMPDEST POP POP POP POP POP DUP2 JUMP JUMPDEST PUSH1 0x0 DUP1 PUSH1 0x2 PUSH1 0x0 DUP5 DUP2 MSTORE PUSH1 0x20 ADD SWAP1 DUP2 MSTORE PUSH1 0x20 ADD PUSH1 0x0 KECCAK256 PUSH1 0x0 SWAP1 SLOAD SWAP1 PUSH2 0x100 EXP SWAP1 DIV PUSH20 0xFFFFFFFFFFFFFFFFFFFFFFFFFFFFFFFFFFFFFFFF AND SWAP1 POP PUSH1 0x0 PUSH20 0xFFFFFFFFFFFFFFFFFFFFFFFFFFFFFFFFFFFFFFFF AND DUP2 PUSH20 0xFFFFFFFFFFFFFFFFFFFFFFFFFFFFFFFFFFFFFFFF AND EQ ISZERO PUSH2 0xCF0 JUMPI PUSH1 0x40 MLOAD PUSH32 0x8C379A000000000000000000000000000000000000000000000000000000000 DUP2 MSTORE PUSH1 0x4 ADD PUSH2 0xCE7 SWAP1 PUSH2 0x353E JUMP JUMPDEST PUSH1 0x40 MLOAD DUP1 SWAP2 SUB SWAP1 REVERT JUMPDEST DUP1 SWAP2 POP POP SWAP2 SWAP1 POP JUMP JUMPDEST PUSH1 0x0 DUP1 PUSH20 0xFFFFFFFFFFFFFFFFFFFFFFFFFFFFFFFFFFFFFFFF AND DUP3 PUSH20 0xFFFFFFFFFFFFFFFFFFFFFFFFFFFFFFFFFFFFFFFF AND EQ ISZERO PUSH2 0xD6A JUMPI PUSH1 0x40 MLOAD PUSH32 0x8C379A000000000000000000000000000000000000000000000000000000000 DUP2 MSTORE PUSH1 0x4 ADD PUSH2 0xD61 SWAP1 PUSH2 0x35D0 JUMP JUMPDEST PUSH1 0x40 MLOAD DUP1 SWAP2 SUB SWAP1 REVERT JUMPDEST PUSH1 0x3 PUSH1 0x0 DUP4 PUSH20 0xFFFFFFFFFFFFFFFFFFFFFFFFFFFFFFFFFFFFFFFF AND PUSH20 0xFFFFFFFFFFFFFFFFFFFFFFFFFFFFFFFFFFFFFFFF AND DUP2 MSTORE PUSH1 0x20 ADD SWAP1 DUP2 MSTORE PUSH1 0x20 ADD PUSH1 0x0 KECCAK256 SLOAD SWAP1 POP SWAP2 SWAP1 POP JUMP JUMPDEST PUSH1 0xD PUSH1 0x0 SWAP1 SLOAD SWAP1 PUSH2 0x100 EXP SWAP1 DIV PUSH20 0xFFFFFFFFFFFFFFFFFFFFFFFFFFFFFFFFFFFFFFFF AND DUP2 JUMP JUMPDEST PUSH1 0x0 PUSH1 0xD PUSH1 0x0 SWAP1 SLOAD SWAP1 PUSH2 0x100 EXP SWAP1 DIV PUSH20 0xFFFFFFFFFFFFFFFFFFFFFFFFFFFFFFFFFFFFFFFF AND PUSH20 0xFFFFFFFFFFFFFFFFFFFFFFFFFFFFFFFFFFFFFFFF AND CALLER PUSH20 0xFFFFFFFFFFFFFFFFFFFFFFFFFFFFFFFFFFFFFFFF AND EQ SWAP1 POP SWAP1 JUMP JUMPDEST PUSH1 0x60 PUSH1 0x1 DUP1 SLOAD PUSH2 0xE3E SWAP1 PUSH2 0x320F JUMP JUMPDEST DUP1 PUSH1 0x1F ADD PUSH1 0x20 DUP1 SWAP2 DIV MUL PUSH1 0x20 ADD PUSH1 0x40 MLOAD SWAP1 DUP2 ADD PUSH1 0x40 MSTORE DUP1 SWAP3 SWAP2 SWAP1 DUP2 DUP2 MSTORE PUSH1 0x20 ADD DUP3 DUP1 SLOAD PUSH2 0xE6A SWAP1 PUSH2 0x320F JUMP JUMPDEST DUP1 ISZERO PUSH2 0xEB7 JUMPI DUP1 PUSH1 0x1F LT PUSH2 0xE8C JUMPI PUSH2 0x100 DUP1 DUP4 SLOAD DIV MUL DUP4 MSTORE SWAP2 PUSH1 0x20 ADD SWAP2 PUSH2 0xEB7 JUMP JUMPDEST DUP3 ADD SWAP2 SWAP1 PUSH1 0x0 MSTORE PUSH1 0x20 PUSH1 0x0 KECCAK256 SWAP1 JUMPDEST DUP2 SLOAD DUP2 MSTORE SWAP1 PUSH1 0x1 ADD SWAP1 PUSH1 0x20 ADD DUP1 DUP4 GT PUSH2 0xE9A JUMPI DUP3 SWAP1 SUB PUSH1 0x1F AND DUP3 ADD SWAP2 JUMPDEST POP POP POP POP POP SWAP1 POP SWAP1 JUMP JUMPDEST PUSH2 0xED3 PUSH2 0xECC PUSH2 0x17B1 JUMP JUMPDEST DUP4 DUP4 PUSH2 0x1B6E JUMP JUMPDEST POP POP JUMP JUMPDEST PUSH2 0xEE8 PUSH2 0xEE2 PUSH2 0x17B1 JUMP JUMPDEST DUP4 PUSH2 0x1872 JUMP JUMPDEST PUSH2 0xF27 JUMPI PUSH1 0x40 MLOAD PUSH32 0x8C379A000000000000000000000000000000000000000000000000000000000 DUP2 MSTORE PUSH1 0x4 ADD PUSH2 0xF1E SWAP1 PUSH2 0x3420 JUMP JUMPDEST PUSH1 0x40 MLOAD DUP1 SWAP2 SUB SWAP1 REVERT JUMPDEST PUSH2 0xF33 DUP5 DUP5 DUP5 DUP5 PUSH2 0x1CDB JUMP JUMPDEST POP POP POP POP JUMP JUMPDEST PUSH1 0x0 PUSH1 0xB DUP4 DUP4 PUSH1 0x40 MLOAD PUSH2 0xF4D SWAP3 SWAP2 SWAP1 PUSH2 0x3395 JUMP JUMPDEST SWAP1 DUP2 MSTORE PUSH1 0x20 ADD PUSH1 0x40 MLOAD DUP1 SWAP2 SUB SWAP1 KECCAK256 PUSH1 0x0 SWAP1 SLOAD SWAP1 PUSH2 0x100 EXP SWAP1 DIV PUSH20 0xFFFFFFFFFFFFFFFFFFFFFFFFFFFFFFFFFFFFFFFF AND SWAP1 POP SWAP3 SWAP2 POP POP JUMP JUMPDEST CALLER PUSH20 0xFFFFFFFFFFFFFFFFFFFFFFFFFFFFFFFFFFFFFFFF AND PUSH1 0xB DUP6 DUP6 PUSH1 0x40 MLOAD PUSH2 0xFAD SWAP3 SWAP2 SWAP1 PUSH2 0x3395 JUMP JUMPDEST SWAP1 DUP2 MSTORE PUSH1 0x20 ADD PUSH1 0x40 MLOAD DUP1 SWAP2 SUB SWAP1 KECCAK256 PUSH1 0x0 SWAP1 SLOAD SWAP1 PUSH2 0x100 EXP SWAP1 DIV PUSH20 0xFFFFFFFFFFFFFFFFFFFFFFFFFFFFFFFFFFFFFFFF AND PUSH20 0xFFFFFFFFFFFFFFFFFFFFFFFFFFFFFFFFFFFFFFFF AND EQ PUSH2 0xFFC JUMPI PUSH1 0x0 DUP1 REVERT JUMPDEST DUP2 DUP2 PUSH1 0xC DUP7 DUP7 PUSH1 0x40 MLOAD PUSH2 0x1010 SWAP3 SWAP2 SWAP1 PUSH2 0x3395 JUMP JUMPDEST SWAP1 DUP2 MSTORE PUSH1 0x20 ADD PUSH1 0x40 MLOAD DUP1 SWAP2 SUB SWAP1 KECCAK256 SWAP2 SWAP1 PUSH2 0x102B SWAP3 SWAP2 SWAP1 PUSH2 0x28A0 JUMP JUMPDEST POP POP POP POP POP JUMP JUMPDEST PUSH1 0x60 PUSH2 0x103D DUP3 PUSH2 0x1766 JUMP JUMPDEST PUSH1 0x0 PUSH1 0x6 PUSH1 0x0 DUP5 DUP2 MSTORE PUSH1 0x20 ADD SWAP1 DUP2 MSTORE PUSH1 0x20 ADD PUSH1 0x0 KECCAK256 DUP1 SLOAD PUSH2 0x105D SWAP1 PUSH2 0x320F JUMP JUMPDEST DUP1 PUSH1 0x1F ADD PUSH1 0x20 DUP1 SWAP2 DIV MUL PUSH1 0x20 ADD PUSH1 0x40 MLOAD SWAP1 DUP2 ADD PUSH1 0x40 MSTORE DUP1 SWAP3 SWAP2 SWAP1 DUP2 DUP2 MSTORE PUSH1 0x20 ADD DUP3 DUP1 SLOAD PUSH2 0x1089 SWAP1 PUSH2 0x320F JUMP JUMPDEST DUP1 ISZERO PUSH2 0x10D6 JUMPI DUP1 PUSH1 0x1F LT PUSH2 0x10AB JUMPI PUSH2 0x100 DUP1 DUP4 SLOAD DIV MUL DUP4 MSTORE SWAP2 PUSH1 0x20 ADD SWAP2 PUSH2 0x10D6 JUMP JUMPDEST DUP3 ADD SWAP2 SWAP1 PUSH1 0x0 MSTORE PUSH1 0x20 PUSH1 0x0 KECCAK256 SWAP1 JUMPDEST DUP2 SLOAD DUP2 MSTORE SWAP1 PUSH1 0x1 ADD SWAP1 PUSH1 0x20 ADD DUP1 DUP4 GT PUSH2 0x10B9 JUMPI DUP3 SWAP1 SUB PUSH1 0x1F AND DUP3 ADD SWAP2 JUMPDEST POP POP POP POP POP SWAP1 POP PUSH1 0x0 PUSH2 0x10E7 PUSH2 0x1D37 JUMP JUMPDEST SWAP1 POP PUSH1 0x0 DUP2 MLOAD EQ ISZERO PUSH2 0x10FD JUMPI DUP2 SWAP3 POP POP POP PUSH2 0x1140 JUMP JUMPDEST PUSH1 0x0 DUP3 MLOAD GT ISZERO PUSH2 0x1132 JUMPI DUP1 DUP3 PUSH1 0x40 MLOAD PUSH1 0x20 ADD PUSH2 0x111A SWAP3 SWAP2 SWAP1 PUSH2 0x3621 JUMP JUMPDEST PUSH1 0x40 MLOAD PUSH1 0x20 DUP2 DUP4 SUB SUB DUP2 MSTORE SWAP1 PUSH1 0x40 MSTORE SWAP3 POP POP POP PUSH2 0x1140 JUMP JUMPDEST PUSH2 0x113B DUP5 PUSH2 0x1D4E JUMP JUMPDEST SWAP3 POP POP POP JUMPDEST SWAP2 SWAP1 POP JUMP JUMPDEST PUSH1 0x0 PUSH1 0x5 PUSH1 0x0 DUP5 PUSH20 0xFFFFFFFFFFFFFFFFFFFFFFFFFFFFFFFFFFFFFFFF AND PUSH20 0xFFFFFFFFFFFFFFFFFFFFFFFFFFFFFFFFFFFFFFFF AND DUP2 MSTORE PUSH1 0x20 ADD SWAP1 DUP2 MSTORE PUSH1 0x20 ADD PUSH1 0x0 KECCAK256 PUSH1 0x0 DUP4 PUSH20 0xFFFFFFFFFFFFFFFFFFFFFFFFFFFFFFFFFFFFFFFF AND PUSH20 0xFFFFFFFFFFFFFFFFFFFFFFFFFFFFFFFFFFFFFFFF AND DUP2 MSTORE PUSH1 0x20 ADD SWAP1 DUP2 MSTORE PUSH1 0x20 ADD PUSH1 0x0 KECCAK256 PUSH1 0x0 SWAP1 SLOAD SWAP1 PUSH2 0x100 EXP SWAP1 DIV PUSH1 0xFF AND SWAP1 POP SWAP3 SWAP2 POP POP JUMP JUMPDEST PUSH1 0x0 PUSH20 0xFFFFFFFFFFFFFFFFFFFFFFFFFFFFFFFFFFFFFFFF AND PUSH1 0xB DUP4 DUP4 PUSH1 0x40 MLOAD PUSH2 0x1203 SWAP3 SWAP2 SWAP1 PUSH2 0x3395 JUMP JUMPDEST SWAP1 DUP2 MSTORE PUSH1 0x20 ADD PUSH1 0x40 MLOAD DUP1 SWAP2 SUB SWAP1 KECCAK256 PUSH1 0x0 SWAP1 SLOAD SWAP1 PUSH2 0x100 EXP SWAP1 DIV PUSH20 0xFFFFFFFFFFFFFFFFFFFFFFFFFFFFFFFFFFFFFFFF AND PUSH20 0xFFFFFFFFFFFFFFFFFFFFFFFFFFFFFFFFFFFFFFFF AND EQ PUSH2 0x1252 JUMPI PUSH1 0x0 DUP1 REVERT JUMPDEST PUSH1 0x0 PUSH2 0x125E DUP4 DUP4 PUSH2 0x15BA JUMP JUMPDEST SWAP1 POP DUP1 CALLVALUE LT ISZERO PUSH2 0x12A3 JUMPI PUSH1 0x40 MLOAD PUSH32 0x8C379A000000000000000000000000000000000000000000000000000000000 DUP2 MSTORE PUSH1 0x4 ADD PUSH2 0x129A SWAP1 PUSH2 0x3691 JUMP JUMPDEST PUSH1 0x40 MLOAD DUP1 SWAP2 SUB SWAP1 REVERT JUMPDEST PUSH1 0x0 DUP4 DUP4 PUSH1 0x8 PUSH1 0x40 MLOAD PUSH1 0x20 ADD PUSH2 0x12BB SWAP4 SWAP3 SWAP2 SWAP1 PUSH2 0x3791 JUMP JUMPDEST PUSH1 0x40 MLOAD PUSH1 0x20 DUP2 DUP4 SUB SUB DUP2 MSTORE SWAP1 PUSH1 0x40 MSTORE SWAP1 POP PUSH1 0x0 PUSH1 0x9 DUP3 PUSH1 0xA PUSH1 0x40 MLOAD PUSH1 0x20 ADD PUSH2 0x12E5 SWAP4 SWAP3 SWAP2 SWAP1 PUSH2 0x37C2 JUMP JUMPDEST PUSH1 0x40 MLOAD PUSH1 0x20 DUP2 DUP4 SUB SUB DUP2 MSTORE SWAP1 PUSH1 0x40 MSTORE SWAP1 POP PUSH1 0x0 PUSH2 0x1302 PUSH1 0x7 PUSH2 0x1DB6 JUMP JUMPDEST SWAP1 POP PUSH1 0x0 PUSH2 0x1353 DUP8 DUP8 DUP1 DUP1 PUSH1 0x1F ADD PUSH1 0x20 DUP1 SWAP2 DIV MUL PUSH1 0x20 ADD PUSH1 0x40 MLOAD SWAP1 DUP2 ADD PUSH1 0x40 MSTORE DUP1 SWAP4 SWAP3 SWAP2 SWAP1 DUP2 DUP2 MSTORE PUSH1 0x20 ADD DUP4 DUP4 DUP1 DUP3 DUP5 CALLDATACOPY PUSH1 0x0 DUP2 DUP5 ADD MSTORE PUSH1 0x1F NOT PUSH1 0x1F DUP3 ADD AND SWAP1 POP DUP1 DUP4 ADD SWAP3 POP POP POP POP POP POP POP PUSH2 0x1DC4 JUMP JUMPDEST SWAP1 POP PUSH1 0x0 PUSH2 0x1360 DUP3 PUSH2 0x1F79 JUMP JUMPDEST SWAP1 POP PUSH2 0x1454 PUSH1 0x40 MLOAD DUP1 PUSH1 0x60 ADD PUSH1 0x40 MSTORE DUP1 PUSH1 0x31 DUP2 MSTORE PUSH1 0x20 ADD PUSH2 0x4190 PUSH1 0x31 SWAP2 CODECOPY DUP10 DUP10 DUP1 DUP1 PUSH1 0x1F ADD PUSH1 0x20 DUP1 SWAP2 DIV MUL PUSH1 0x20 ADD PUSH1 0x40 MLOAD SWAP1 DUP2 ADD PUSH1 0x40 MSTORE DUP1 SWAP4 SWAP3 SWAP2 SWAP1 DUP2 DUP2 MSTORE PUSH1 0x20 ADD DUP4 DUP4 DUP1 DUP3 DUP5 CALLDATACOPY PUSH1 0x0 DUP2 DUP5 ADD MSTORE PUSH1 0x1F NOT PUSH1 0x1F DUP3 ADD AND SWAP1 POP DUP1 DUP4 ADD SWAP3 POP POP POP POP POP POP POP PUSH1 0x8 DUP1 SLOAD PUSH2 0x13D0 SWAP1 PUSH2 0x320F JUMP JUMPDEST DUP1 PUSH1 0x1F ADD PUSH1 0x20 DUP1 SWAP2 DIV MUL PUSH1 0x20 ADD PUSH1 0x40 MLOAD SWAP1 DUP2 ADD PUSH1 0x40 MSTORE DUP1 SWAP3 SWAP2 SWAP1 DUP2 DUP2 MSTORE PUSH1 0x20 ADD DUP3 DUP1 SLOAD PUSH2 0x13FC SWAP1 PUSH2 0x320F JUMP JUMPDEST DUP1 ISZERO PUSH2 0x1449 JUMPI DUP1 PUSH1 0x1F LT PUSH2 0x141E JUMPI PUSH2 0x100 DUP1 DUP4 SLOAD DIV MUL DUP4 MSTORE SWAP2 PUSH1 0x20 ADD SWAP2 PUSH2 0x1449 JUMP JUMPDEST DUP3 ADD SWAP2 SWAP1 PUSH1 0x0 MSTORE PUSH1 0x20 PUSH1 0x0 KECCAK256 SWAP1 JUMPDEST DUP2 SLOAD DUP2 MSTORE SWAP1 PUSH1 0x1 ADD SWAP1 PUSH1 0x20 ADD DUP1 DUP4 GT PUSH2 0x142C JUMPI DUP3 SWAP1 SUB PUSH1 0x1F AND DUP3 ADD SWAP2 JUMPDEST POP POP POP POP POP DUP7 PUSH2 0x20DA JUMP JUMPDEST PUSH1 0x0 PUSH2 0x148A DUP7 PUSH2 0x1463 DUP8 PUSH2 0x217C JUMP JUMPDEST DUP5 PUSH1 0x40 MLOAD PUSH1 0x20 ADD PUSH2 0x1476 SWAP4 SWAP3 SWAP2 SWAP1 PUSH2 0x396F JUMP JUMPDEST PUSH1 0x40 MLOAD PUSH1 0x20 DUP2 DUP4 SUB SUB DUP2 MSTORE SWAP1 PUSH1 0x40 MSTORE PUSH2 0x217C JUMP JUMPDEST SWAP1 POP PUSH1 0x0 DUP2 PUSH1 0x40 MLOAD PUSH1 0x20 ADD PUSH2 0x149F SWAP2 SWAP1 PUSH2 0x3A18 JUMP JUMPDEST PUSH1 0x40 MLOAD PUSH1 0x20 DUP2 DUP4 SUB SUB DUP2 MSTORE SWAP1 PUSH1 0x40 MSTORE SWAP1 POP PUSH2 0x14D1 PUSH1 0x40 MLOAD DUP1 PUSH1 0x60 ADD PUSH1 0x40 MSTORE DUP1 PUSH1 0x39 DUP2 MSTORE PUSH1 0x20 ADD PUSH2 0x4157 PUSH1 0x39 SWAP2 CODECOPY PUSH2 0x22E0 JUMP JUMPDEST PUSH2 0x1510 PUSH1 0x40 MLOAD DUP1 PUSH1 0x40 ADD PUSH1 0x40 MSTORE DUP1 PUSH1 0xE DUP2 MSTORE PUSH1 0x20 ADD PUSH32 0x46696E616C20746F6B656E555249000000000000000000000000000000000000 DUP2 MSTORE POP DUP3 PUSH2 0x1660 JUMP JUMPDEST PUSH2 0x1531 PUSH1 0x40 MLOAD DUP1 PUSH1 0x60 ADD PUSH1 0x40 MSTORE DUP1 PUSH1 0x39 DUP2 MSTORE PUSH1 0x20 ADD PUSH2 0x41C1 PUSH1 0x39 SWAP2 CODECOPY PUSH2 0x22E0 JUMP JUMPDEST PUSH2 0x153B CALLER DUP7 PUSH2 0x2379 JUMP JUMPDEST PUSH2 0x1545 DUP6 DUP3 PUSH2 0x2397 JUMP JUMPDEST CALLER PUSH1 0xB DUP12 DUP12 PUSH1 0x40 MLOAD PUSH2 0x1558 SWAP3 SWAP2 SWAP1 PUSH2 0x3395 JUMP JUMPDEST SWAP1 DUP2 MSTORE PUSH1 0x20 ADD PUSH1 0x40 MLOAD DUP1 SWAP2 SUB SWAP1 KECCAK256 PUSH1 0x0 PUSH2 0x100 EXP DUP2 SLOAD DUP2 PUSH20 0xFFFFFFFFFFFFFFFFFFFFFFFFFFFFFFFFFFFFFFFF MUL NOT AND SWAP1 DUP4 PUSH20 0xFFFFFFFFFFFFFFFFFFFFFFFFFFFFFFFFFFFFFFFF AND MUL OR SWAP1 SSTORE POP PUSH2 0x15AE PUSH1 0x7 PUSH2 0x240B JUMP JUMPDEST POP POP POP POP POP POP POP POP POP POP JUMP JUMPDEST PUSH1 0x0 DUP1 PUSH2 0x160A DUP5 DUP5 DUP1 DUP1 PUSH1 0x1F ADD PUSH1 0x20 DUP1 SWAP2 DIV MUL PUSH1 0x20 ADD PUSH1 0x40 MLOAD SWAP1 DUP2 ADD PUSH1 0x40 MSTORE DUP1 SWAP4 SWAP3 SWAP2 SWAP1 DUP2 DUP2 MSTORE PUSH1 0x20 ADD DUP4 DUP4 DUP1 DUP3 DUP5 CALLDATACOPY PUSH1 0x0 DUP2 DUP5 ADD MSTORE PUSH1 0x1F NOT PUSH1 0x1F DUP3 ADD AND SWAP1 POP DUP1 DUP4 ADD SWAP3 POP POP POP POP POP POP POP PUSH2 0x1DC4 JUMP JUMPDEST SWAP1 POP PUSH1 0x0 DUP2 GT PUSH2 0x1619 JUMPI PUSH1 0x0 DUP1 REVERT JUMPDEST PUSH1 0x3 DUP2 EQ ISZERO PUSH2 0x1633 JUMPI PUSH8 0x6F05B59D3B20000 SWAP2 POP POP PUSH2 0x165A JUMP JUMPDEST PUSH1 0x4 DUP2 EQ ISZERO PUSH2 0x164D JUMPI PUSH8 0x429D069189E0000 SWAP2 POP POP PUSH2 0x165A JUMP JUMPDEST PUSH8 0x16345785D8A0000 SWAP2 POP POP JUMPDEST SWAP3 SWAP2 POP POP JUMP JUMPDEST PUSH2 0x16F8 DUP3 DUP3 PUSH1 0x40 MLOAD PUSH1 0x24 ADD PUSH2 0x1676 SWAP3 SWAP2 SWAP1 PUSH2 0x3A3A JUMP JUMPDEST PUSH1 0x40 MLOAD PUSH1 0x20 DUP2 DUP4 SUB SUB DUP2 MSTORE SWAP1 PUSH1 0x40 MSTORE PUSH32 0x4B5C427700000000000000000000000000000000000000000000000000000000 PUSH28 0xFFFFFFFFFFFFFFFFFFFFFFFFFFFFFFFFFFFFFFFFFFFFFFFFFFFFFFFF NOT AND PUSH1 0x20 DUP3 ADD DUP1 MLOAD PUSH28 0xFFFFFFFFFFFFFFFFFFFFFFFFFFFFFFFFFFFFFFFFFFFFFFFFFFFFFFFF DUP4 DUP2 DUP4 AND OR DUP4 MSTORE POP POP POP POP PUSH2 0x2421 JUMP JUMPDEST POP POP JUMP JUMPDEST PUSH1 0x0 PUSH32 0x1FFC9A700000000000000000000000000000000000000000000000000000000 PUSH28 0xFFFFFFFFFFFFFFFFFFFFFFFFFFFFFFFFFFFFFFFFFFFFFFFFFFFFFFFF NOT AND DUP3 PUSH28 0xFFFFFFFFFFFFFFFFFFFFFFFFFFFFFFFFFFFFFFFFFFFFFFFFFFFFFFFF NOT AND EQ SWAP1 POP SWAP2 SWAP1 POP JUMP JUMPDEST PUSH2 0x176F DUP2 PUSH2 0x244A JUMP JUMPDEST PUSH2 0x17AE JUMPI PUSH1 0x40 MLOAD PUSH32 0x8C379A000000000000000000000000000000000000000000000000000000000 DUP2 MSTORE PUSH1 0x4 ADD PUSH2 0x17A5 SWAP1 PUSH2 0x353E JUMP JUMPDEST PUSH1 0x40 MLOAD DUP1 SWAP2 SUB SWAP1 REVERT JUMPDEST POP JUMP JUMPDEST PUSH1 0x0 CALLER SWAP1 POP SWAP1 JUMP JUMPDEST DUP2 PUSH1 0x4 PUSH1 0x0 DUP4 DUP2 MSTORE PUSH1 0x20 ADD SWAP1 DUP2 MSTORE PUSH1 0x20 ADD PUSH1 0x0 KECCAK256 PUSH1 0x0 PUSH2 0x100 EXP DUP2 SLOAD DUP2 PUSH20 0xFFFFFFFFFFFFFFFFFFFFFFFFFFFFFFFFFFFFFFFF MUL NOT AND SWAP1 DUP4 PUSH20 0xFFFFFFFFFFFFFFFFFFFFFFFFFFFFFFFFFFFFFFFF AND MUL OR SWAP1 SSTORE POP DUP1 DUP3 PUSH20 0xFFFFFFFFFFFFFFFFFFFFFFFFFFFFFFFFFFFFFFFF AND PUSH2 0x182C DUP4 PUSH2 0xC47 JUMP JUMPDEST PUSH20 0xFFFFFFFFFFFFFFFFFFFFFFFFFFFFFFFFFFFFFFFF AND PUSH32 0x8C5BE1E5EBEC7D5BD14F71427D1E84F3DD0314C0F7B2291E5B200AC8C7C3B925 PUSH1 0x40 MLOAD PUSH1 0x40 MLOAD DUP1 SWAP2 SUB SWAP1 LOG4 POP POP JUMP JUMPDEST PUSH1 0x0 DUP1 PUSH2 0x187E DUP4 PUSH2 0xC47 JUMP JUMPDEST SWAP1 POP DUP1 PUSH20 0xFFFFFFFFFFFFFFFFFFFFFFFFFFFFFFFFFFFFFFFF AND DUP5 PUSH20 0xFFFFFFFFFFFFFFFFFFFFFFFFFFFFFFFFFFFFFFFF AND EQ DUP1 PUSH2 0x18C0 JUMPI POP PUSH2 0x18BF DUP2 DUP6 PUSH2 0x1145 JUMP JUMPDEST JUMPDEST DUP1 PUSH2 0x18FE JUMPI POP DUP4 PUSH20 0xFFFFFFFFFFFFFFFFFFFFFFFFFFFFFFFFFFFFFFFF AND PUSH2 0x18E6 DUP5 PUSH2 0x763 JUMP JUMPDEST PUSH20 0xFFFFFFFFFFFFFFFFFFFFFFFFFFFFFFFFFFFFFFFF AND EQ JUMPDEST SWAP2 POP POP SWAP3 SWAP2 POP POP JUMP JUMPDEST DUP3 PUSH20 0xFFFFFFFFFFFFFFFFFFFFFFFFFFFFFFFFFFFFFFFF AND PUSH2 0x1927 DUP3 PUSH2 0xC47 JUMP JUMPDEST PUSH20 0xFFFFFFFFFFFFFFFFFFFFFFFFFFFFFFFFFFFFFFFF AND EQ PUSH2 0x197D JUMPI PUSH1 0x40 MLOAD PUSH32 0x8C379A000000000000000000000000000000000000000000000000000000000 DUP2 MSTORE PUSH1 0x4 ADD PUSH2 0x1974 SWAP1 PUSH2 0x3AE3 JUMP JUMPDEST PUSH1 0x40 MLOAD DUP1 SWAP2 SUB SWAP1 REVERT JUMPDEST PUSH1 0x0 PUSH20 0xFFFFFFFFFFFFFFFFFFFFFFFFFFFFFFFFFFFFFFFF AND DUP3 PUSH20 0xFFFFFFFFFFFFFFFFFFFFFFFFFFFFFFFFFFFFFFFF AND EQ ISZERO PUSH2 0x19ED JUMPI PUSH1 0x40 MLOAD PUSH32 0x8C379A000000000000000000000000000000000000000000000000000000000 DUP2 MSTORE PUSH1 0x4 ADD PUSH2 0x19E4 SWAP1 PUSH2 0x3B75 JUMP JUMPDEST PUSH1 0x40 MLOAD DUP1 SWAP2 SUB SWAP1 REVERT JUMPDEST PUSH2 0x19F8 DUP4 DUP4 DUP4 PUSH2 0x24B6 JUMP JUMPDEST PUSH2 0x1A03 PUSH1 0x0 DUP3 PUSH2 0x17B9 JUMP JUMPDEST PUSH1 0x1 PUSH1 0x3 PUSH1 0x0 DUP6 PUSH20 0xFFFFFFFFFFFFFFFFFFFFFFFFFFFFFFFFFFFFFFFF AND PUSH20 0xFFFFFFFFFFFFFFFFFFFFFFFFFFFFFFFFFFFFFFFF AND DUP2 MSTORE PUSH1 0x20 ADD SWAP1 DUP2 MSTORE PUSH1 0x20 ADD PUSH1 0x0 KECCAK256 PUSH1 0x0 DUP3 DUP3 SLOAD PUSH2 0x1A53 SWAP2 SWAP1 PUSH2 0x3BC4 JUMP JUMPDEST SWAP3 POP POP DUP2 SWAP1 SSTORE POP PUSH1 0x1 PUSH1 0x3 PUSH1 0x0 DUP5 PUSH20 0xFFFFFFFFFFFFFFFFFFFFFFFFFFFFFFFFFFFFFFFF AND PUSH20 0xFFFFFFFFFFFFFFFFFFFFFFFFFFFFFFFFFFFFFFFF AND DUP2 MSTORE PUSH1 0x20 ADD SWAP1 DUP2 MSTORE PUSH1 0x20 ADD PUSH1 0x0 KECCAK256 PUSH1 0x0 DUP3 DUP3 SLOAD PUSH2 0x1AAA SWAP2 SWAP1 PUSH2 0x3BF8 JUMP JUMPDEST SWAP3 POP POP DUP2 SWAP1 SSTORE POP DUP2 PUSH1 0x2 PUSH1 0x0 DUP4 DUP2 MSTORE PUSH1 0x20 ADD SWAP1 DUP2 MSTORE PUSH1 0x20 ADD PUSH1 0x0 KECCAK256 PUSH1 0x0 PUSH2 0x100 EXP DUP2 SLOAD DUP2 PUSH20 0xFFFFFFFFFFFFFFFFFFFFFFFFFFFFFFFFFFFFFFFF MUL NOT AND SWAP1 DUP4 PUSH20 0xFFFFFFFFFFFFFFFFFFFFFFFFFFFFFFFFFFFFFFFF AND MUL OR SWAP1 SSTORE POP DUP1 DUP3 PUSH20 0xFFFFFFFFFFFFFFFFFFFFFFFFFFFFFFFFFFFFFFFF AND DUP5 PUSH20 0xFFFFFFFFFFFFFFFFFFFFFFFFFFFFFFFFFFFFFFFF AND PUSH32 0xDDF252AD1BE2C89B69C2B068FC378DAA952BA7F163C4A11628F55A4DF523B3EF PUSH1 0x40 MLOAD PUSH1 0x40 MLOAD DUP1 SWAP2 SUB SWAP1 LOG4 PUSH2 0x1B69 DUP4 DUP4 DUP4 PUSH2 0x24BB JUMP JUMPDEST POP POP POP JUMP JUMPDEST DUP2 PUSH20 0xFFFFFFFFFFFFFFFFFFFFFFFFFFFFFFFFFFFFFFFF AND DUP4 PUSH20 0xFFFFFFFFFFFFFFFFFFFFFFFFFFFFFFFFFFFFFFFF AND EQ ISZERO PUSH2 0x1BDD JUMPI PUSH1 0x40 MLOAD PUSH32 0x8C379A000000000000000000000000000000000000000000000000000000000 DUP2 MSTORE PUSH1 0x4 ADD PUSH2 0x1BD4 SWAP1 PUSH2 0x3C9A JUMP JUMPDEST PUSH1 0x40 MLOAD DUP1 SWAP2 SUB SWAP1 REVERT JUMPDEST DUP1 PUSH1 0x5 PUSH1 0x0 DUP6 PUSH20 0xFFFFFFFFFFFFFFFFFFFFFFFFFFFFFFFFFFFFFFFF AND PUSH20 0xFFFFFFFFFFFFFFFFFFFFFFFFFFFFFFFFFFFFFFFF AND DUP2 MSTORE PUSH1 0x20 ADD SWAP1 DUP2 MSTORE PUSH1 0x20 ADD PUSH1 0x0 KECCAK256 PUSH1 0x0 DUP5 PUSH20 0xFFFFFFFFFFFFFFFFFFFFFFFFFFFFFFFFFFFFFFFF AND PUSH20 0xFFFFFFFFFFFFFFFFFFFFFFFFFFFFFFFFFFFFFFFF AND DUP2 MSTORE PUSH1 0x20 ADD SWAP1 DUP2 MSTORE PUSH1 0x20 ADD PUSH1 0x0 KECCAK256 PUSH1 0x0 PUSH2 0x100 EXP DUP2 SLOAD DUP2 PUSH1 0xFF MUL NOT AND SWAP1 DUP4 ISZERO ISZERO MUL OR SWAP1 SSTORE POP DUP2 PUSH20 0xFFFFFFFFFFFFFFFFFFFFFFFFFFFFFFFFFFFFFFFF AND DUP4 PUSH20 0xFFFFFFFFFFFFFFFFFFFFFFFFFFFFFFFFFFFFFFFF AND PUSH32 0x17307EAB39AB6107E8899845AD3D59BD9653F200F220920489CA2B5937696C31 DUP4 PUSH1 0x40 MLOAD PUSH2 0x1CCE SWAP2 SWAP1 PUSH2 0x2A7D JUMP JUMPDEST PUSH1 0x40 MLOAD DUP1 SWAP2 SUB SWAP1 LOG3 POP POP POP JUMP JUMPDEST PUSH2 0x1CE6 DUP5 DUP5 DUP5 PUSH2 0x1907 JUMP JUMPDEST PUSH2 0x1CF2 DUP5 DUP5 DUP5 DUP5 PUSH2 0x24C0 JUMP JUMPDEST PUSH2 0x1D31 JUMPI PUSH1 0x40 MLOAD PUSH32 0x8C379A000000000000000000000000000000000000000000000000000000000 DUP2 MSTORE PUSH1 0x4 ADD PUSH2 0x1D28 SWAP1 PUSH2 0x3D2C JUMP JUMPDEST PUSH1 0x40 MLOAD DUP1 SWAP2 SUB SWAP1 REVERT JUMPDEST POP POP POP POP JUMP JUMPDEST PUSH1 0x60 PUSH1 0x40 MLOAD DUP1 PUSH1 0x20 ADD PUSH1 0x40 MSTORE DUP1 PUSH1 0x0 DUP2 MSTORE POP SWAP1 POP SWAP1 JUMP JUMPDEST PUSH1 0x60 PUSH2 0x1D59 DUP3 PUSH2 0x1766 JUMP JUMPDEST PUSH1 0x0 PUSH2 0x1D63 PUSH2 0x1D37 JUMP JUMPDEST SWAP1 POP PUSH1 0x0 DUP2 MLOAD GT PUSH2 0x1D83 JUMPI PUSH1 0x40 MLOAD DUP1 PUSH1 0x20 ADD PUSH1 0x40 MSTORE DUP1 PUSH1 0x0 DUP2 MSTORE POP PUSH2 0x1DAE JUMP JUMPDEST DUP1 PUSH2 0x1D8D DUP5 PUSH2 0x1F79 JUMP JUMPDEST PUSH1 0x40 MLOAD PUSH1 0x20 ADD PUSH2 0x1D9E SWAP3 SWAP2 SWAP1 PUSH2 0x3621 JUMP JUMPDEST PUSH1 0x40 MLOAD PUSH1 0x20 DUP2 DUP4 SUB SUB DUP2 MSTORE SWAP1 PUSH1 0x40 MSTORE JUMPDEST SWAP2 POP POP SWAP2 SWAP1 POP JUMP JUMPDEST PUSH1 0x0 DUP2 PUSH1 0x0 ADD SLOAD SWAP1 POP SWAP2 SWAP1 POP JUMP JUMPDEST PUSH1 0x0 DUP1 PUSH1 0x0 DUP1 DUP5 MLOAD SWAP1 POP PUSH1 0x0 SWAP3 POP JUMPDEST DUP1 DUP3 LT ISZERO PUSH2 0x1F6E JUMPI PUSH1 0x0 DUP6 DUP4 DUP2 MLOAD DUP2 LT PUSH2 0x1DF0 JUMPI PUSH2 0x1DEF PUSH2 0x3D4C JUMP JUMPDEST JUMPDEST PUSH1 0x20 ADD ADD MLOAD PUSH1 0xF8 SHR PUSH1 0xF8 SHL SWAP1 POP PUSH1 0x80 PUSH1 0xF8 SHL DUP2 PUSH31 0xFFFFFFFFFFFFFFFFFFFFFFFFFFFFFFFFFFFFFFFFFFFFFFFFFFFFFFFFFFFFFF NOT AND LT ISZERO PUSH2 0x1E3F JUMPI PUSH1 0x1 DUP4 PUSH2 0x1E38 SWAP2 SWAP1 PUSH2 0x3BF8 JUMP JUMPDEST SWAP3 POP PUSH2 0x1F5A JUMP JUMPDEST PUSH1 0xE0 PUSH1 0xF8 SHL DUP2 PUSH31 0xFFFFFFFFFFFFFFFFFFFFFFFFFFFFFFFFFFFFFFFFFFFFFFFFFFFFFFFFFFFFFF NOT AND LT ISZERO PUSH2 0x1E81 JUMPI PUSH1 0x2 DUP4 PUSH2 0x1E7A SWAP2 SWAP1 PUSH2 0x3BF8 JUMP JUMPDEST SWAP3 POP PUSH2 0x1F59 JUMP JUMPDEST PUSH1 0xF0 PUSH1 0xF8 SHL DUP2 PUSH31 0xFFFFFFFFFFFFFFFFFFFFFFFFFFFFFFFFFFFFFFFFFFFFFFFFFFFFFFFFFFFFFF NOT AND LT ISZERO PUSH2 0x1EC3 JUMPI PUSH1 0x3 DUP4 PUSH2 0x1EBC SWAP2 SWAP1 PUSH2 0x3BF8 JUMP JUMPDEST SWAP3 POP PUSH2 0x1F58 JUMP JUMPDEST PUSH1 0xF8 DUP1 SHL DUP2 PUSH31 0xFFFFFFFFFFFFFFFFFFFFFFFFFFFFFFFFFFFFFFFFFFFFFFFFFFFFFFFFFFFFFF NOT AND LT ISZERO PUSH2 0x1F04 JUMPI PUSH1 0x4 DUP4 PUSH2 0x1EFD SWAP2 SWAP1 PUSH2 0x3BF8 JUMP JUMPDEST SWAP3 POP PUSH2 0x1F57 JUMP JUMPDEST PUSH1 0xFC PUSH1 0xF8 SHL DUP2 PUSH31 0xFFFFFFFFFFFFFFFFFFFFFFFFFFFFFFFFFFFFFFFFFFFFFFFFFFFFFFFFFFFFFF NOT AND LT ISZERO PUSH2 0x1F46 JUMPI PUSH1 0x5 DUP4 PUSH2 0x1F3F SWAP2 SWAP1 PUSH2 0x3BF8 JUMP JUMPDEST SWAP3 POP PUSH2 0x1F56 JUMP JUMPDEST PUSH1 0x6 DUP4 PUSH2 0x1F53 SWAP2 SWAP1 PUSH2 0x3BF8 JUMP JUMPDEST SWAP3 POP JUMPDEST JUMPDEST JUMPDEST JUMPDEST JUMPDEST POP DUP3 DUP1 PUSH2 0x1F66 SWAP1 PUSH2 0x3D7B JUMP JUMPDEST SWAP4 POP POP PUSH2 0x1DD3 JUMP JUMPDEST DUP3 SWAP4 POP POP POP POP SWAP2 SWAP1 POP JUMP JUMPDEST PUSH1 0x60 PUSH1 0x0 DUP3 EQ ISZERO PUSH2 0x1FC1 JUMPI PUSH1 0x40 MLOAD DUP1 PUSH1 0x40 ADD PUSH1 0x40 MSTORE DUP1 PUSH1 0x1 DUP2 MSTORE PUSH1 0x20 ADD PUSH32 0x3000000000000000000000000000000000000000000000000000000000000000 DUP2 MSTORE POP SWAP1 POP PUSH2 0x20D5 JUMP JUMPDEST PUSH1 0x0 DUP3 SWAP1 POP PUSH1 0x0 JUMPDEST PUSH1 0x0 DUP3 EQ PUSH2 0x1FF3 JUMPI DUP1 DUP1 PUSH2 0x1FDC SWAP1 PUSH2 0x3D7B JUMP JUMPDEST SWAP2 POP POP PUSH1 0xA DUP3 PUSH2 0x1FEC SWAP2 SWAP1 PUSH2 0x3DF3 JUMP JUMPDEST SWAP2 POP PUSH2 0x1FC9 JUMP JUMPDEST PUSH1 0x0 DUP2 PUSH8 0xFFFFFFFFFFFFFFFF DUP2 GT ISZERO PUSH2 0x200F JUMPI PUSH2 0x200E PUSH2 0x2D88 JUMP JUMPDEST JUMPDEST PUSH1 0x40 MLOAD SWAP1 DUP1 DUP3 MSTORE DUP1 PUSH1 0x1F ADD PUSH1 0x1F NOT AND PUSH1 0x20 ADD DUP3 ADD PUSH1 0x40 MSTORE DUP1 ISZERO PUSH2 0x2041 JUMPI DUP2 PUSH1 0x20 ADD PUSH1 0x1 DUP3 MUL DUP1 CALLDATASIZE DUP4 CALLDATACOPY DUP1 DUP3 ADD SWAP2 POP POP SWAP1 POP JUMPDEST POP SWAP1 POP JUMPDEST PUSH1 0x0 DUP6 EQ PUSH2 0x20CE JUMPI PUSH1 0x1 DUP3 PUSH2 0x205A SWAP2 SWAP1 PUSH2 0x3BC4 JUMP JUMPDEST SWAP2 POP PUSH1 0xA DUP6 PUSH2 0x2069 SWAP2 SWAP1 PUSH2 0x3E24 JUMP JUMPDEST PUSH1 0x30 PUSH2 0x2075 SWAP2 SWAP1 PUSH2 0x3BF8 JUMP JUMPDEST PUSH1 0xF8 SHL DUP2 DUP4 DUP2 MLOAD DUP2 LT PUSH2 0x208B JUMPI PUSH2 0x208A PUSH2 0x3D4C JUMP JUMPDEST JUMPDEST PUSH1 0x20 ADD ADD SWAP1 PUSH31 0xFFFFFFFFFFFFFFFFFFFFFFFFFFFFFFFFFFFFFFFFFFFFFFFFFFFFFFFFFFFFFF NOT AND SWAP1 DUP2 PUSH1 0x0 BYTE SWAP1 MSTORE8 POP PUSH1 0xA DUP6 PUSH2 0x20C7 SWAP2 SWAP1 PUSH2 0x3DF3 JUMP JUMPDEST SWAP5 POP PUSH2 0x2045 JUMP JUMPDEST DUP1 SWAP4 POP POP POP POP JUMPDEST SWAP2 SWAP1 POP JUMP JUMPDEST PUSH2 0x2176 DUP5 DUP5 DUP5 DUP5 PUSH1 0x40 MLOAD PUSH1 0x24 ADD PUSH2 0x20F4 SWAP5 SWAP4 SWAP3 SWAP2 SWAP1 PUSH2 0x3E55 JUMP JUMPDEST PUSH1 0x40 MLOAD PUSH1 0x20 DUP2 DUP4 SUB SUB DUP2 MSTORE SWAP1 PUSH1 0x40 MSTORE PUSH32 0x8EAFB02B00000000000000000000000000000000000000000000000000000000 PUSH28 0xFFFFFFFFFFFFFFFFFFFFFFFFFFFFFFFFFFFFFFFFFFFFFFFFFFFFFFFF NOT AND PUSH1 0x20 DUP3 ADD DUP1 MLOAD PUSH28 0xFFFFFFFFFFFFFFFFFFFFFFFFFFFFFFFFFFFFFFFFFFFFFFFFFFFFFFFF DUP4 DUP2 DUP4 AND OR DUP4 MSTORE POP POP POP POP PUSH2 0x2421 JUMP JUMPDEST POP POP POP POP JUMP JUMPDEST PUSH1 0x60 PUSH1 0x0 DUP3 MLOAD EQ ISZERO PUSH2 0x219F JUMPI PUSH1 0x40 MLOAD DUP1 PUSH1 0x20 ADD PUSH1 0x40 MSTORE DUP1 PUSH1 0x0 DUP2 MSTORE POP SWAP1 POP PUSH2 0x22DB JUMP JUMPDEST PUSH1 0x0 PUSH1 0x40 MLOAD DUP1 PUSH1 0x60 ADD PUSH1 0x40 MSTORE DUP1 PUSH1 0x40 DUP2 MSTORE PUSH1 0x20 ADD PUSH2 0x41FA PUSH1 0x40 SWAP2 CODECOPY SWAP1 POP PUSH1 0x0 PUSH1 0x3 PUSH1 0x2 DUP6 MLOAD PUSH2 0x21CE SWAP2 SWAP1 PUSH2 0x3BF8 JUMP JUMPDEST PUSH2 0x21D8 SWAP2 SWAP1 PUSH2 0x3DF3 JUMP JUMPDEST PUSH1 0x4 PUSH2 0x21E4 SWAP2 SWAP1 PUSH2 0x3EAF JUMP JUMPDEST PUSH8 0xFFFFFFFFFFFFFFFF DUP2 GT ISZERO PUSH2 0x21FD JUMPI PUSH2 0x21FC PUSH2 0x2D88 JUMP JUMPDEST JUMPDEST PUSH1 0x40 MLOAD SWAP1 DUP1 DUP3 MSTORE DUP1 PUSH1 0x1F ADD PUSH1 0x1F NOT AND PUSH1 0x20 ADD DUP3 ADD PUSH1 0x40 MSTORE DUP1 ISZERO PUSH2 0x222F JUMPI DUP2 PUSH1 0x20 ADD PUSH1 0x1 DUP3 MUL DUP1 CALLDATASIZE DUP4 CALLDATACOPY DUP1 DUP3 ADD SWAP2 POP POP SWAP1 POP JUMPDEST POP SWAP1 POP PUSH1 0x1 DUP3 ADD PUSH1 0x20 DUP3 ADD DUP6 DUP7 MLOAD DUP8 ADD JUMPDEST DUP1 DUP3 LT ISZERO PUSH2 0x229B JUMPI PUSH1 0x3 DUP3 ADD SWAP2 POP DUP2 MLOAD PUSH1 0x3F DUP2 PUSH1 0x12 SHR AND DUP6 ADD MLOAD DUP5 MSTORE8 PUSH1 0x1 DUP5 ADD SWAP4 POP PUSH1 0x3F DUP2 PUSH1 0xC SHR AND DUP6 ADD MLOAD DUP5 MSTORE8 PUSH1 0x1 DUP5 ADD SWAP4 POP PUSH1 0x3F DUP2 PUSH1 0x6 SHR AND DUP6 ADD MLOAD DUP5 MSTORE8 PUSH1 0x1 DUP5 ADD SWAP4 POP PUSH1 0x3F DUP2 AND DUP6 ADD MLOAD DUP5 MSTORE8 PUSH1 0x1 DUP5 ADD SWAP4 POP POP PUSH2 0x2240 JUMP JUMPDEST POP POP PUSH1 0x3 DUP7 MLOAD MOD PUSH1 0x1 DUP2 EQ PUSH2 0x22B7 JUMPI PUSH1 0x2 DUP2 EQ PUSH2 0x22CA JUMPI PUSH2 0x22D2 JUMP JUMPDEST PUSH1 0x3D PUSH1 0x1 DUP4 SUB MSTORE8 PUSH1 0x3D PUSH1 0x2 DUP4 SUB MSTORE8 PUSH2 0x22D2 JUMP JUMPDEST PUSH1 0x3D PUSH1 0x1 DUP4 SUB MSTORE8 JUMPDEST POP POP POP DUP1 SWAP3 POP POP POP JUMPDEST SWAP2 SWAP1 POP JUMP JUMPDEST PUSH2 0x2376 DUP2 PUSH1 0x40 MLOAD PUSH1 0x24 ADD PUSH2 0x22F4 SWAP2 SWAP1 PUSH2 0x2B31 JUMP JUMPDEST PUSH1 0x40 MLOAD PUSH1 0x20 DUP2 DUP4 SUB SUB DUP2 MSTORE SWAP1 PUSH1 0x40 MSTORE PUSH32 0x41304FAC00000000000000000000000000000000000000000000000000000000 PUSH28 0xFFFFFFFFFFFFFFFFFFFFFFFFFFFFFFFFFFFFFFFFFFFFFFFFFFFFFFFF NOT AND PUSH1 0x20 DUP3 ADD DUP1 MLOAD PUSH28 0xFFFFFFFFFFFFFFFFFFFFFFFFFFFFFFFFFFFFFFFFFFFFFFFFFFFFFFFF DUP4 DUP2 DUP4 AND OR DUP4 MSTORE POP POP POP POP PUSH2 0x2421 JUMP JUMPDEST POP JUMP JUMPDEST PUSH2 0x2393 DUP3 DUP3 PUSH1 0x40 MLOAD DUP1 PUSH1 0x20 ADD PUSH1 0x40 MSTORE DUP1 PUSH1 0x0 DUP2 MSTORE POP PUSH2 0x2648 JUMP JUMPDEST POP POP JUMP JUMPDEST PUSH2 0x23A0 DUP3 PUSH2 0x244A JUMP JUMPDEST PUSH2 0x23DF JUMPI PUSH1 0x40 MLOAD PUSH32 0x8C379A000000000000000000000000000000000000000000000000000000000 DUP2 MSTORE PUSH1 0x4 ADD PUSH2 0x23D6 SWAP1 PUSH2 0x3F7B JUMP JUMPDEST PUSH1 0x40 MLOAD DUP1 SWAP2 SUB SWAP1 REVERT JUMPDEST DUP1 PUSH1 0x6 PUSH1 0x0 DUP5 DUP2 MSTORE PUSH1 0x20 ADD SWAP1 DUP2 MSTORE PUSH1 0x20 ADD PUSH1 0x0 KECCAK256 SWAP1 DUP1 MLOAD SWAP1 PUSH1 0x20 ADD SWAP1 PUSH2 0x2406 SWAP3 SWAP2 SWAP1 PUSH2 0x2926 JUMP JUMPDEST POP POP POP JUMP JUMPDEST PUSH1 0x1 DUP2 PUSH1 0x0 ADD PUSH1 0x0 DUP3 DUP3 SLOAD ADD SWAP3 POP POP DUP2 SWAP1 SSTORE POP POP JUMP JUMPDEST PUSH1 0x0 DUP2 MLOAD SWAP1 POP PUSH1 0x0 PUSH11 0x636F6E736F6C652E6C6F67 SWAP1 POP PUSH1 0x20 DUP4 ADD PUSH1 0x0 DUP1 DUP5 DUP4 DUP6 GAS STATICCALL POP POP POP POP POP JUMP JUMPDEST PUSH1 0x0 DUP1 PUSH20 0xFFFFFFFFFFFFFFFFFFFFFFFFFFFFFFFFFFFFFFFF AND PUSH1 0x2 PUSH1 0x0 DUP5 DUP2 MSTORE PUSH1 0x20 ADD SWAP1 DUP2 MSTORE PUSH1 0x20 ADD PUSH1 0x0 KECCAK256 PUSH1 0x0 SWAP1 SLOAD SWAP1 PUSH2 0x100 EXP SWAP1 DIV PUSH20 0xFFFFFFFFFFFFFFFFFFFFFFFFFFFFFFFFFFFFFFFF AND PUSH20 0xFFFFFFFFFFFFFFFFFFFFFFFFFFFFFFFFFFFFFFFF AND EQ ISZERO SWAP1 POP SWAP2 SWAP1 POP JUMP JUMPDEST POP POP POP JUMP JUMPDEST POP POP POP JUMP JUMPDEST PUSH1 0x0 PUSH2 0x24E1 DUP5 PUSH20 0xFFFFFFFFFFFFFFFFFFFFFFFFFFFFFFFFFFFFFFFF AND PUSH2 0x26A3 JUMP JUMPDEST ISZERO PUSH2 0x263B JUMPI DUP4 PUSH20 0xFFFFFFFFFFFFFFFFFFFFFFFFFFFFFFFFFFFFFFFF AND PUSH4 0x150B7A02 PUSH2 0x250A PUSH2 0x17B1 JUMP JUMPDEST DUP8 DUP7 DUP7 PUSH1 0x40 MLOAD DUP6 PUSH4 0xFFFFFFFF AND PUSH1 0xE0 SHL DUP2 MSTORE PUSH1 0x4 ADD PUSH2 0x252C SWAP5 SWAP4 SWAP3 SWAP2 SWAP1 PUSH2 0x3FF0 JUMP JUMPDEST PUSH1 0x20 PUSH1 0x40 MLOAD DUP1 DUP4 SUB DUP2 PUSH1 0x0 DUP8 GAS CALL SWAP3 POP POP POP DUP1 ISZERO PUSH2 0x2568 JUMPI POP PUSH1 0x40 MLOAD RETURNDATASIZE PUSH1 0x1F NOT PUSH1 0x1F DUP3 ADD AND DUP3 ADD DUP1 PUSH1 0x40 MSTORE POP DUP2 ADD SWAP1 PUSH2 0x2565 SWAP2 SWAP1 PUSH2 0x4051 JUMP JUMPDEST PUSH1 0x1 JUMPDEST PUSH2 0x25EB JUMPI RETURNDATASIZE DUP1 PUSH1 0x0 DUP2 EQ PUSH2 0x2598 JUMPI PUSH1 0x40 MLOAD SWAP2 POP PUSH1 0x1F NOT PUSH1 0x3F RETURNDATASIZE ADD AND DUP3 ADD PUSH1 0x40 MSTORE RETURNDATASIZE DUP3 MSTORE RETURNDATASIZE PUSH1 0x0 PUSH1 0x20 DUP5 ADD RETURNDATACOPY PUSH2 0x259D JUMP JUMPDEST PUSH1 0x60 SWAP2 POP JUMPDEST POP PUSH1 0x0 DUP2 MLOAD EQ ISZERO PUSH2 0x25E3 JUMPI PUSH1 0x40 MLOAD PUSH32 0x8C379A000000000000000000000000000000000000000000000000000000000 DUP2 MSTORE PUSH1 0x4 ADD PUSH2 0x25DA SWAP1 PUSH2 0x3D2C JUMP JUMPDEST PUSH1 0x40 MLOAD DUP1 SWAP2 SUB SWAP1 REVERT JUMPDEST DUP1 MLOAD DUP2 PUSH1 0x20 ADD REVERT JUMPDEST PUSH4 0x150B7A02 PUSH1 0xE0 SHL PUSH28 0xFFFFFFFFFFFFFFFFFFFFFFFFFFFFFFFFFFFFFFFFFFFFFFFFFFFFFFFF NOT AND DUP2 PUSH28 0xFFFFFFFFFFFFFFFFFFFFFFFFFFFFFFFFFFFFFFFFFFFFFFFFFFFFFFFF NOT AND EQ SWAP2 POP POP PUSH2 0x2640 JUMP JUMPDEST PUSH1 0x1 SWAP1 POP JUMPDEST SWAP5 SWAP4 POP POP POP POP JUMP JUMPDEST PUSH2 0x2652 DUP4 DUP4 PUSH2 0x26C6 JUMP JUMPDEST PUSH2 0x265F PUSH1 0x0 DUP5 DUP5 DUP5 PUSH2 0x24C0 JUMP JUMPDEST PUSH2 0x269E JUMPI PUSH1 0x40 MLOAD PUSH32 0x8C379A000000000000000000000000000000000000000000000000000000000 DUP2 MSTORE PUSH1 0x4 ADD PUSH2 0x2695 SWAP1 PUSH2 0x3D2C JUMP JUMPDEST PUSH1 0x40 MLOAD DUP1 SWAP2 SUB SWAP1 REVERT JUMPDEST POP POP POP JUMP JUMPDEST PUSH1 0x0 DUP1 DUP3 PUSH20 0xFFFFFFFFFFFFFFFFFFFFFFFFFFFFFFFFFFFFFFFF AND EXTCODESIZE GT SWAP1 POP SWAP2 SWAP1 POP JUMP JUMPDEST PUSH1 0x0 PUSH20 0xFFFFFFFFFFFFFFFFFFFFFFFFFFFFFFFFFFFFFFFF AND DUP3 PUSH20 0xFFFFFFFFFFFFFFFFFFFFFFFFFFFFFFFFFFFFFFFF AND EQ ISZERO PUSH2 0x2736 JUMPI PUSH1 0x40 MLOAD PUSH32 0x8C379A000000000000000000000000000000000000000000000000000000000 DUP2 MSTORE PUSH1 0x4 ADD PUSH2 0x272D SWAP1 PUSH2 0x40CA JUMP JUMPDEST PUSH1 0x40 MLOAD DUP1 SWAP2 SUB SWAP1 REVERT JUMPDEST PUSH2 0x273F DUP2 PUSH2 0x244A JUMP JUMPDEST ISZERO PUSH2 0x277F JUMPI PUSH1 0x40 MLOAD PUSH32 0x8C379A000000000000000000000000000000000000000000000000000000000 DUP2 MSTORE PUSH1 0x4 ADD PUSH2 0x2776 SWAP1 PUSH2 0x4136 JUMP JUMPDEST PUSH1 0x40 MLOAD DUP1 SWAP2 SUB SWAP1 REVERT JUMPDEST PUSH2 0x278B PUSH1 0x0 DUP4 DUP4 PUSH2 0x24B6 JUMP JUMPDEST PUSH1 0x1 PUSH1 0x3 PUSH1 0x0 DUP5 PUSH20 0xFFFFFFFFFFFFFFFFFFFFFFFFFFFFFFFFFFFFFFFF AND PUSH20 0xFFFFFFFFFFFFFFFFFFFFFFFFFFFFFFFFFFFFFFFF AND DUP2 MSTORE PUSH1 0x20 ADD SWAP1 DUP2 MSTORE PUSH1 0x20 ADD PUSH1 0x0 KECCAK256 PUSH1 0x0 DUP3 DUP3 SLOAD PUSH2 0x27DB SWAP2 SWAP1 PUSH2 0x3BF8 JUMP JUMPDEST SWAP3 POP POP DUP2 SWAP1 SSTORE POP DUP2 PUSH1 0x2 PUSH1 0x0 DUP4 DUP2 MSTORE PUSH1 0x20 ADD SWAP1 DUP2 MSTORE PUSH1 0x20 ADD PUSH1 0x0 KECCAK256 PUSH1 0x0 PUSH2 0x100 EXP DUP2 SLOAD DUP2 PUSH20 0xFFFFFFFFFFFFFFFFFFFFFFFFFFFFFFFFFFFFFFFF MUL NOT AND SWAP1 DUP4 PUSH20 0xFFFFFFFFFFFFFFFFFFFFFFFFFFFFFFFFFFFFFFFF AND MUL OR SWAP1 SSTORE POP DUP1 DUP3 PUSH20 0xFFFFFFFFFFFFFFFFFFFFFFFFFFFFFFFFFFFFFFFF AND PUSH1 0x0 PUSH20 0xFFFFFFFFFFFFFFFFFFFFFFFFFFFFFFFFFFFFFFFF AND PUSH32 0xDDF252AD1BE2C89B69C2B068FC378DAA952BA7F163C4A11628F55A4DF523B3EF PUSH1 0x40 MLOAD PUSH1 0x40 MLOAD DUP1 SWAP2 SUB SWAP1 LOG4 PUSH2 0x289C PUSH1 0x0 DUP4 DUP4 PUSH2 0x24BB JUMP JUMPDEST POP POP JUMP JUMPDEST DUP3 DUP1 SLOAD PUSH2 0x28AC SWAP1 PUSH2 0x320F JUMP JUMPDEST SWAP1 PUSH1 0x0 MSTORE PUSH1 0x20 PUSH1 0x0 KECCAK256 SWAP1 PUSH1 0x1F ADD PUSH1 0x20 SWAP1 DIV DUP2 ADD SWAP3 DUP3 PUSH2 0x28CE JUMPI PUSH1 0x0 DUP6 SSTORE PUSH2 0x2915 JUMP JUMPDEST DUP3 PUSH1 0x1F LT PUSH2 0x28E7 JUMPI DUP1 CALLDATALOAD PUSH1 0xFF NOT AND DUP4 DUP1 ADD OR DUP6 SSTORE PUSH2 0x2915 JUMP JUMPDEST DUP3 DUP1 ADD PUSH1 0x1 ADD DUP6 SSTORE DUP3 ISZERO PUSH2 0x2915 JUMPI SWAP2 DUP3 ADD JUMPDEST DUP3 DUP2 GT ISZERO PUSH2 0x2914 JUMPI DUP3 CALLDATALOAD DUP3 SSTORE SWAP2 PUSH1 0x20 ADD SWAP2 SWAP1 PUSH1 0x1 ADD SWAP1 PUSH2 0x28F9 JUMP JUMPDEST JUMPDEST POP SWAP1 POP PUSH2 0x2922 SWAP2 SWAP1 PUSH2 0x29AC JUMP JUMPDEST POP SWAP1 JUMP JUMPDEST DUP3 DUP1 SLOAD PUSH2 0x2932 SWAP1 PUSH2 0x320F JUMP JUMPDEST SWAP1 PUSH1 0x0 MSTORE PUSH1 0x20 PUSH1 0x0 KECCAK256 SWAP1 PUSH1 0x1F ADD PUSH1 0x20 SWAP1 DIV DUP2 ADD SWAP3 DUP3 PUSH2 0x2954 JUMPI PUSH1 0x0 DUP6 SSTORE PUSH2 0x299B JUMP JUMPDEST DUP3 PUSH1 0x1F LT PUSH2 0x296D JUMPI DUP1 MLOAD PUSH1 0xFF NOT AND DUP4 DUP1 ADD OR DUP6 SSTORE PUSH2 0x299B JUMP JUMPDEST DUP3 DUP1 ADD PUSH1 0x1 ADD DUP6 SSTORE DUP3 ISZERO PUSH2 0x299B JUMPI SWAP2 DUP3 ADD JUMPDEST DUP3 DUP2 GT ISZERO PUSH2 0x299A JUMPI DUP3 MLOAD DUP3 SSTORE SWAP2 PUSH1 0x20 ADD SWAP2 SWAP1 PUSH1 0x1 ADD SWAP1 PUSH2 0x297F JUMP JUMPDEST JUMPDEST POP SWAP1 POP PUSH2 0x29A8 SWAP2 SWAP1 PUSH2 0x29AC JUMP JUMPDEST POP SWAP1 JUMP JUMPDEST JUMPDEST DUP1 DUP3 GT ISZERO PUSH2 0x29C5 JUMPI PUSH1 0x0 DUP2 PUSH1 0x0 SWAP1 SSTORE POP PUSH1 0x1 ADD PUSH2 0x29AD JUMP JUMPDEST POP SWAP1 JUMP JUMPDEST PUSH1 0x0 PUSH1 0x40 MLOAD SWAP1 POP SWAP1 JUMP JUMPDEST PUSH1 0x0 DUP1 REVERT JUMPDEST PUSH1 0x0 DUP1 REVERT JUMPDEST PUSH1 0x0 PUSH32 0xFFFFFFFF00000000000000000000000000000000000000000000000000000000 DUP3 AND SWAP1 POP SWAP2 SWAP1 POP JUMP JUMPDEST PUSH2 0x2A12 DUP2 PUSH2 0x29DD JUMP JUMPDEST DUP2 EQ PUSH2 0x2A1D JUMPI PUSH1 0x0 DUP1 REVERT JUMPDEST POP JUMP JUMPDEST PUSH1 0x0 DUP2 CALLDATALOAD SWAP1 POP PUSH2 0x2A2F DUP2 PUSH2 0x2A09 JUMP JUMPDEST SWAP3 SWAP2 POP POP JUMP JUMPDEST PUSH1 0x0 PUSH1 0x20 DUP3 DUP5 SUB SLT ISZERO PUSH2 0x2A4B JUMPI PUSH2 0x2A4A PUSH2 0x29D3 JUMP JUMPDEST JUMPDEST PUSH1 0x0 PUSH2 0x2A59 DUP5 DUP3 DUP6 ADD PUSH2 0x2A20 JUMP JUMPDEST SWAP2 POP POP SWAP3 SWAP2 POP POP JUMP JUMPDEST PUSH1 0x0 DUP2 ISZERO ISZERO SWAP1 POP SWAP2 SWAP1 POP JUMP JUMPDEST PUSH2 0x2A77 DUP2 PUSH2 0x2A62 JUMP JUMPDEST DUP3 MSTORE POP POP JUMP JUMPDEST PUSH1 0x0 PUSH1 0x20 DUP3 ADD SWAP1 POP PUSH2 0x2A92 PUSH1 0x0 DUP4 ADD DUP5 PUSH2 0x2A6E JUMP JUMPDEST SWAP3 SWAP2 POP POP JUMP JUMPDEST PUSH1 0x0 DUP2 MLOAD SWAP1 POP SWAP2 SWAP1 POP JUMP JUMPDEST PUSH1 0x0 DUP3 DUP3 MSTORE PUSH1 0x20 DUP3 ADD SWAP1 POP SWAP3 SWAP2 POP POP JUMP JUMPDEST PUSH1 0x0 JUMPDEST DUP4 DUP2 LT ISZERO PUSH2 0x2AD2 JUMPI DUP1 DUP3 ADD MLOAD DUP2 DUP5 ADD MSTORE PUSH1 0x20 DUP2 ADD SWAP1 POP PUSH2 0x2AB7 JUMP JUMPDEST DUP4 DUP2 GT ISZERO PUSH2 0x2AE1 JUMPI PUSH1 0x0 DUP5 DUP5 ADD MSTORE JUMPDEST POP POP POP POP JUMP JUMPDEST PUSH1 0x0 PUSH1 0x1F NOT PUSH1 0x1F DUP4 ADD AND SWAP1 POP SWAP2 SWAP1 POP JUMP JUMPDEST PUSH1 0x0 PUSH2 0x2B03 DUP3 PUSH2 0x2A98 JUMP JUMPDEST PUSH2 0x2B0D DUP2 DUP6 PUSH2 0x2AA3 JUMP JUMPDEST SWAP4 POP PUSH2 0x2B1D DUP2 DUP6 PUSH1 0x20 DUP7 ADD PUSH2 0x2AB4 JUMP JUMPDEST PUSH2 0x2B26 DUP2 PUSH2 0x2AE7 JUMP JUMPDEST DUP5 ADD SWAP2 POP POP SWAP3 SWAP2 POP POP JUMP JUMPDEST PUSH1 0x0 PUSH1 0x20 DUP3 ADD SWAP1 POP DUP2 DUP2 SUB PUSH1 0x0 DUP4 ADD MSTORE PUSH2 0x2B4B DUP2 DUP5 PUSH2 0x2AF8 JUMP JUMPDEST SWAP1 POP SWAP3 SWAP2 POP POP JUMP JUMPDEST PUSH1 0x0 DUP2 SWAP1 POP SWAP2 SWAP1 POP JUMP JUMPDEST PUSH2 0x2B66 DUP2 PUSH2 0x2B53 JUMP JUMPDEST DUP2 EQ PUSH2 0x2B71 JUMPI PUSH1 0x0 DUP1 REVERT JUMPDEST POP JUMP JUMPDEST PUSH1 0x0 DUP2 CALLDATALOAD SWAP1 POP PUSH2 0x2B83 DUP2 PUSH2 0x2B5D JUMP JUMPDEST SWAP3 SWAP2 POP POP JUMP JUMPDEST PUSH1 0x0 PUSH1 0x20 DUP3 DUP5 SUB SLT ISZERO PUSH2 0x2B9F JUMPI PUSH2 0x2B9E PUSH2 0x29D3 JUMP JUMPDEST JUMPDEST PUSH1 0x0 PUSH2 0x2BAD DUP5 DUP3 DUP6 ADD PUSH2 0x2B74 JUMP JUMPDEST SWAP2 POP POP SWAP3 SWAP2 POP POP JUMP JUMPDEST PUSH1 0x0 PUSH20 0xFFFFFFFFFFFFFFFFFFFFFFFFFFFFFFFFFFFFFFFF DUP3 AND SWAP1 POP SWAP2 SWAP1 POP JUMP JUMPDEST PUSH1 0x0 PUSH2 0x2BE1 DUP3 PUSH2 0x2BB6 JUMP JUMPDEST SWAP1 POP SWAP2 SWAP1 POP JUMP JUMPDEST PUSH2 0x2BF1 DUP2 PUSH2 0x2BD6 JUMP JUMPDEST DUP3 MSTORE POP POP JUMP JUMPDEST PUSH1 0x0 PUSH1 0x20 DUP3 ADD SWAP1 POP PUSH2 0x2C0C PUSH1 0x0 DUP4 ADD DUP5 PUSH2 0x2BE8 JUMP JUMPDEST SWAP3 SWAP2 POP POP JUMP JUMPDEST PUSH2 0x2C1B DUP2 PUSH2 0x2BD6 JUMP JUMPDEST DUP2 EQ PUSH2 0x2C26 JUMPI PUSH1 0x0 DUP1 REVERT JUMPDEST POP JUMP JUMPDEST PUSH1 0x0 DUP2 CALLDATALOAD SWAP1 POP PUSH2 0x2C38 DUP2 PUSH2 0x2C12 JUMP JUMPDEST SWAP3 SWAP2 POP POP JUMP JUMPDEST PUSH1 0x0 DUP1 PUSH1 0x40 DUP4 DUP6 SUB SLT ISZERO PUSH2 0x2C55 JUMPI PUSH2 0x2C54 PUSH2 0x29D3 JUMP JUMPDEST JUMPDEST PUSH1 0x0 PUSH2 0x2C63 DUP6 DUP3 DUP7 ADD PUSH2 0x2C29 JUMP JUMPDEST SWAP3 POP POP PUSH1 0x20 PUSH2 0x2C74 DUP6 DUP3 DUP7 ADD PUSH2 0x2B74 JUMP JUMPDEST SWAP2 POP POP SWAP3 POP SWAP3 SWAP1 POP JUMP JUMPDEST PUSH1 0x0 DUP1 REVERT JUMPDEST PUSH1 0x0 DUP1 REVERT JUMPDEST PUSH1 0x0 DUP1 REVERT JUMPDEST PUSH1 0x0 DUP1 DUP4 PUSH1 0x1F DUP5 ADD SLT PUSH2 0x2CA3 JUMPI PUSH2 0x2CA2 PUSH2 0x2C7E JUMP JUMPDEST JUMPDEST DUP3 CALLDATALOAD SWAP1 POP PUSH8 0xFFFFFFFFFFFFFFFF DUP2 GT ISZERO PUSH2 0x2CC0 JUMPI PUSH2 0x2CBF PUSH2 0x2C83 JUMP JUMPDEST JUMPDEST PUSH1 0x20 DUP4 ADD SWAP2 POP DUP4 PUSH1 0x1 DUP3 MUL DUP4 ADD GT ISZERO PUSH2 0x2CDC JUMPI PUSH2 0x2CDB PUSH2 0x2C88 JUMP JUMPDEST JUMPDEST SWAP3 POP SWAP3 SWAP1 POP JUMP JUMPDEST PUSH1 0x0 DUP1 PUSH1 0x20 DUP4 DUP6 SUB SLT ISZERO PUSH2 0x2CFA JUMPI PUSH2 0x2CF9 PUSH2 0x29D3 JUMP JUMPDEST JUMPDEST PUSH1 0x0 DUP4 ADD CALLDATALOAD PUSH8 0xFFFFFFFFFFFFFFFF DUP2 GT ISZERO PUSH2 0x2D18 JUMPI PUSH2 0x2D17 PUSH2 0x29D8 JUMP JUMPDEST JUMPDEST PUSH2 0x2D24 DUP6 DUP3 DUP7 ADD PUSH2 0x2C8D JUMP JUMPDEST SWAP3 POP SWAP3 POP POP SWAP3 POP SWAP3 SWAP1 POP JUMP JUMPDEST PUSH1 0x0 DUP1 PUSH1 0x0 PUSH1 0x60 DUP5 DUP7 SUB SLT ISZERO PUSH2 0x2D49 JUMPI PUSH2 0x2D48 PUSH2 0x29D3 JUMP JUMPDEST JUMPDEST PUSH1 0x0 PUSH2 0x2D57 DUP7 DUP3 DUP8 ADD PUSH2 0x2C29 JUMP JUMPDEST SWAP4 POP POP PUSH1 0x20 PUSH2 0x2D68 DUP7 DUP3 DUP8 ADD PUSH2 0x2C29 JUMP JUMPDEST SWAP3 POP POP PUSH1 0x40 PUSH2 0x2D79 DUP7 DUP3 DUP8 ADD PUSH2 0x2B74 JUMP JUMPDEST SWAP2 POP POP SWAP3 POP SWAP3 POP SWAP3 JUMP JUMPDEST PUSH1 0x0 DUP1 REVERT JUMPDEST PUSH32 0x4E487B7100000000000000000000000000000000000000000000000000000000 PUSH1 0x0 MSTORE PUSH1 0x41 PUSH1 0x4 MSTORE PUSH1 0x24 PUSH1 0x0 REVERT JUMPDEST PUSH2 0x2DC0 DUP3 PUSH2 0x2AE7 JUMP JUMPDEST DUP2 ADD DUP2 DUP2 LT PUSH8 0xFFFFFFFFFFFFFFFF DUP3 GT OR ISZERO PUSH2 0x2DDF JUMPI PUSH2 0x2DDE PUSH2 0x2D88 JUMP JUMPDEST JUMPDEST DUP1 PUSH1 0x40 MSTORE POP POP POP JUMP JUMPDEST PUSH1 0x0 PUSH2 0x2DF2 PUSH2 0x29C9 JUMP JUMPDEST SWAP1 POP PUSH2 0x2DFE DUP3 DUP3 PUSH2 0x2DB7 JUMP JUMPDEST SWAP2 SWAP1 POP JUMP JUMPDEST PUSH1 0x0 PUSH8 0xFFFFFFFFFFFFFFFF DUP3 GT ISZERO PUSH2 0x2E1E JUMPI PUSH2 0x2E1D PUSH2 0x2D88 JUMP JUMPDEST JUMPDEST PUSH2 0x2E27 DUP3 PUSH2 0x2AE7 JUMP JUMPDEST SWAP1 POP PUSH1 0x20 DUP2 ADD SWAP1 POP SWAP2 SWAP1 POP JUMP JUMPDEST DUP3 DUP2 DUP4 CALLDATACOPY PUSH1 0x0 DUP4 DUP4 ADD MSTORE POP POP POP JUMP JUMPDEST PUSH1 0x0 PUSH2 0x2E56 PUSH2 0x2E51 DUP5 PUSH2 0x2E03 JUMP JUMPDEST PUSH2 0x2DE8 JUMP JUMPDEST SWAP1 POP DUP3 DUP2 MSTORE PUSH1 0x20 DUP2 ADD DUP5 DUP5 DUP5 ADD GT ISZERO PUSH2 0x2E72 JUMPI PUSH2 0x2E71 PUSH2 0x2D83 JUMP JUMPDEST JUMPDEST PUSH2 0x2E7D DUP5 DUP3 DUP6 PUSH2 0x2E34 JUMP JUMPDEST POP SWAP4 SWAP3 POP POP POP JUMP JUMPDEST PUSH1 0x0 DUP3 PUSH1 0x1F DUP4 ADD SLT PUSH2 0x2E9A JUMPI PUSH2 0x2E99 PUSH2 0x2C7E JUMP JUMPDEST JUMPDEST DUP2 CALLDATALOAD PUSH2 0x2EAA DUP5 DUP3 PUSH1 0x20 DUP7 ADD PUSH2 0x2E43 JUMP JUMPDEST SWAP2 POP POP SWAP3 SWAP2 POP POP JUMP JUMPDEST PUSH1 0x0 PUSH1 0x20 DUP3 DUP5 SUB SLT ISZERO PUSH2 0x2EC9 JUMPI PUSH2 0x2EC8 PUSH2 0x29D3 JUMP JUMPDEST JUMPDEST PUSH1 0x0 DUP3 ADD CALLDATALOAD PUSH8 0xFFFFFFFFFFFFFFFF DUP2 GT ISZERO PUSH2 0x2EE7 JUMPI PUSH2 0x2EE6 PUSH2 0x29D8 JUMP JUMPDEST JUMPDEST PUSH2 0x2EF3 DUP5 DUP3 DUP6 ADD PUSH2 0x2E85 JUMP JUMPDEST SWAP2 POP POP SWAP3 SWAP2 POP POP JUMP JUMPDEST PUSH1 0x0 PUSH1 0x20 DUP3 DUP5 SUB SLT ISZERO PUSH2 0x2F12 JUMPI PUSH2 0x2F11 PUSH2 0x29D3 JUMP JUMPDEST JUMPDEST PUSH1 0x0 PUSH2 0x2F20 DUP5 DUP3 DUP6 ADD PUSH2 0x2C29 JUMP JUMPDEST SWAP2 POP POP SWAP3 SWAP2 POP POP JUMP JUMPDEST PUSH2 0x2F32 DUP2 PUSH2 0x2B53 JUMP JUMPDEST DUP3 MSTORE POP POP JUMP JUMPDEST PUSH1 0x0 PUSH1 0x20 DUP3 ADD SWAP1 POP PUSH2 0x2F4D PUSH1 0x0 DUP4 ADD DUP5 PUSH2 0x2F29 JUMP JUMPDEST SWAP3 SWAP2 POP POP JUMP JUMPDEST PUSH1 0x0 PUSH2 0x2F5E DUP3 PUSH2 0x2BB6 JUMP JUMPDEST SWAP1 POP SWAP2 SWAP1 POP JUMP JUMPDEST PUSH2 0x2F6E DUP2 PUSH2 0x2F53 JUMP JUMPDEST DUP3 MSTORE POP POP JUMP JUMPDEST PUSH1 0x0 PUSH1 0x20 DUP3 ADD SWAP1 POP PUSH2 0x2F89 PUSH1 0x0 DUP4 ADD DUP5 PUSH2 0x2F65 JUMP JUMPDEST SWAP3 SWAP2 POP POP JUMP JUMPDEST PUSH2 0x2F98 DUP2 PUSH2 0x2A62 JUMP JUMPDEST DUP2 EQ PUSH2 0x2FA3 JUMPI PUSH1 0x0 DUP1 REVERT JUMPDEST POP JUMP JUMPDEST PUSH1 0x0 DUP2 CALLDATALOAD SWAP1 POP PUSH2 0x2FB5 DUP2 PUSH2 0x2F8F JUMP JUMPDEST SWAP3 SWAP2 POP POP JUMP JUMPDEST PUSH1 0x0 DUP1 PUSH1 0x40 DUP4 DUP6 SUB SLT ISZERO PUSH2 0x2FD2 JUMPI PUSH2 0x2FD1 PUSH2 0x29D3 JUMP JUMPDEST JUMPDEST PUSH1 0x0 PUSH2 0x2FE0 DUP6 DUP3 DUP7 ADD PUSH2 0x2C29 JUMP JUMPDEST SWAP3 POP POP PUSH1 0x20 PUSH2 0x2FF1 DUP6 DUP3 DUP7 ADD PUSH2 0x2FA6 JUMP JUMPDEST SWAP2 POP POP SWAP3 POP SWAP3 SWAP1 POP JUMP JUMPDEST PUSH1 0x0 PUSH8 0xFFFFFFFFFFFFFFFF DUP3 GT ISZERO PUSH2 0x3016 JUMPI PUSH2 0x3015 PUSH2 0x2D88 JUMP JUMPDEST JUMPDEST PUSH2 0x301F DUP3 PUSH2 0x2AE7 JUMP JUMPDEST SWAP1 POP PUSH1 0x20 DUP2 ADD SWAP1 POP SWAP2 SWAP1 POP JUMP JUMPDEST PUSH1 0x0 PUSH2 0x303F PUSH2 0x303A DUP5 PUSH2 0x2FFB JUMP JUMPDEST PUSH2 0x2DE8 JUMP JUMPDEST SWAP1 POP DUP3 DUP2 MSTORE PUSH1 0x20 DUP2 ADD DUP5 DUP5 DUP5 ADD GT ISZERO PUSH2 0x305B JUMPI PUSH2 0x305A PUSH2 0x2D83 JUMP JUMPDEST JUMPDEST PUSH2 0x3066 DUP5 DUP3 DUP6 PUSH2 0x2E34 JUMP JUMPDEST POP SWAP4 SWAP3 POP POP POP JUMP JUMPDEST PUSH1 0x0 DUP3 PUSH1 0x1F DUP4 ADD SLT PUSH2 0x3083 JUMPI PUSH2 0x3082 PUSH2 0x2C7E JUMP JUMPDEST JUMPDEST DUP2 CALLDATALOAD PUSH2 0x3093 DUP5 DUP3 PUSH1 0x20 DUP7 ADD PUSH2 0x302C JUMP JUMPDEST SWAP2 POP POP SWAP3 SWAP2 POP POP JUMP JUMPDEST PUSH1 0x0 DUP1 PUSH1 0x0 DUP1 PUSH1 0x80 DUP6 DUP8 SUB SLT ISZERO PUSH2 0x30B6 JUMPI PUSH2 0x30B5 PUSH2 0x29D3 JUMP JUMPDEST JUMPDEST PUSH1 0x0 PUSH2 0x30C4 DUP8 DUP3 DUP9 ADD PUSH2 0x2C29 JUMP JUMPDEST SWAP5 POP POP PUSH1 0x20 PUSH2 0x30D5 DUP8 DUP3 DUP9 ADD PUSH2 0x2C29 JUMP JUMPDEST SWAP4 POP POP PUSH1 0x40 PUSH2 0x30E6 DUP8 DUP3 DUP9 ADD PUSH2 0x2B74 JUMP JUMPDEST SWAP3 POP POP PUSH1 0x60 DUP6 ADD CALLDATALOAD PUSH8 0xFFFFFFFFFFFFFFFF DUP2 GT ISZERO PUSH2 0x3107 JUMPI PUSH2 0x3106 PUSH2 0x29D8 JUMP JUMPDEST JUMPDEST PUSH2 0x3113 DUP8 DUP3 DUP9 ADD PUSH2 0x306E JUMP JUMPDEST SWAP2 POP POP SWAP3 SWAP6 SWAP2 SWAP5 POP SWAP3 POP JUMP JUMPDEST PUSH1 0x0 DUP1 PUSH1 0x0 DUP1 PUSH1 0x40 DUP6 DUP8 SUB SLT ISZERO PUSH2 0x3139 JUMPI PUSH2 0x3138 PUSH2 0x29D3 JUMP JUMPDEST JUMPDEST PUSH1 0x0 DUP6 ADD CALLDATALOAD PUSH8 0xFFFFFFFFFFFFFFFF DUP2 GT ISZERO PUSH2 0x3157 JUMPI PUSH2 0x3156 PUSH2 0x29D8 JUMP JUMPDEST JUMPDEST PUSH2 0x3163 DUP8 DUP3 DUP9 ADD PUSH2 0x2C8D JUMP JUMPDEST SWAP5 POP SWAP5 POP POP PUSH1 0x20 DUP6 ADD CALLDATALOAD PUSH8 0xFFFFFFFFFFFFFFFF DUP2 GT ISZERO PUSH2 0x3186 JUMPI PUSH2 0x3185 PUSH2 0x29D8 JUMP JUMPDEST JUMPDEST PUSH2 0x3192 DUP8 DUP3 DUP9 ADD PUSH2 0x2C8D JUMP JUMPDEST SWAP3 POP SWAP3 POP POP SWAP3 SWAP6 SWAP2 SWAP5 POP SWAP3 POP JUMP JUMPDEST PUSH1 0x0 DUP1 PUSH1 0x40 DUP4 DUP6 SUB SLT ISZERO PUSH2 0x31B7 JUMPI PUSH2 0x31B6 PUSH2 0x29D3 JUMP JUMPDEST JUMPDEST PUSH1 0x0 PUSH2 0x31C5 DUP6 DUP3 DUP7 ADD PUSH2 0x2C29 JUMP JUMPDEST SWAP3 POP POP PUSH1 0x20 PUSH2 0x31D6 DUP6 DUP3 DUP7 ADD PUSH2 0x2C29 JUMP JUMPDEST SWAP2 POP POP SWAP3 POP SWAP3 SWAP1 POP JUMP JUMPDEST PUSH32 0x4E487B7100000000000000000000000000000000000000000000000000000000 PUSH1 0x0 MSTORE PUSH1 0x22 PUSH1 0x4 MSTORE PUSH1 0x24 PUSH1 0x0 REVERT JUMPDEST PUSH1 0x0 PUSH1 0x2 DUP3 DIV SWAP1 POP PUSH1 0x1 DUP3 AND DUP1 PUSH2 0x3227 JUMPI PUSH1 0x7F DUP3 AND SWAP2 POP JUMPDEST PUSH1 0x20 DUP3 LT DUP2 EQ ISZERO PUSH2 0x323B JUMPI PUSH2 0x323A PUSH2 0x31E0 JUMP JUMPDEST JUMPDEST POP SWAP2 SWAP1 POP JUMP JUMPDEST PUSH32 0x4552433732313A20617070726F76616C20746F2063757272656E74206F776E65 PUSH1 0x0 DUP3 ADD MSTORE PUSH32 0x7200000000000000000000000000000000000000000000000000000000000000 PUSH1 0x20 DUP3 ADD MSTORE POP JUMP JUMPDEST PUSH1 0x0 PUSH2 0x329D PUSH1 0x21 DUP4 PUSH2 0x2AA3 JUMP JUMPDEST SWAP2 POP PUSH2 0x32A8 DUP3 PUSH2 0x3241 JUMP JUMPDEST PUSH1 0x40 DUP3 ADD SWAP1 POP SWAP2 SWAP1 POP JUMP JUMPDEST PUSH1 0x0 PUSH1 0x20 DUP3 ADD SWAP1 POP DUP2 DUP2 SUB PUSH1 0x0 DUP4 ADD MSTORE PUSH2 0x32CC DUP2 PUSH2 0x3290 JUMP JUMPDEST SWAP1 POP SWAP2 SWAP1 POP JUMP JUMPDEST PUSH32 0x4552433732313A20617070726F76652063616C6C6572206973206E6F7420746F PUSH1 0x0 DUP3 ADD MSTORE PUSH32 0x6B656E206F776E6572206E6F7220617070726F76656420666F7220616C6C0000 PUSH1 0x20 DUP3 ADD MSTORE POP JUMP JUMPDEST PUSH1 0x0 PUSH2 0x332F PUSH1 0x3E DUP4 PUSH2 0x2AA3 JUMP JUMPDEST SWAP2 POP PUSH2 0x333A DUP3 PUSH2 0x32D3 JUMP JUMPDEST PUSH1 0x40 DUP3 ADD SWAP1 POP SWAP2 SWAP1 POP JUMP JUMPDEST PUSH1 0x0 PUSH1 0x20 DUP3 ADD SWAP1 POP DUP2 DUP2 SUB PUSH1 0x0 DUP4 ADD MSTORE PUSH2 0x335E DUP2 PUSH2 0x3322 JUMP JUMPDEST SWAP1 POP SWAP2 SWAP1 POP JUMP JUMPDEST PUSH1 0x0 DUP2 SWAP1 POP SWAP3 SWAP2 POP POP JUMP JUMPDEST PUSH1 0x0 PUSH2 0x337C DUP4 DUP6 PUSH2 0x3365 JUMP JUMPDEST SWAP4 POP PUSH2 0x3389 DUP4 DUP6 DUP5 PUSH2 0x2E34 JUMP JUMPDEST DUP3 DUP5 ADD SWAP1 POP SWAP4 SWAP3 POP POP POP JUMP JUMPDEST PUSH1 0x0 PUSH2 0x33A2 DUP3 DUP5 DUP7 PUSH2 0x3370 JUMP JUMPDEST SWAP2 POP DUP2 SWAP1 POP SWAP4 SWAP3 POP POP POP JUMP JUMPDEST PUSH32 0x4552433732313A2063616C6C6572206973206E6F7420746F6B656E206F776E65 PUSH1 0x0 DUP3 ADD MSTORE PUSH32 0x72206E6F7220617070726F766564000000000000000000000000000000000000 PUSH1 0x20 DUP3 ADD MSTORE POP JUMP JUMPDEST PUSH1 0x0 PUSH2 0x340A PUSH1 0x2E DUP4 PUSH2 0x2AA3 JUMP JUMPDEST SWAP2 POP PUSH2 0x3415 DUP3 PUSH2 0x33AE JUMP JUMPDEST PUSH1 0x40 DUP3 ADD SWAP1 POP SWAP2 SWAP1 POP JUMP JUMPDEST PUSH1 0x0 PUSH1 0x20 DUP3 ADD SWAP1 POP DUP2 DUP2 SUB PUSH1 0x0 DUP4 ADD MSTORE PUSH2 0x3439 DUP2 PUSH2 0x33FD JUMP JUMPDEST SWAP1 POP SWAP2 SWAP1 POP JUMP JUMPDEST PUSH1 0x0 DUP2 SWAP1 POP SWAP3 SWAP2 POP POP JUMP JUMPDEST POP JUMP JUMPDEST PUSH1 0x0 PUSH2 0x345B PUSH1 0x0 DUP4 PUSH2 0x3440 JUMP JUMPDEST SWAP2 POP PUSH2 0x3466 DUP3 PUSH2 0x344B JUMP JUMPDEST PUSH1 0x0 DUP3 ADD SWAP1 POP SWAP2 SWAP1 POP JUMP JUMPDEST PUSH1 0x0 PUSH2 0x347C DUP3 PUSH2 0x344E JUMP JUMPDEST SWAP2 POP DUP2 SWAP1 POP SWAP2 SWAP1 POP JUMP JUMPDEST PUSH32 0x4661696C656420746F207769746864726177204D617469630000000000000000 PUSH1 0x0 DUP3 ADD MSTORE POP JUMP JUMPDEST PUSH1 0x0 PUSH2 0x34BC PUSH1 0x18 DUP4 PUSH2 0x2AA3 JUMP JUMPDEST SWAP2 POP PUSH2 0x34C7 DUP3 PUSH2 0x3486 JUMP JUMPDEST PUSH1 0x20 DUP3 ADD SWAP1 POP SWAP2 SWAP1 POP JUMP JUMPDEST PUSH1 0x0 PUSH1 0x20 DUP3 ADD SWAP1 POP DUP2 DUP2 SUB PUSH1 0x0 DUP4 ADD MSTORE PUSH2 0x34EB DUP2 PUSH2 0x34AF JUMP JUMPDEST SWAP1 POP SWAP2 SWAP1 POP JUMP JUMPDEST PUSH32 0x4552433732313A20696E76616C696420746F6B656E2049440000000000000000 PUSH1 0x0 DUP3 ADD MSTORE POP JUMP JUMPDEST PUSH1 0x0 PUSH2 0x3528 PUSH1 0x18 DUP4 PUSH2 0x2AA3 JUMP JUMPDEST SWAP2 POP PUSH2 0x3533 DUP3 PUSH2 0x34F2 JUMP JUMPDEST PUSH1 0x20 DUP3 ADD SWAP1 POP SWAP2 SWAP1 POP JUMP JUMPDEST PUSH1 0x0 PUSH1 0x20 DUP3 ADD SWAP1 POP DUP2 DUP2 SUB PUSH1 0x0 DUP4 ADD MSTORE PUSH2 0x3557 DUP2 PUSH2 0x351B JUMP JUMPDEST SWAP1 POP SWAP2 SWAP1 POP JUMP JUMPDEST PUSH32 0x4552433732313A2061646472657373207A65726F206973206E6F742061207661 PUSH1 0x0 DUP3 ADD MSTORE PUSH32 0x6C6964206F776E65720000000000000000000000000000000000000000000000 PUSH1 0x20 DUP3 ADD MSTORE POP JUMP JUMPDEST PUSH1 0x0 PUSH2 0x35BA PUSH1 0x29 DUP4 PUSH2 0x2AA3 JUMP JUMPDEST SWAP2 POP PUSH2 0x35C5 DUP3 PUSH2 0x355E JUMP JUMPDEST PUSH1 0x40 DUP3 ADD SWAP1 POP SWAP2 SWAP1 POP JUMP JUMPDEST PUSH1 0x0 PUSH1 0x20 DUP3 ADD SWAP1 POP DUP2 DUP2 SUB PUSH1 0x0 DUP4 ADD MSTORE PUSH2 0x35E9 DUP2 PUSH2 0x35AD JUMP JUMPDEST SWAP1 POP SWAP2 SWAP1 POP JUMP JUMPDEST PUSH1 0x0 PUSH2 0x35FB DUP3 PUSH2 0x2A98 JUMP JUMPDEST PUSH2 0x3605 DUP2 DUP6 PUSH2 0x3365 JUMP JUMPDEST SWAP4 POP PUSH2 0x3615 DUP2 DUP6 PUSH1 0x20 DUP7 ADD PUSH2 0x2AB4 JUMP JUMPDEST DUP1 DUP5 ADD SWAP2 POP POP SWAP3 SWAP2 POP POP JUMP JUMPDEST PUSH1 0x0 PUSH2 0x362D DUP3 DUP6 PUSH2 0x35F0 JUMP JUMPDEST SWAP2 POP PUSH2 0x3639 DUP3 DUP5 PUSH2 0x35F0 JUMP JUMPDEST SWAP2 POP DUP2 SWAP1 POP SWAP4 SWAP3 POP POP POP JUMP JUMPDEST PUSH32 0x4E6F7420656E6F756768204D6174696320706169640000000000000000000000 PUSH1 0x0 DUP3 ADD MSTORE POP JUMP JUMPDEST PUSH1 0x0 PUSH2 0x367B PUSH1 0x15 DUP4 PUSH2 0x2AA3 JUMP JUMPDEST SWAP2 POP PUSH2 0x3686 DUP3 PUSH2 0x3645 JUMP JUMPDEST PUSH1 0x20 DUP3 ADD SWAP1 POP SWAP2 SWAP1 POP JUMP JUMPDEST PUSH1 0x0 PUSH1 0x20 DUP3 ADD SWAP1 POP DUP2 DUP2 SUB PUSH1 0x0 DUP4 ADD MSTORE PUSH2 0x36AA DUP2 PUSH2 0x366E JUMP JUMPDEST SWAP1 POP SWAP2 SWAP1 POP JUMP JUMPDEST PUSH32 0x2E00000000000000000000000000000000000000000000000000000000000000 PUSH1 0x0 DUP3 ADD MSTORE POP JUMP JUMPDEST PUSH1 0x0 PUSH2 0x36E7 PUSH1 0x1 DUP4 PUSH2 0x3365 JUMP JUMPDEST SWAP2 POP PUSH2 0x36F2 DUP3 PUSH2 0x36B1 JUMP JUMPDEST PUSH1 0x1 DUP3 ADD SWAP1 POP SWAP2 SWAP1 POP JUMP JUMPDEST PUSH1 0x0 DUP2 SWAP1 POP DUP2 PUSH1 0x0 MSTORE PUSH1 0x20 PUSH1 0x0 KECCAK256 SWAP1 POP SWAP2 SWAP1 POP JUMP JUMPDEST PUSH1 0x0 DUP2 SLOAD PUSH2 0x371F DUP2 PUSH2 0x320F JUMP JUMPDEST PUSH2 0x3729 DUP2 DUP7 PUSH2 0x3365 JUMP JUMPDEST SWAP5 POP PUSH1 0x1 DUP3 AND PUSH1 0x0 DUP2 EQ PUSH2 0x3744 JUMPI PUSH1 0x1 DUP2 EQ PUSH2 0x3755 JUMPI PUSH2 0x3788 JUMP JUMPDEST PUSH1 0xFF NOT DUP4 AND DUP7 MSTORE DUP2 DUP7 ADD SWAP4 POP PUSH2 0x3788 JUMP JUMPDEST PUSH2 0x375E DUP6 PUSH2 0x36FD JUMP JUMPDEST PUSH1 0x0 JUMPDEST DUP4 DUP2 LT ISZERO PUSH2 0x3780 JUMPI DUP2 SLOAD DUP2 DUP10 ADD MSTORE PUSH1 0x1 DUP3 ADD SWAP2 POP PUSH1 0x20 DUP2 ADD SWAP1 POP PUSH2 0x3761 JUMP JUMPDEST DUP4 DUP9 ADD SWAP6 POP POP POP JUMPDEST POP POP POP SWAP3 SWAP2 POP POP JUMP JUMPDEST PUSH1 0x0 PUSH2 0x379E DUP3 DUP6 DUP8 PUSH2 0x3370 JUMP JUMPDEST SWAP2 POP PUSH2 0x37A9 DUP3 PUSH2 0x36DA JUMP JUMPDEST SWAP2 POP PUSH2 0x37B5 DUP3 DUP5 PUSH2 0x3712 JUMP JUMPDEST SWAP2 POP DUP2 SWAP1 POP SWAP5 SWAP4 POP POP POP POP JUMP JUMPDEST PUSH1 0x0 PUSH2 0x37CE DUP3 DUP7 PUSH2 0x3712 JUMP JUMPDEST SWAP2 POP PUSH2 0x37DA DUP3 DUP6 PUSH2 0x35F0 JUMP JUMPDEST SWAP2 POP PUSH2 0x37E6 DUP3 DUP5 PUSH2 0x3712 JUMP JUMPDEST SWAP2 POP DUP2 SWAP1 POP SWAP5 SWAP4 POP POP POP POP JUMP JUMPDEST PUSH32 0x7B226E616D65223A202200000000000000000000000000000000000000000000 PUSH1 0x0 DUP3 ADD MSTORE POP JUMP JUMPDEST PUSH1 0x0 PUSH2 0x3829 PUSH1 0xA DUP4 PUSH2 0x3365 JUMP JUMPDEST SWAP2 POP PUSH2 0x3834 DUP3 PUSH2 0x37F3 JUMP JUMPDEST PUSH1 0xA DUP3 ADD SWAP1 POP SWAP2 SWAP1 POP JUMP JUMPDEST PUSH32 0x222C20226465736372697074696F6E223A20224120646F6D61696E206F6E2074 PUSH1 0x0 DUP3 ADD MSTORE PUSH32 0x68652044636861696E206E616D652073657276696365222C2022696D61676522 PUSH1 0x20 DUP3 ADD MSTORE PUSH32 0x3A2022646174613A696D6167652F7376672B786D6C3B6261736536342C000000 PUSH1 0x40 DUP3 ADD MSTORE POP JUMP JUMPDEST PUSH1 0x0 PUSH2 0x38C1 PUSH1 0x5D DUP4 PUSH2 0x3365 JUMP JUMPDEST SWAP2 POP PUSH2 0x38CC DUP3 PUSH2 0x383F JUMP JUMPDEST PUSH1 0x5D DUP3 ADD SWAP1 POP SWAP2 SWAP1 POP JUMP JUMPDEST PUSH32 0x222C226C656E677468223A220000000000000000000000000000000000000000 PUSH1 0x0 DUP3 ADD MSTORE POP JUMP JUMPDEST PUSH1 0x0 PUSH2 0x390D PUSH1 0xC DUP4 PUSH2 0x3365 JUMP JUMPDEST SWAP2 POP PUSH2 0x3918 DUP3 PUSH2 0x38D7 JUMP JUMPDEST PUSH1 0xC DUP3 ADD SWAP1 POP SWAP2 SWAP1 POP JUMP JUMPDEST PUSH32 0x227D000000000000000000000000000000000000000000000000000000000000 PUSH1 0x0 DUP3 ADD MSTORE POP JUMP JUMPDEST PUSH1 0x0 PUSH2 0x3959 PUSH1 0x2 DUP4 PUSH2 0x3365 JUMP JUMPDEST SWAP2 POP PUSH2 0x3964 DUP3 PUSH2 0x3923 JUMP JUMPDEST PUSH1 0x2 DUP3 ADD SWAP1 POP SWAP2 SWAP1 POP JUMP JUMPDEST PUSH1 0x0 PUSH2 0x397A DUP3 PUSH2 0x381C JUMP JUMPDEST SWAP2 POP PUSH2 0x3986 DUP3 DUP7 PUSH2 0x35F0 JUMP JUMPDEST SWAP2 POP PUSH2 0x3991 DUP3 PUSH2 0x38B4 JUMP JUMPDEST SWAP2 POP PUSH2 0x399D DUP3 DUP6 PUSH2 0x35F0 JUMP JUMPDEST SWAP2 POP PUSH2 0x39A8 DUP3 PUSH2 0x3900 JUMP JUMPDEST SWAP2 POP PUSH2 0x39B4 DUP3 DUP5 PUSH2 0x35F0 JUMP JUMPDEST SWAP2 POP PUSH2 0x39BF DUP3 PUSH2 0x394C JUMP JUMPDEST SWAP2 POP DUP2 SWAP1 POP SWAP5 SWAP4 POP POP POP POP JUMP JUMPDEST PUSH32 0x646174613A6170706C69636174696F6E2F6A736F6E3B6261736536342C000000 PUSH1 0x0 DUP3 ADD MSTORE POP JUMP JUMPDEST PUSH1 0x0 PUSH2 0x3A02 PUSH1 0x1D DUP4 PUSH2 0x3365 JUMP JUMPDEST SWAP2 POP PUSH2 0x3A0D DUP3 PUSH2 0x39CC JUMP JUMPDEST PUSH1 0x1D DUP3 ADD SWAP1 POP SWAP2 SWAP1 POP JUMP JUMPDEST PUSH1 0x0 PUSH2 0x3A23 DUP3 PUSH2 0x39F5 JUMP JUMPDEST SWAP2 POP PUSH2 0x3A2F DUP3 DUP5 PUSH2 0x35F0 JUMP JUMPDEST SWAP2 POP DUP2 SWAP1 POP SWAP3 SWAP2 POP POP JUMP JUMPDEST PUSH1 0x0 PUSH1 0x40 DUP3 ADD SWAP1 POP DUP2 DUP2 SUB PUSH1 0x0 DUP4 ADD MSTORE PUSH2 0x3A54 DUP2 DUP6 PUSH2 0x2AF8 JUMP JUMPDEST SWAP1 POP DUP2 DUP2 SUB PUSH1 0x20 DUP4 ADD MSTORE PUSH2 0x3A68 DUP2 DUP5 PUSH2 0x2AF8 JUMP JUMPDEST SWAP1 POP SWAP4 SWAP3 POP POP POP JUMP JUMPDEST PUSH32 0x4552433732313A207472616E736665722066726F6D20696E636F727265637420 PUSH1 0x0 DUP3 ADD MSTORE PUSH32 0x6F776E6572000000000000000000000000000000000000000000000000000000 PUSH1 0x20 DUP3 ADD MSTORE POP JUMP JUMPDEST PUSH1 0x0 PUSH2 0x3ACD PUSH1 0x25 DUP4 PUSH2 0x2AA3 JUMP JUMPDEST SWAP2 POP PUSH2 0x3AD8 DUP3 PUSH2 0x3A71 JUMP JUMPDEST PUSH1 0x40 DUP3 ADD SWAP1 POP SWAP2 SWAP1 POP JUMP JUMPDEST PUSH1 0x0 PUSH1 0x20 DUP3 ADD SWAP1 POP DUP2 DUP2 SUB PUSH1 0x0 DUP4 ADD MSTORE PUSH2 0x3AFC DUP2 PUSH2 0x3AC0 JUMP JUMPDEST SWAP1 POP SWAP2 SWAP1 POP JUMP JUMPDEST PUSH32 0x4552433732313A207472616E7366657220746F20746865207A65726F20616464 PUSH1 0x0 DUP3 ADD MSTORE PUSH32 0x7265737300000000000000000000000000000000000000000000000000000000 PUSH1 0x20 DUP3 ADD MSTORE POP JUMP JUMPDEST PUSH1 0x0 PUSH2 0x3B5F PUSH1 0x24 DUP4 PUSH2 0x2AA3 JUMP JUMPDEST SWAP2 POP PUSH2 0x3B6A DUP3 PUSH2 0x3B03 JUMP JUMPDEST PUSH1 0x40 DUP3 ADD SWAP1 POP SWAP2 SWAP1 POP JUMP JUMPDEST PUSH1 0x0 PUSH1 0x20 DUP3 ADD SWAP1 POP DUP2 DUP2 SUB PUSH1 0x0 DUP4 ADD MSTORE PUSH2 0x3B8E DUP2 PUSH2 0x3B52 JUMP JUMPDEST SWAP1 POP SWAP2 SWAP1 POP JUMP JUMPDEST PUSH32 0x4E487B7100000000000000000000000000000000000000000000000000000000 PUSH1 0x0 MSTORE PUSH1 0x11 PUSH1 0x4 MSTORE PUSH1 0x24 PUSH1 0x0 REVERT JUMPDEST PUSH1 0x0 PUSH2 0x3BCF DUP3 PUSH2 0x2B53 JUMP JUMPDEST SWAP2 POP PUSH2 0x3BDA DUP4 PUSH2 0x2B53 JUMP JUMPDEST SWAP3 POP DUP3 DUP3 LT ISZERO PUSH2 0x3BED JUMPI PUSH2 0x3BEC PUSH2 0x3B95 JUMP JUMPDEST JUMPDEST DUP3 DUP3 SUB SWAP1 POP SWAP3 SWAP2 POP POP JUMP JUMPDEST PUSH1 0x0 PUSH2 0x3C03 DUP3 PUSH2 0x2B53 JUMP JUMPDEST SWAP2 POP PUSH2 0x3C0E DUP4 PUSH2 0x2B53 JUMP JUMPDEST SWAP3 POP DUP3 PUSH32 0xFFFFFFFFFFFFFFFFFFFFFFFFFFFFFFFFFFFFFFFFFFFFFFFFFFFFFFFFFFFFFFFF SUB DUP3 GT ISZERO PUSH2 0x3C43 JUMPI PUSH2 0x3C42 PUSH2 0x3B95 JUMP JUMPDEST JUMPDEST DUP3 DUP3 ADD SWAP1 POP SWAP3 SWAP2 POP POP JUMP JUMPDEST PUSH32 0x4552433732313A20617070726F766520746F2063616C6C657200000000000000 PUSH1 0x0 DUP3 ADD MSTORE POP JUMP JUMPDEST PUSH1 0x0 PUSH2 0x3C84 PUSH1 0x19 DUP4 PUSH2 0x2AA3 JUMP JUMPDEST SWAP2 POP PUSH2 0x3C8F DUP3 PUSH2 0x3C4E JUMP JUMPDEST PUSH1 0x20 DUP3 ADD SWAP1 POP SWAP2 SWAP1 POP JUMP JUMPDEST PUSH1 0x0 PUSH1 0x20 DUP3 ADD SWAP1 POP DUP2 DUP2 SUB PUSH1 0x0 DUP4 ADD MSTORE PUSH2 0x3CB3 DUP2 PUSH2 0x3C77 JUMP JUMPDEST SWAP1 POP SWAP2 SWAP1 POP JUMP JUMPDEST PUSH32 0x4552433732313A207472616E7366657220746F206E6F6E204552433732315265 PUSH1 0x0 DUP3 ADD MSTORE PUSH32 0x63656976657220696D706C656D656E7465720000000000000000000000000000 PUSH1 0x20 DUP3 ADD MSTORE POP JUMP JUMPDEST PUSH1 0x0 PUSH2 0x3D16 PUSH1 0x32 DUP4 PUSH2 0x2AA3 JUMP JUMPDEST SWAP2 POP PUSH2 0x3D21 DUP3 PUSH2 0x3CBA JUMP JUMPDEST PUSH1 0x40 DUP3 ADD SWAP1 POP SWAP2 SWAP1 POP JUMP JUMPDEST PUSH1 0x0 PUSH1 0x20 DUP3 ADD SWAP1 POP DUP2 DUP2 SUB PUSH1 0x0 DUP4 ADD MSTORE PUSH2 0x3D45 DUP2 PUSH2 0x3D09 JUMP JUMPDEST SWAP1 POP SWAP2 SWAP1 POP JUMP JUMPDEST PUSH32 0x4E487B7100000000000000000000000000000000000000000000000000000000 PUSH1 0x0 MSTORE PUSH1 0x32 PUSH1 0x4 MSTORE PUSH1 0x24 PUSH1 0x0 REVERT JUMPDEST PUSH1 0x0 PUSH2 0x3D86 DUP3 PUSH2 0x2B53 JUMP JUMPDEST SWAP2 POP PUSH32 0xFFFFFFFFFFFFFFFFFFFFFFFFFFFFFFFFFFFFFFFFFFFFFFFFFFFFFFFFFFFFFFFF DUP3 EQ ISZERO PUSH2 0x3DB9 JUMPI PUSH2 0x3DB8 PUSH2 0x3B95 JUMP JUMPDEST JUMPDEST PUSH1 0x1 DUP3 ADD SWAP1 POP SWAP2 SWAP1 POP JUMP JUMPDEST PUSH32 0x4E487B7100000000000000000000000000000000000000000000000000000000 PUSH1 0x0 MSTORE PUSH1 0x12 PUSH1 0x4 MSTORE PUSH1 0x24 PUSH1 0x0 REVERT JUMPDEST PUSH1 0x0 PUSH2 0x3DFE DUP3 PUSH2 0x2B53 JUMP JUMPDEST SWAP2 POP PUSH2 0x3E09 DUP4 PUSH2 0x2B53 JUMP JUMPDEST SWAP3 POP DUP3 PUSH2 0x3E19 JUMPI PUSH2 0x3E18 PUSH2 0x3DC4 JUMP JUMPDEST JUMPDEST DUP3 DUP3 DIV SWAP1 POP SWAP3 SWAP2 POP POP JUMP JUMPDEST PUSH1 0x0 PUSH2 0x3E2F DUP3 PUSH2 0x2B53 JUMP JUMPDEST SWAP2 POP PUSH2 0x3E3A DUP4 PUSH2 0x2B53 JUMP JUMPDEST SWAP3 POP DUP3 PUSH2 0x3E4A JUMPI PUSH2 0x3E49 PUSH2 0x3DC4 JUMP JUMPDEST JUMPDEST DUP3 DUP3 MOD SWAP1 POP SWAP3 SWAP2 POP POP JUMP JUMPDEST PUSH1 0x0 PUSH1 0x80 DUP3 ADD SWAP1 POP DUP2 DUP2 SUB PUSH1 0x0 DUP4 ADD MSTORE PUSH2 0x3E6F DUP2 DUP8 PUSH2 0x2AF8 JUMP JUMPDEST SWAP1 POP DUP2 DUP2 SUB PUSH1 0x20 DUP4 ADD MSTORE PUSH2 0x3E83 DUP2 DUP7 PUSH2 0x2AF8 JUMP JUMPDEST SWAP1 POP DUP2 DUP2 SUB PUSH1 0x40 DUP4 ADD MSTORE PUSH2 0x3E97 DUP2 DUP6 PUSH2 0x2AF8 JUMP JUMPDEST SWAP1 POP PUSH2 0x3EA6 PUSH1 0x60 DUP4 ADD DUP5 PUSH2 0x2F29 JUMP JUMPDEST SWAP6 SWAP5 POP POP POP POP POP JUMP JUMPDEST PUSH1 0x0 PUSH2 0x3EBA DUP3 PUSH2 0x2B53 JUMP JUMPDEST SWAP2 POP PUSH2 0x3EC5 DUP4 PUSH2 0x2B53 JUMP JUMPDEST SWAP3 POP DUP2 PUSH32 0xFFFFFFFFFFFFFFFFFFFFFFFFFFFFFFFFFFFFFFFFFFFFFFFFFFFFFFFFFFFFFFFF DIV DUP4 GT DUP3 ISZERO ISZERO AND ISZERO PUSH2 0x3EFE JUMPI PUSH2 0x3EFD PUSH2 0x3B95 JUMP JUMPDEST JUMPDEST DUP3 DUP3 MUL SWAP1 POP SWAP3 SWAP2 POP POP JUMP JUMPDEST PUSH32 0x45524337323155524953746F726167653A2055524920736574206F66206E6F6E PUSH1 0x0 DUP3 ADD MSTORE PUSH32 0x6578697374656E7420746F6B656E000000000000000000000000000000000000 PUSH1 0x20 DUP3 ADD MSTORE POP JUMP JUMPDEST PUSH1 0x0 PUSH2 0x3F65 PUSH1 0x2E DUP4 PUSH2 0x2AA3 JUMP JUMPDEST SWAP2 POP PUSH2 0x3F70 DUP3 PUSH2 0x3F09 JUMP JUMPDEST PUSH1 0x40 DUP3 ADD SWAP1 POP SWAP2 SWAP1 POP JUMP JUMPDEST PUSH1 0x0 PUSH1 0x20 DUP3 ADD SWAP1 POP DUP2 DUP2 SUB PUSH1 0x0 DUP4 ADD MSTORE PUSH2 0x3F94 DUP2 PUSH2 0x3F58 JUMP JUMPDEST SWAP1 POP SWAP2 SWAP1 POP JUMP JUMPDEST PUSH1 0x0 DUP2 MLOAD SWAP1 POP SWAP2 SWAP1 POP JUMP JUMPDEST PUSH1 0x0 DUP3 DUP3 MSTORE PUSH1 0x20 DUP3 ADD SWAP1 POP SWAP3 SWAP2 POP POP JUMP JUMPDEST PUSH1 0x0 PUSH2 0x3FC2 DUP3 PUSH2 0x3F9B JUMP JUMPDEST PUSH2 0x3FCC DUP2 DUP6 PUSH2 0x3FA6 JUMP JUMPDEST SWAP4 POP PUSH2 0x3FDC DUP2 DUP6 PUSH1 0x20 DUP7 ADD PUSH2 0x2AB4 JUMP JUMPDEST PUSH2 0x3FE5 DUP2 PUSH2 0x2AE7 JUMP JUMPDEST DUP5 ADD SWAP2 POP POP SWAP3 SWAP2 POP POP JUMP JUMPDEST PUSH1 0x0 PUSH1 0x80 DUP3 ADD SWAP1 POP PUSH2 0x4005 PUSH1 0x0 DUP4 ADD DUP8 PUSH2 0x2BE8 JUMP JUMPDEST PUSH2 0x4012 PUSH1 0x20 DUP4 ADD DUP7 PUSH2 0x2BE8 JUMP JUMPDEST PUSH2 0x401F PUSH1 0x40 DUP4 ADD DUP6 PUSH2 0x2F29 JUMP JUMPDEST DUP2 DUP2 SUB PUSH1 0x60 DUP4 ADD MSTORE PUSH2 0x4031 DUP2 DUP5 PUSH2 0x3FB7 JUMP JUMPDEST SWAP1 POP SWAP6 SWAP5 POP POP POP POP POP JUMP JUMPDEST PUSH1 0x0 DUP2 MLOAD SWAP1 POP PUSH2 0x404B DUP2 PUSH2 0x2A09 JUMP JUMPDEST SWAP3 SWAP2 POP POP JUMP JUMPDEST PUSH1 0x0 PUSH1 0x20 DUP3 DUP5 SUB SLT ISZERO PUSH2 0x4067 JUMPI PUSH2 0x4066 PUSH2 0x29D3 JUMP JUMPDEST JUMPDEST PUSH1 0x0 PUSH2 0x4075 DUP5 DUP3 DUP6 ADD PUSH2 0x403C JUMP JUMPDEST SWAP2 POP POP SWAP3 SWAP2 POP POP JUMP JUMPDEST PUSH32 0x4552433732313A206D696E7420746F20746865207A65726F2061646472657373 PUSH1 0x0 DUP3 ADD MSTORE POP JUMP JUMPDEST PUSH1 0x0 PUSH2 0x40B4 PUSH1 0x20 DUP4 PUSH2 0x2AA3 JUMP JUMPDEST SWAP2 POP PUSH2 0x40BF DUP3 PUSH2 0x407E JUMP JUMPDEST PUSH1 0x20 DUP3 ADD SWAP1 POP SWAP2 SWAP1 POP JUMP JUMPDEST PUSH1 0x0 PUSH1 0x20 DUP3 ADD SWAP1 POP DUP2 DUP2 SUB PUSH1 0x0 DUP4 ADD MSTORE PUSH2 0x40E3 DUP2 PUSH2 0x40A7 JUMP JUMPDEST SWAP1 POP SWAP2 SWAP1 POP JUMP JUMPDEST PUSH32 0x4552433732313A20746F6B656E20616C7265616479206D696E74656400000000 PUSH1 0x0 DUP3 ADD MSTORE POP JUMP JUMPDEST PUSH1 0x0 PUSH2 0x4120 PUSH1 0x1C DUP4 PUSH2 0x2AA3 JUMP JUMPDEST SWAP2 POP PUSH2 0x412B DUP3 PUSH2 0x40EA JUMP JUMPDEST PUSH1 0x20 DUP3 ADD SWAP1 POP SWAP2 SWAP1 POP JUMP JUMPDEST PUSH1 0x0 PUSH1 0x20 DUP3 ADD SWAP1 POP DUP2 DUP2 SUB PUSH1 0x0 DUP4 ADD MSTORE PUSH2 0x414F DUP2 PUSH2 0x4113 JUMP JUMPDEST SWAP1 POP SWAP2 SWAP1 POP JUMP INVALID EXP 0x2D 0x2D 0x2D 0x2D 0x2D 0x2D 0x2D 0x2D 0x2D 0x2D 0x2D 0x2D 0x2D 0x2D 0x2D 0x2D 0x2D 0x2D 0x2D 0x2D 0x2D 0x2D 0x2D 0x2D 0x2D 0x2D 0x2D 0x2D 0x2D 0x2D 0x2D 0x2D 0x2D 0x2D 0x2D 0x2D 0x2D 0x2D 0x2D 0x2D 0x2D 0x2D 0x2D 0x2D 0x2D 0x2D 0x2D 0x2D 0x2D 0x2D 0x2D 0x2D 0x2D 0x2D 0x2D 0x2D MSTORE PUSH6 0x676973746572 PUSH10 0x6E672025732E2573206F PUSH15 0x2074686520636F6E74726163742077 PUSH10 0x746820746F6B656E4944 KECCAK256 0x25 PUSH5 0x2D2D2D2D2D 0x2D 0x2D 0x2D 0x2D 0x2D 0x2D 0x2D 0x2D 0x2D 0x2D 0x2D 0x2D 0x2D 0x2D 0x2D 0x2D 0x2D 0x2D 0x2D 0x2D 0x2D 0x2D 0x2D 0x2D 0x2D 0x2D 0x2D 0x2D 0x2D 0x2D 0x2D 0x2D 0x2D 0x2D 0x2D 0x2D 0x2D 0x2D 0x2D 0x2D 0x2D 0x2D 0x2D 0x2D 0x2D 0x2D 0x2D 0x2D 0x2D 0x2D 0x2D EXP COINBASE TIMESTAMP NUMBER DIFFICULTY GASLIMIT CHAINID SELFBALANCE BASEFEE 0x49 0x4A 0x4B 0x4C 0x4D 0x4E 0x4F POP MLOAD MSTORE MSTORE8 SLOAD SSTORE JUMP JUMPI PC MSIZE GAS PUSH2 0x6263 PUSH5 0x6566676869 PUSH11 0x6B6C6D6E6F707172737475 PUSH23 0x7778797A303132333435363738392B2FA2646970667358 0x22 SLT KECCAK256 0xA7 0xDB ADDMOD CALLDATALOAD MLOAD MLOAD SWAP12 0xE6 0xBB OR 0xD4 0xD3 0x4E 0xD1 STATICCALL 0xDD SWAP12 0xD8 MSIZE 0xC0 BASEFEE 0xC9 0xDF GASPRICE DUP9 0xEE SWAP13 BALANCE 0xFB NUMBER GASPRICE DIV PUSH5 0x736F6C6343 STOP ADDMOD EXP STOP CALLER EXTCODECOPY PUSH20 0x766720786D6C6E733D22687474703A2F2F777777 0x2E PUSH24 0x332E6F72672F323030302F737667222077696474683D2232 CALLDATACOPY ADDRESS 0x22 KECCAK256 PUSH9 0x65696768743D223237 ADDRESS 0x22 KECCAK256 PUSH7 0x696C6C3D226E6F PUSH15 0x65223E3C706174682066696C6C3D22 PUSH22 0x726C282342292220643D224D30203068323730763237 ADDRESS BASEFEE ADDRESS PUSH27 0x222F3E3C646566733E3C66696C7465722069643D22412220636F6C PUSH16 0x722D696E746572706F6C6174696F6E2D PUSH7 0x696C746572733D 0x22 PUSH20 0x524742222066696C746572556E6974733D227573 PUSH6 0x725370616365 0x4F PUSH15 0x55736522206865696768743D223237 ADDRESS 0x22 KECCAK256 PUSH24 0x696474683D22323730223E3C666544726F70536861646F77 KECCAK256 PUSH5 0x783D223022 KECCAK256 PUSH5 0x793D223122 KECCAK256 PUSH20 0x7464446576696174696F6E3D22322220666C6F6F PUSH5 0x2D6F706163 PUSH10 0x74793D222E3232352220 PUSH24 0x696474683D223230302522206865696768743D2232303025 0x22 0x2F RETURNDATACOPY EXTCODECOPY 0x2F PUSH7 0x696C7465723E3C 0x2F PUSH5 0x6566733E3C PUSH17 0x61746820643D224D37322E383633203432 0x2E CODECOPY CALLVALUE CODECOPY PUSH4 0x2D2E3636 CODESIZE 0x2D 0x2E CALLER CODESIZE CALLDATACOPY 0x2D BALANCE 0x2E CALLVALUE ORIGIN CALLDATASIZE 0x2D 0x2E CALLDATALOAD CODECOPY 0x2D ORIGIN 0x2E BALANCE CODECOPY CALLDATACOPY 0x2D 0x2E CALLDATALOAD CODECOPY PUSH20 0x2D312E3532392E3230342D322E3139372E35396C 0x2D BALANCE ADDRESS 0x2E ADDRESS CODESIZE BALANCE KECCAK256 CALLDATASIZE 0x2E ADDRESS CALLER ORIGIN 0x2D CALLDATASIZE 0x2E CODESIZE CALLDATALOAD KECCAK256 CALLER 0x2E CODECOPY CALLER CALLVALUE 0x2D BALANCE ADDRESS 0x2E ADDRESS CODESIZE BALANCE KECCAK256 CALLDATASIZE 0x2E ADDRESS CALLER ORIGIN PUSH4 0x2D2E3636 CODESIZE 0x2E CALLER CODESIZE CALLDATACOPY 0x2D BALANCE 0x2E CALLVALUE ORIGIN CALLDATASIZE 0x2E CALLDATALOAD CODECOPY 0x2D ORIGIN 0x2E BALANCE CODECOPY CALLDATACOPY 0x2E CALLDATALOAD CODECOPY PUSH20 0x2D312E3532392D2E3230342D322E3139372D2E35 CODECOPY PUSH13 0x2D382E3031332D342E37323161 CALLVALUE 0x2E CALLDATALOAD ORIGIN KECCAK256 CALLVALUE 0x2E CALLDATALOAD ORIGIN KECCAK256 ADDRESS KECCAK256 ADDRESS KECCAK256 BALANCE 0x2D BALANCE 0x2E CALLDATALOAD CODESIZE CODECOPY 0x2D BALANCE 0x2E CALLDATASIZE BALANCE CALLDATASIZE PUSH4 0x2D2E3338 CALLVALUE 0x2D 0x2E CALLDATASIZE CALLDATASIZE CALLDATALOAD 0x2D 0x2E CALLDATALOAD CODECOPY CALLVALUE 0x2D BALANCE 0x2E CALLVALUE BALANCE CODESIZE 0x2D 0x2E CALLDATASIZE ADDRESS CODESIZE 0x2D ORIGIN 0x2E BALANCE CODESIZE CALLDATACOPY PUSH23 0x2D392E3331632D2E3031332D2E3737352E3138352D312E CALLDATALOAD CALLER CODESIZE 0x2E CALLDATALOAD CALLDATACOPY ORIGIN 0x2D ORIGIN 0x2E ORIGIN ADDRESS CODESIZE PUSH2 0x342E ORIGIN CALLDATALOAD KECCAK256 CALLVALUE 0x2E ORIGIN CALLDATALOAD KECCAK256 ADDRESS KECCAK256 ADDRESS KECCAK256 BALANCE KECCAK256 BALANCE 0x2E CALLDATASIZE ORIGIN CALLDATALOAD 0x2D BALANCE 0x2E CALLDATALOAD CODECOPY CALLDATALOAD PUSH13 0x372E3838342D342E3539632E36 CALLDATASIZE CODESIZE 0x2D 0x2E CALLER CODESIZE CALLDATACOPY KECCAK256 BALANCE 0x2E CALLVALUE ORIGIN CALLDATASIZE 0x2D 0x2E CALLDATALOAD CODECOPY KECCAK256 ORIGIN 0x2E BALANCE CODECOPY CALLDATACOPY 0x2D 0x2E CALLDATALOAD CODECOPY PUSH20 0x312E3532392E32303420322E3139372E35396C37 0x2E CODESIZE CODESIZE CALLVALUE KECCAK256 CALLVALUE 0x2E CALLDATALOAD CODECOPY PUSH2 0x342E CALLDATALOAD ORIGIN KECCAK256 CALLVALUE 0x2E CALLDATALOAD ORIGIN KECCAK256 ADDRESS KECCAK256 ADDRESS KECCAK256 BALANCE KECCAK256 BALANCE 0x2E CALLDATALOAD CODESIZE CODECOPY KECCAK256 BALANCE 0x2E CALLDATASIZE BALANCE CALLDATASIZE PUSH4 0x2E333834 0x2E CALLDATASIZE CALLDATASIZE CALLDATALOAD 0x2E CALLDATALOAD CODECOPY CALLVALUE KECCAK256 BALANCE 0x2E CALLVALUE BALANCE CODESIZE 0x2E CALLDATASIZE ADDRESS CODESIZE KECCAK256 ORIGIN 0x2E BALANCE CODESIZE CALLDATACOPY PUSH23 0x362E3033326C362E38352D342E303635762D362E303332 PUSH4 0x2E303133 0x2D 0x2E CALLDATACOPY CALLDATACOPY CALLDATALOAD 0x2D 0x2E BALANCE CODESIZE CALLDATALOAD 0x2D BALANCE 0x2E CALLDATALOAD CALLER CODESIZE 0x2D 0x2E CALLDATALOAD CALLDATACOPY ORIGIN 0x2D ORIGIN 0x2E ORIGIN ADDRESS CODESIZE PUSH2 0x342E ORIGIN CALLDATALOAD KECCAK256 CALLVALUE 0x2E ORIGIN CALLDATALOAD KECCAK256 ADDRESS KECCAK256 ADDRESS KECCAK256 ADDRESS 0x2D BALANCE 0x2E CALLDATASIZE ORIGIN CALLDATALOAD 0x2D BALANCE 0x2E CALLDATALOAD CODECOPY CALLDATALOAD 0x4C CALLVALUE BALANCE 0x2E CALLVALUE CALLDATALOAD CALLDATASIZE KECCAK256 ORIGIN CALLVALUE 0x2E CALLDATALOAD CODECOPY PUSH4 0x2D2E3636 CODESIZE 0x2D 0x2E CALLER CODESIZE CALLDATACOPY 0x2D BALANCE 0x2E CALLVALUE ORIGIN CALLDATASIZE 0x2D 0x2E CALLDATALOAD CODECOPY 0x2D ORIGIN 0x2E BALANCE CODECOPY CALLDATACOPY 0x2D 0x2E CALLDATALOAD CODECOPY PUSH20 0x2D312E3532392E3230342D322E3139372E35396C 0x2D BALANCE CALLVALUE 0x2E CODESIZE CALLDATASIZE CALLVALUE KECCAK256 CODESIZE 0x2E CALLDATASIZE CALLDATALOAD CALLDATALOAD PUSH2 0x342E ORIGIN CALLDATALOAD KECCAK256 CALLVALUE 0x2E ORIGIN CALLDATALOAD KECCAK256 ADDRESS KECCAK256 ADDRESS KECCAK256 ADDRESS 0x2D BALANCE 0x2E CALLDATASIZE ORIGIN CALLDATALOAD KECCAK256 BALANCE 0x2E CALLDATALOAD CODECOPY CALLDATALOAD PUSH4 0x2D2E3338 CALLDATACOPY 0x2E CALLDATASIZE CALLDATACOPY 0x2D 0x2E CALLDATALOAD CODESIZE CALLDATALOAD KECCAK256 BALANCE 0x2E CALLVALUE CALLER CALLVALUE 0x2D 0x2E CALLDATALOAD CALLDATACOPY ORIGIN KECCAK256 ORIGIN 0x2E ORIGIN ADDRESS CODESIZE PUSH23 0x31372E343431632D2E3031332E3737352E31383520312E CALLDATALOAD CALLER CODESIZE 0x2E CALLDATALOAD CALLDATACOPY ORIGIN KECCAK256 ORIGIN 0x2E ORIGIN ADDRESS CODESIZE PUSH2 0x342E ORIGIN CALLDATALOAD KECCAK256 CALLVALUE 0x2E ORIGIN CALLDATALOAD KECCAK256 ADDRESS KECCAK256 ADDRESS KECCAK256 ADDRESS KECCAK256 BALANCE 0x2E CALLDATASIZE ORIGIN CALLDATALOAD KECCAK256 BALANCE 0x2E CALLDATALOAD CODECOPY CALLDATALOAD PUSH13 0x31342E38363420382E36353563 0x2E CALLDATASIZE CALLDATASIZE CODESIZE 0x2E CALLER CODESIZE CALLDATACOPY KECCAK256 BALANCE 0x2E CALLVALUE ORIGIN CALLDATASIZE 0x2E CALLDATALOAD CODECOPY KECCAK256 ORIGIN 0x2E BALANCE CODECOPY CALLDATACOPY 0x2E CALLDATALOAD CODECOPY PUSH20 0x312E3532392D2E32303420322E3139372D2E3539 PUSH13 0x31302E3038312D352E39303120 CALLDATASIZE 0x2E CODESIZE CALLDATALOAD 0x2D CALLVALUE 0x2E ADDRESS CALLDATASIZE CALLDATALOAD KECCAK256 BALANCE ADDRESS 0x2E ADDRESS CODESIZE BALANCE 0x2D CALLDATALOAD 0x2E CODECOPY ADDRESS BALANCE PUSH4 0x2E363638 0x2D 0x2E CALLER CODESIZE CALLDATACOPY KECCAK256 BALANCE 0x2E CALLVALUE ORIGIN CALLDATASIZE 0x2D 0x2E CALLDATALOAD CODECOPY KECCAK256 ORIGIN 0x2E BALANCE CODECOPY CALLDATACOPY 0x2D 0x2E CALLDATALOAD CODECOPY PUSH20 0x312E3532392E32303420322E3139372E35396C37 0x2E CODESIZE CODESIZE CALLVALUE KECCAK256 CALLVALUE 0x2E CALLDATALOAD CODECOPY PUSH2 0x342E CALLDATALOAD ORIGIN KECCAK256 CALLVALUE 0x2E CALLDATALOAD ORIGIN KECCAK256 ADDRESS KECCAK256 ADDRESS KECCAK256 BALANCE KECCAK256 BALANCE 0x2E CALLDATALOAD CODESIZE CODECOPY KECCAK256 BALANCE 0x2E CALLDATASIZE BALANCE CALLDATASIZE PUSH4 0x2E333834 0x2E CALLDATASIZE CALLDATASIZE CALLDATALOAD 0x2E CALLDATALOAD CODECOPY CALLVALUE KECCAK256 BALANCE 0x2E CALLVALUE BALANCE CODESIZE 0x2E CALLDATASIZE ADDRESS CODESIZE KECCAK256 ORIGIN 0x2E BALANCE CODESIZE CALLDATACOPY PUSH23 0x392E333131632E3031332E3737352D2E31383520312E35 CALLER CODESIZE 0x2D 0x2E CALLDATALOAD CALLDATACOPY ORIGIN KECCAK256 ORIGIN 0x2E ORIGIN ADDRESS CODESIZE PUSH2 0x342E ORIGIN CALLDATALOAD KECCAK256 CALLVALUE 0x2E ORIGIN CALLDATALOAD KECCAK256 ADDRESS KECCAK256 ADDRESS KECCAK256 BALANCE 0x2D BALANCE 0x2E CALLDATASIZE ORIGIN CALLDATALOAD KECCAK256 BALANCE 0x2E CALLDATALOAD CODECOPY CALLDATALOAD PUSH13 0x2D372E38383420342E37323163 0x2D 0x2E CALLDATASIZE CALLDATASIZE CODESIZE 0x2E CALLER CODESIZE CALLDATACOPY 0x2D BALANCE 0x2E CALLVALUE ORIGIN CALLDATASIZE 0x2E CALLDATALOAD CODECOPY 0x2D ORIGIN 0x2E BALANCE CODECOPY CALLDATACOPY 0x2E CALLDATALOAD CODECOPY PUSH20 0x2D312E3532392D2E3230342D322E3139372D2E35 CODECOPY PUSH13 0x2D372E3838342D342E35396134 0x2E CALLDATALOAD ORIGIN KECCAK256 CALLVALUE 0x2E CALLDATALOAD ORIGIN KECCAK256 ADDRESS KECCAK256 ADDRESS KECCAK256 BALANCE 0x2D BALANCE 0x2E CALLDATALOAD CODESIZE CODECOPY 0x2D BALANCE 0x2E CALLDATASIZE BALANCE CALLDATASIZE PUSH4 0x2D2E3338 CALLDATALOAD 0x2D 0x2E CALLDATASIZE CALLDATASIZE CALLDATALOAD 0x2D 0x2E CALLDATALOAD CODECOPY CALLVALUE 0x2D BALANCE 0x2E CALLVALUE BALANCE CODESIZE 0x2D 0x2E CALLDATASIZE ADDRESS CODESIZE 0x2D ORIGIN 0x2E BALANCE CODESIZE CALLDATACOPY PUSH23 0x2D362E3033326C2D362E383520342E30363576362E3033 ORIGIN PUSH4 0x2D2E3031 CALLER 0x2E CALLDATACOPY CALLDATACOPY CALLDATALOAD 0x2E BALANCE CODESIZE CALLDATALOAD KECCAK256 BALANCE 0x2E CALLDATALOAD CALLER CODESIZE 0x2E CALLDATALOAD CALLDATACOPY ORIGIN KECCAK256 ORIGIN 0x2E ORIGIN ADDRESS CODESIZE PUSH2 0x342E ORIGIN CALLDATALOAD KECCAK256 CALLVALUE 0x2E ORIGIN CALLDATALOAD KECCAK256 ADDRESS KECCAK256 ADDRESS KECCAK256 ADDRESS KECCAK256 BALANCE 0x2E CALLDATASIZE ORIGIN CALLDATALOAD KECCAK256 BALANCE 0x2E CALLDATALOAD CODECOPY CALLDATALOAD PUSH13 0x31342E38363420382E36353563 0x2E CALLDATASIZE CALLDATASIZE CODESIZE 0x2E CALLER CODESIZE CALLDATACOPY KECCAK256 BALANCE 0x2E CALLVALUE ORIGIN CALLDATASIZE 0x2E CALLDATALOAD CODECOPY KECCAK256 ORIGIN 0x2E BALANCE CODECOPY CALLDATACOPY 0x2E CALLDATALOAD CODECOPY PUSH20 0x312E3532392D2E32303420322E3139372D2E3539 PUSH13 0x31342E3836342D382E36353563 0x2E CALLDATASIZE CALLDATALOAD CALLDATACOPY 0x2D 0x2E CALLER CODECOPY CALLVALUE KECCAK256 BALANCE 0x2E ORIGIN ADDRESS CALLVALUE 0x2D 0x2E CODECOPY CALLDATALOAD KECCAK256 BALANCE 0x2E CALLDATALOAD CODESIZE CODECOPY 0x2D BALANCE 0x2E CALLDATASIZE BALANCE CALLDATASIZE PUSH20 0x2E3539342D312E3431382E3630392D322E313837 JUMP CALLDATALOAD CALLDATALOAD 0x2E CALLDATALOAD CALLER CODESIZE PUSH4 0x2E303133 0x2D 0x2E CALLDATACOPY CALLDATACOPY CALLDATALOAD 0x2D 0x2E BALANCE CODESIZE CALLDATALOAD 0x2D BALANCE 0x2E CALLDATALOAD CALLER CODESIZE 0x2D 0x2E CALLDATALOAD CALLDATACOPY ORIGIN 0x2D ORIGIN 0x2E ORIGIN ADDRESS CODESIZE PUSH2 0x342E ORIGIN CALLDATALOAD KECCAK256 CALLVALUE 0x2E ORIGIN CALLDATALOAD KECCAK256 ADDRESS KECCAK256 ADDRESS KECCAK256 ADDRESS 0x2D BALANCE 0x2E CALLDATASIZE ORIGIN CALLDATALOAD 0x2D BALANCE 0x2E CALLDATALOAD CODECOPY CALLDATALOAD PUSH13 0x2D31342E3939332D382E373836 PUSH27 0x222066696C6C3D2223666666222F3E3C646566733E3C6C696E6561 PUSH19 0x4772616469656E742069643D2242222078313D 0x22 ADDRESS 0x22 KECCAK256 PUSH26 0x313D2230222078323D22323730222079323D2232373022206772 PUSH2 0x6469 PUSH6 0x6E74556E6974 PUSH20 0x3D227573657253706163654F6E557365223E3C73 PUSH21 0x6F702073746F702D636F6C6F723D22236362356565 PUSH6 0x222F3E3C7374 PUSH16 0x70206F66667365743D2231222073746F PUSH17 0x2D636F6C6F723D22233063643765342220 PUSH20 0x746F702D6F7061636974793D222E3939222F3E3C 0x2F PUSH13 0x696E6561724772616469656E74 RETURNDATACOPY EXTCODECOPY 0x2F PUSH5 0x6566733E3C PUSH21 0x65787420783D2233322E352220793D223233312220 PUSH7 0x6F6E742D73697A PUSH6 0x3D2232372220 PUSH7 0x696C6C3D222366 PUSH7 0x66222066696C74 PUSH6 0x723D2275726C 0x28 0x23 COINBASE 0x29 0x22 KECCAK256 PUSH7 0x6F6E742D66616D PUSH10 0x6C793D22506C7573204A PUSH2 0x6B61 PUSH19 0x74612053616E732C44656A6156752053616E73 0x2C 0x4E PUSH16 0x746F20436F6C6F7220456D6F6A692C41 PUSH17 0x706C6520436F6C6F7220456D6F6A692C73 PUSH2 0x6E73 0x2D PUSH20 0x657269662220666F6E742D7765696768743D2262 PUSH16 0x6C64223E000000000000000000000000 "},"methodIdentifiers":{"approve(address,uint256)":"095ea7b3","balanceOf(address)":"70a08231","domains(string)":"26449235","getAddress(string)":"bf40fac1","getApproved(uint256)":"081812fc","getRecord(string)":"11dd8845","isApprovedForAll(address,address)":"e985e9c5","isOwner()":"8f32d59b","name()":"06fdde03","owner()":"8da5cb5b","ownerOf(uint256)":"6352211e","price(string)":"fe2c6198","records(string)":"541e771d","register(string)":"f2c298be","safeTransferFrom(address,address,uint256)":"42842e0e","safeTransferFrom(address,address,uint256,bytes)":"b88d4fde","setApprovalForAll(address,bool)":"a22cb465","setRecord(string,string)":"c1880a98","supportsInterface(bytes4)":"01ffc9a7","symbol()":"95d89b41","tld()":"2d551432","tokenURI(uint256)":"c87b56dd","transferFrom(address,address,uint256)":"23b872dd","withdraw()":"3ccfd60b"}}}}}